:1020000000800020955800007D5800007D58000099
:1020100000000000000000000000000000000000C0
:102020000000000000000000000000007D580000DB
:1020300000000000000000007D580000E95800008A
:102040007D5800007D5800007D5800007D5800003C
:102050007D5800007D5800007D5800008158000028
:102060007D5800004D3F00007D5800007D58000065
:102070007D5800007D5800005D3F00007D58000045
:102080007D5800007D5800007D5800007D580000FC
:10209000000000007D5800007D5800007D580000C1
:1020A0007D5800007D5800007D5800007D580000DC
:1020B0000000000010B5064C2378002B07D1054B1B
:1020C000002B02D0044800E000BF0123237010BDA4
:1020D0005001002000000000A490000008B5084B4B
:1020E000002B03D00748084900E000BF07480368F9
:1020F000002B03D0064B002B00D0984708BDC046EC
:1021000000000000A49000005401002048010020BD
:102110000000000038B5041C0025A54208D064204A
:1021200003F028FC0135642003F024FCEDB2F4E751
:10213000092C05D8C820013403F01CFCE4B2F7E7F1
:1021400038BD000008B50B4B0121186803F0AAFE4A
:10215000094B0021186803F0A5FE084B0021186800
:1021600003F0A0FE064A074B1A60074A074B1A60A5
:1021700008BDC04628000020100000202C000020D0
:102180003333D33A78010020A47062BD800100206F
:1021900008B50D4B0021186803F084FE0B4B00219D
:1021A000186803F07FFE0A4B0021186803F07AFEDE
:1021B000084A094B09491A60094B186804F070FA7B
:1021C000084B186008BDC046280000201000002001
:1021D0002C000020C3F5A83978010020000034C28B
:1021E0007C0100208001002008B50B4B01211868FC
:1021F00003F058FE094B0021186803F053FE084B0A
:102200000021186803F04EFE064A074B1A60074A81
:10221000074B1A6008BDC0461800002024000020AB
:102220001C0000203333533A7C010020008014BD91
:102230008401002008B50B4B0021186803F032FE22
:10224000094B0021186803F02DFE084B0021186887
:1022500003F028FE064A074B1A60074A074B1A602C
:1022600008BDC04618000020240000201C000020EB
:10227000C3F528397C0100209A99EDBB8401002028
:1022800008B50E2003F042FD084B18600F2003F044
:102290003DFD074B1860102003F038FD054B18601A
:1022A00003F036FB044B186008BDC04670010020E7
:1022B00074010020A00100209C010020000000000B
:1022C0002F4B73B5186804F015FB2E4B2E4C196874
:1022D00004F0E6F92D4B0425196804F07DF806F0AA
:1022E0004BF90095021C0B1C201C03F029F8284E0A
:1022F000201C311C02F0FCFE264B186804F0FAFA90
:10230000254B196804F0CCF9244B196804F064F8E3
:1023100006F032F90095021C0B1C201C03F010F88B
:10232000311C201C02F0E4FE1D4B186804F0E2FA98
:102330001C4B196804F0B4F906F01EF90095021C54
:102340000B1C201C02F0FCFF201C174902F0D0FEE1
:10235000164B186806F09EF8084B074A04F042FE38
:102360000B1C0321021C0091201C02F0E9FF201C21
:102370000F4902F0CFFE73BD0000000000408F4007
:10238000700100207801002000060020800100205C
:1023900014890000740100207C01002084010020C9
:1023A000A001002014000020178900009C010020DB
:1023B00025890000C046C04608B50D4B1A680A2A98
:1023C00006D0322A02D1FFF7E3FE03E00A221A60A8
:1023D000FFF7B8FE074B1A680A2A06D0322A02D144
:1023E000FFF728FF03E00A221A60FFF7FDFE08BD91
:1023F000040000200800002008B5024801F0BCFBE2
:1024000008BDC046A401002070B5764D8CB0281CD4
:10241000754906F035FA0024FA218900201C03F0E2
:102420001BFF0A2103F06EFF30312971201C64214B
:1024300003F012FF0A2103F065FF30316971201C9F
:102440000A2103F009FF0A2103F05CFF3031A97172
:10245000201C0A2103F056FF644E3031E971301C14
:10246000291C01F051FD311C002803D0604B0134C0
:102470009C42D1D103A82A1C132301F0EFFC5D4C30
:10248000069B04980599E360231C6060A1601033EB
:1024900007AA43CA43C31278201C1A700B9B2362FD
:1024A00001F0A7FB002811D1534C5449201C02F025
:1024B0001FFE291C201C02F02DFE0320FFF72AFE20
:1024C0004F4B032201201A60404288E04D49201CF6
:1024D00002F00EFE4C49201C02F00AFE4B49201C63
:1024E00002F006FE4A4B0A221968201C02F061FE27
:1024F000484D201C291C02F0FBFD4749201C02F01E
:10250000F7FD464B0A221968201C02F052FE291CD6
:10251000201C02F0EDFD4249201C02F0E9FD414E75
:10252000306806F029F80B1C0521021C0091201CC4
:1025300002F006FF291C201C02F0DAFD3A49201C9B
:1025400002F0D6FD394B0725186806F015F80095FE
:10255000021C0B1C201C02F0F3FE3549201C02F06B
:10256000C7FD344B186806F007F80095021C0B1CD9
:10257000201C02F0E5FE3049201C02F0B9FD2F4B73
:10258000186805F0F9FF0095021C0B1C201C02F0D6
:10259000D7FE2B49201C02F0ABFD2A4B186805F032
:1025A000EBFF0095021C0B1C201C02F0C9FE264903
:1025B000201C02F09DFD306805F0DEFF0095021C36
:1025C0000B1C201C02F0C3FE2049201C02F090FDD1
:1025D000201C01F001FB201C01F079FA00200CB056
:1025E00070BDC0468C01002075890000FC030020EE
:1025F00010270000A40100200006002035890000FB
:102600008801002082890000D1890000F189000042
:1026100004000020FD890000038A0000080000205B
:102620005489000014000020108A00007801002066
:10263000258A0000800100202F8A00007C010020F4
:10264000388A000084010020428A00005A89000074
:1026500010B5264C0121206803F0CAFB2068012137
:1026600003F020FC2068002103F0C2FB204B012175
:10267000186803F0BDFB1F4B0121186803F0B8FB7D
:102680001D4B0121186803F0B3FB1C4B0121186896
:1026900003F0AEFB1A4B0121186803F0A9FB194B9C
:1026A0000121186803F0A4FB174CE1214902201C0A
:1026B00001F03AFDFFF780FE0C2003F0D3FA134837
:1026C000042101F041FB00280DD11149201C02F02A
:1026D00021FD0220FFF71EFD0E4B02221A600E4B59
:1026E00001221A6001E0FFF78FFE10BD20000020DC
:1026F00018000020240000201C0000202C000020D6
:10270000100000202800002000060020FC0300200C
:102710004C8A0000880100206C01002038B51B4C59
:102720001B4B0A221968201C02F043FD194D201C86
:10273000291C02F0DDFC184B0A221968201C02F04B
:1027400038FD291C201C02F0D3FC144B0A22196806
:10275000201C02F02EFD291C201C02F0C9FC104B8D
:102760000A221968201C02F006FD291C201C02F018
:10277000BFFC0C4B0A221968201C02F01EFD201C15
:1027800001F02AFA201C01F0A2F938BDA4010020B2
:10279000700100205F8A000074010020A001002069
:1027A0009C01002088010020F0B5264B8BB01B68EF
:1027B000012B2CD1FFF764FD234B244C1D68012D08
:1027C00020D101A82249234A132301F047FB2248C4
:1027D000039B0299049E8360031C4160C660103312
:1027E00005AAC2CAC2C312781A70099F076201F013
:1027F00000FA002802D0FFF791FF03E0174B0422F4
:102800001A6025602368012B01D1FFF759FD144C94
:10281000206803F077FB002812D1642003F0AAF8A7
:10282000206803F06FFB00280AD10E490E4802F021
:1028300071FCFFF7E9FD206803F064FB0028FAD083
:102840000BB0F0BD0C000020000000206C01002047
:10285000FC0300208C010020A4010020880100203E
:1028600020000020618A000000060020437A002B2F
:1028700004D18372C372C36001234372704730B5C1
:1028800085B0041C02AD00680291039202F056FE6E
:102890006B79E179227A00932068002302F0F0FE40
:1028A00029792068029A02F019FE206802F03CFEA5
:1028B00005B030BD70B5041C1826FFF7D7FF20798E
:1028C000331C43430D4D0821EB18595603F032FBDE
:1028D000A079331C43430821EB18595603F02AFB17
:1028E000607908214643AD19695603F023FB044B78
:1028F000201C06CBFFF7C3FF70BDC046AC8A0000AA
:10290000C801002007B5837A00910192002B0DD0F9
:102910009A0706D5EFF310835A425341C37272B639
:1029200004E0DA0702D58289034B9A600099019A84
:10293000FFF7A5FF07BDC04600180040837A002BB3
:102940000BD09A0704D5C37A002B06D062B604E0F8
:10295000DA0702D58289014BDA607047001800401F
:1029600008B5006802F0F3FD08BD0000094B0A4AF3
:102970000A491A6000225A711A71094B196016210E
:102980001971182199711721597101215A72D97140
:102990001A727047C801002000093D00F8050020A8
:1029A000D001002008B5011C0148FFF7D9FF08BD80
:1029B000D001002008B50248FF21FFF7D1FF08BD74
:1029C000D001002008B50121007903F06BFA054B16
:1029D0001A78002A04D0002203481A70FFF7AEFFCD
:1029E00008BDC046E8010020D001002010B5084B0A
:1029F000041C1A78002A06D101221A70054B0648D9
:102A000006CBFFF77FFF2079002103F04BFA10BDC2
:102A1000E8010020E0010020D001002010B58379FA
:102A2000041C002B0DD023895A1C2281054A934295
:102A300002D8FFF7BFFFF6E7201CFFF7C3FF002314
:102A4000A37110BD0102000000B5062903D91623A9
:102A5000437100201CE00F4B052913D8081C0022ED
:102A600003F0A2FB030507090B0D0B4908E00B4916
:102A700006E00B4904E00B4902E00B4900E00B497A
:102A8000196002E00A4A1A6000221A715A71012084
:102A900000BDC046E0010020001BB70000093D005A
:102AA00080841E0040420F0020A1070090D0030048
:102AB00048E8010038B50C1C02F024FF051CFFF7A4
:102AC00079FFFF2808D002F01DFFABB280B2C01A18
:102AD000A042F4DB002000E0012038BDF8B5041C62
:102AE0000E1C171CFFF79AFF201CFFF77FFF962193
:102AF0004900201CFFF7DEFF40203043FFF752FF64
:102B00001825381CE840C0B2083DFFF74BFF2B1CCE
:102B10000833F6D19520002E03D08720082E00D050
:102B2000FF20FFF73FFF0025FFF744FF43B2E072AD
:102B3000002B04DAFF2D02D00135EDB2F4E7F8BD29
:102B4000F7B5002502710573857285714571041C06
:102B5000019102F0D7FE012187B2207903F048F9F4
:102B60000121207903F09EF9434E301CFFF7A2FEAD
:102B7000424B43491D715D711960301C5A68FFF763
:102B8000C1FE0A25013DFF20EDB2FFF70BFF002D2E
:102B9000F8D1301CFFF7D2FE201CFFF727FF0021E1
:102BA000201C0A1CFFF79AFF061CE072012809D0BE
:102BB00002F0A8FEC01BFA2380B2DB009842EED9D7
:102BC00001233CE0D522201C08215200FFF786FF9C
:102BD0000423184201D026730BE01E1CFFF7EAFE07
:102BE000013EF6B2E072002EF8D10223AA2826D1C7
:102BF0002373267B023E73425E41B60737210022D3
:102C0000201CFFF76BFF321C201C2921FFF766FFF9
:102C1000021CE07209D002F075FEC01BFA2380B2DC
:102C2000DB009842EAD9082309E0237B022B19D163
:102C3000201C3A21FFF752FF002805D006236371BC
:102C4000201CFFF7BFFE15E0FFF7B4FEC0231840BD
:102C5000984201D103232373FFF7ACFEFFF7AAFECE
:102C6000FFF7A8FE201CFFF7ADFE201C0199FFF71F
:102C7000EBFE051C281CFEBDD0010020E001002059
:102C800090D0030038B5041C02F03CFE051CFFF791
:102C900091FEE072FF280AD102F034FEABB280B29E
:102CA000C01A96235B009842F1DD0F2302E0FE2854
:102CB00006D00D23201C6371FFF784FE002000E086
:102CC000012038BDF8B5041C0F1C151C1E1E45D074
:102CD0009A1880239B009A4242DC8379002B05D00E
:102CE0000268914202D10389AB4216D9237B276047
:102CF000032B00D07F023A1C201C1121FFF7EEFEAF
:102D0000071E02D0032363712AE0201CFFF7BAFFDD
:102D1000002825D001232781A3712389AB4205D246
:102D2000FFF748FE238901332381F6E7069D069AC3
:102D3000AB1A9BB2B34204D2FFF73CFE28700135B8
:102D4000F5E72389A27AF3189BB22381002A02D0E7
:102D5000064A934202D9201CFFF760FE012003E0DF
:102D6000201CFFF72FFE0020F8BDC046FF01000029
:102D700007B5802300929B000022FFF7A3FF0EBD42
:102D800070B5051C081C161CFFF70CFE0024305DF6
:102D9000FFF708FE013480239B009C42F7D1FF20FF
:102DA000FFF700FEFF20FFF7FDFDFFF703FE1F23E7
:102DB000E87203400120052B05D01123281C6B71FC
:102DC000FFF700FE002070BD70B50B1C041C161C24
:102DD000002901D1122328E0027B032A00D04B02F4
:102DE000201C18211A1CFFF779FE051E01D00423B0
:102DF0001BE0201CFE21321CFFF7C2FF002815D06B
:102E00009621201C8900FFF755FE002801D11523CB
:102E10000BE0201C0D212A1CFFF760FE002803D1C7
:102E2000FFF7C8FD002806D014236371201CFFF7AC
:102E3000C9FD002003E0201CFFF7C4FD012070BD88
:102E4000034B044A1A6000225A711A717047C04637
:102E5000E001002000093D00021C10B50C32041CEA
:102E60000121406A00F0F6FC00280AD0236A012004
:102E7000002B06D1E368227A236280235B4213434E
:102E8000237210BD70B5041CFFF7E6FF002801D1C6
:102E900000201BE0636AE6681A7C023E96405A698D
:102EA0001D79B618002D08D0701E401900F01EFCC8
:102EB0000028EDD0013DEDB2F4E7636A01201A7CF1
:102EC00080239B009340E269D318E36170BD00004A
:102ED00010B5041C406900F0E5FB002803D0207EFB
:102EE000014B4001C01810BDF8010020F0B50023CF
:102EF00087B0071C0E1C2022F25401330B2BFAD191
:102F00000721002501913C78002C2AD02E2C06D1D7
:102F1000019B0A2B2BD00A21082501911FE002A852
:102F20001449102205F0E1FB002302A9CA5C002A23
:102F300003D00133A242F8D119E0019B9D4216D87B
:102F4000231C213B5D2B12D8221C6B1C613ADBB287
:102F50007519192A01D8203CE4B22C701D1C0137C8
:102F6000D1E730782038431E9841C0B200E00020FD
:102F700007B0F0BD678A000038B5427A041C0D1C0A
:102F8000002A01D000201FE04B1CDB7F102B06D154
:102F90000223437202624B8C5B01C3610CE0202B65
:102FA000F0D103234372496A221C01621C32281C9F
:102FB00000F0EAFB0028E5D00023012065622072C2
:102FC000E36023616361237638BD0000F0B5437A86
:102FD00085B0041C0E1C0392002B01D13A4811E06D
:102FE000037AD807FAD5E26920690399131A99423E
:102FF00001D99BB2039303990291029B002B04D148
:10300000039988B200B205B0F0BD2369617ADF058B
:10301000FF0D5A0A606A022902D1416A51181BE069
:103020000579013D2A40D5B2002F0DD1002D0BD1DD
:10303000002B02D1226AE26006E0221CE1680C3219
:1030400000F072FB0028C9D0636AE1681A7C02397B
:103050005B699140C91849198022029D9200D31BD7
:103060009D4200DD9DB2237A580601D4954218D1C5
:10307000164B1B68994214D0154B3A1C18680096E1
:103080002B1CFFF71FFE0028A8D0761901E0DF1BDC
:10309000F6192169029A4B19551BADB223610295AD
:1030A000ABE7081C002100F0FDFA002896D0094B80
:1030B000321CFF1879193B1C8B42E8D01878013379
:1030C00010700132F8E7C046FFFF0000300000201A
:1030D000F4010020F801002073B5437A041C012B91
:1030E00001D8002016E003696D460735DE05291C6E
:1030F0000122360FFFF76AFF012801D12B7800E08B
:10310000054B1BB20133ECD0236970011F332361DF
:10311000024BC01876BDC046FFFF0000F80100203A
:1031200070B5041C407A0D1C00282AD0E269914237
:1031300001D9002025E0022821D0002D01D1E56031
:103140001DE0626A2169137C681E09334A1ED8405B
:10315000DA40031E934201D3002902D1226AE260C1
:1031600000E0831A1E1C002E09D0221C606AE16850
:103170000C3200F0D9FA013E0028F4D101E02561BB
:10318000012070BD38B5051C407A002833D02B7A59
:103190007F2B2DD9281C0121FFF79AFE041E2AD06F
:1031A0006B7A012B07D82B7F03776B7F4377AB7F3D
:1031B0008377EB7FC3772B6A9AB21B0C23751B0AAC
:1031C00063750D4BA2761B68120AE276002B0BD0BA
:1031D000201C211C183016319847637E227E1B026A
:1031E0001343A3741B0AE3742A7A7F2313402B72C0
:1031F00000F02EFAFFE738BDEC01002010B5041CEA
:10320000FFF7C0FF002802D000236372012010BD29
:1032100073B5427A041C0D1C0020012A4BD1207A80
:103220000223184047D0E3690020994243D8101C7C
:10323000002B40D0201C291C2669FFF771FF0028B5
:1032400025D0606A002D06D1216A00F067FB0028B6
:103250001DD025621DE0E16801AA00F065FA002892
:1032600015D0606A0199431CDB7F102B01D1124BF2
:1032700000E0124B99420CD200F050FB002806D01F
:10328000606AE1680E4A00F0A1FA002801D100202E
:1032900011E0227A80235B421343E5612372201CF4
:1032A000FFF770FF0028F2D0291EB14200D9311C6F
:1032B000201CFFF735FF76BDF8FF0000F8FFFF0F79
:1032C000FFFFFF0F38B5234B151C4A01D318041C10
:1032D000D87A1122104204D04222154201D0002097
:1032E00036E01D4A2176126862615A7D187DD97ECA
:1032F00012020243987E0902120401431143216223
:10330000D87A182202400CD15A7F197F12020A4340
:10331000997FDB7F09040A431B061343E361012302
:1033200009E0102ADBD1221C606A1C3200F02CFA62
:103330000028D4D0042363720F2300212B40237272
:10334000E160216101206A0602D5201CFFF760FFC1
:1033500038BDC046F801002030000020F0B5457AA5
:1033600087B0041C0E1C0193002D00D086E0101CB9
:1033700003A9FFF7BBFD002800D180E0726A2F1C73
:103380006262F56035613369F269934226D2DB05EA
:103390001B0F301C0093FFF79FFE011E6FD00378B8
:1033A000002B01D0E52B0BD1002F04D1009B2376FD
:1033B000344B1B6863610B780127002BE3D10DE0D0
:1033C00003A80B2205F082F90028DCD1019A3023F2
:1033D0001340302B53D0201C00994BE0019A12234C
:1033E0001340122B4BD1002F06D0201C0121FFF7D8
:1033F0006FFD061E0AD142E0737A022B3FD0301CCB
:10340000FFF740FD00283AD01F4E277600212022EA
:10341000301C05F073F9301C03A90B2205F065F987
:103420001A4B1B68002B05D0301C311C10300E319C
:10343000984706E021223274B3732822082372745D
:10344000F373737C327C1B021343FF221A401B0A66
:10345000F3747376F37BB2743276B27B1B02134340
:10346000B3751B0AF37500F0F3F8002807D0217E2E
:10347000019A201CFFF726FF051C00E00025281CF0
:1034800007B0F0BD30000020F8010020EC01002062
:10349000F0B5437A87B0041C0D1C0392012B0DD1AB
:1034A000037A99070AD55A070CD5E16922698A423D
:1034B00008D0201CFFF734FE002803D101236360ED
:1034C0000020AAE0039B01933BE0606A730A07793E
:1034D000F605013F1F40FFB2F60D002F36D08022C7
:1034E0009200921B019992B20B1C914200D9131CBD
:1034F0009BB20293636AE1681A7C023991405A696F
:103500008B18029ADF1980239B009A423FD1444BCB
:103510001968B94202D1012252421A60414B391C4A
:1035200018682A1CFFF750FC0028C7D080229200A0
:10353000AD180199029A8B1A21699BB201938B18DD
:103540002361019A2669002ABFD149E0002EC6D125
:10355000E168002903D1236A002B16D10FE005AAE8
:1035600000F0E2F8002858D0626A059B0132D27F51
:10357000102A01D12C4A00E02C4A934205D3201C8A
:10358000FFF76AFC0028AAD198E7E360A7E7002EBE
:103590000FD12369E1698B420BD300F059F8002861
:1035A0008CD01F4B01211F60214B1A780A431A70DF
:1035B00006E0381C012100F075F8002800D17DE7F5
:1035C0001C4B2A1CF618029BF118331C8B4204D0AA
:1035D0001078013218700133F8E79E1BAD19A8E787
:1035E000E169237A8E4201D9E66106E0124A126847
:1035F000002A06D0039A002A03D0802252421343A5
:103600002372237A190701D4039806E0201CFFF7E0
:10361000B9FD002800D151E7F6E707B0F0BDC0467C
:1036200030000020F4010020F8FF0000F8FFFF0F39
:10363000F8030020F8010020EC01002007B56B46DC
:10364000D9710733191C0122FFF722FF0EBD0000BC
:10365000F8B50F4F01203B78002B18D00D4E0E4BC4
:103660000E4D196830682A1CFFF7AEFB00280ED0FB
:103670000B4C2168002907D030682A1CFFF7A4FBF7
:10368000002804D00023236000233B700120F8BDF4
:10369000F8030020F401002030000020F801002091
:1036A000F001002070B50D4D041C2B680E1C8342E8
:1036B0000ED0FFF7CDFF002801D100200DE0084B10
:1036C000211C1868074AFFF753FB0028F5D02C602F
:1036D000054B01201A7816431E7070BD3000002083
:1036E000F4010020F8010020F803002010B5041CAC
:1036F000FFF7AEFF00280FD00023084A002199549D
:103700008022013392009342F7D1054B01201C60C7
:10371000044B1A7802431A7010BDC046F80100200D
:1037200030000020F8030020C36870B501330C1C82
:10373000151C994201D9002021E0461CF17FC26985
:10374000E309102900D1230A98180D4B1B689842F1
:1037500007D1F27F0B4B102A09D1E4B264001B5B46
:103760000BE00021FFF79EFF0028F2D1E3E77F2264
:103770001440A4001B591B011B092B60012070BDC4
:1037800030000020F801002073B5051C0191161CC3
:103790000024281C019901AAFFF7C6FF002810D0B9
:1037A0002A7C80239B009340E4186B1CDB7F019AEA
:1037B000102B01D1034B00E0034B9A42E9D3346054
:1037C000012076BDF8FF0000F8FFFF0FF7B5051CDC
:1037D0000C1C0192012932D9C3680020013399429F
:1037E0002ED86F1CFA7FEE69CB09102A00D10B0A84
:1037F0009E19144B1B689E4208D1FA7F124B102A67
:103800000BD1E4B2019A64001A530BE0301C002182
:10381000FFF748FF0028F0D112E07F221440019A00
:10382000A4001A51094B01201A7802431A702B7E0A
:10383000834205D9AB68F618054B1E6000E00020F6
:10384000FEBDC04630000020F8010020F803002033
:10385000F0010020F0B5156887B0061C0291171C16
:10386000002D03D000210135019106E0029B05687F
:10387000013B5A425341DBB20193F268002301320B
:1038800003922C1C00930099F268914221D2039B71
:103890009C4201D90224251C301C211C05AAFFF7DB
:1038A00043FF002815D00599631C002901D01D1C79
:1038B00003E002995A1B8A4204D0009A1C1C013270
:1038C0000092E0E7301C211C134AFFF77FFF00281D
:1038D0000BD100201DE0631E301C191C221C00931C
:1038E000FFF774FF0028F4D0009CAC42F3D839688D
:1038F000002906D101993D60002909D001353560C4
:1039000006E0301C2A1CFFF761FF0028F2D1E0E737
:10391000012007B0F0BDC046FFFFFF0F022337B5FF
:10392000051C0C1C0360281C211C01AAFFF7FCFECF
:10393000002812D0281C211C0022FFF747FF002876
:103940000BD06B1CDB7F019C102B01D1044B00E0E2
:10395000044B9C42E7D3012000E000203EBDC0465E
:10396000F8FF0000F8FFFF0FF8B5444B041C151CCE
:10397000196029D0042A01D900207DE00020011C13
:10398000FFF790FE0028F7D02D013D4BA935FF35FC
:103990005D19AA79AB1D5006EED1EA7CA97C120212
:1039A0000A43297D09040A43697D09060A43632AFB
:1039B000E2D9AA7BED7B2D0215439A7ADB7A1204B9
:1039C00015431B061D43D7D0281C0021FFF76AFEB4
:1039D0000028D1D02A4B197BDA7A090211438022C0
:1039E00092009142C8D11A7C002AC5D0D9890029F9
:1039F000C2D0597B0029BFD02276002221712274C7
:103A0000227C01209040814204D0501C2074072A5F
:103A1000F6D9B1E7D98A002900D1596AA160D889BD
:103A20002818E0611F693E02360C6684B7B21E7C1E
:103A300071430E181348790109184912711866620A
:103A40006161187DDE7C0002304300D1186A6D1A76
:103A50002818D040021CE0600B48611C824201D84B
:103A60000C2307E00948824201D8102302E0DB6AF8
:103A700063622023CB770120F8BDC046F40100200B
:103A8000F8010020FF010000F40F0000F4FF000027
:103A900013B502686B46D97107335468191C0122AB
:103AA000A04716BD38B5041C006A0025A84202D103
:103AB000012363600AE0456092B2FFF7E9FC236AE4
:103AC0005B68002B02D001236360281C38BD006AAC
:103AD00008B5002801D0FFF755FB08BD13B56C46AB
:103AE0000734211C0122FFF771FA012801D1207847
:103AF00000E0014800B216BDFFFF0000006A08B5F3
:103B0000002802D0FFF7EAFF01E00120404208BD93
:103B100038B5051C006A00280AD0FFF7DFFF041C37
:103B2000631C05D0286A01690139FFF7F9FA201CE6
:103B300038BD0000F8B5FA239B0083600D4B0025CB
:103B40000833041C4560036028200F1C161C04F079
:103B5000A9FD2062A8420AD0391C282204F0C5FD24
:103B6000201C1030311C0C2204F099FE2577201CFB
:103B7000F8BDC046888A0000FA2292008260044A9A
:103B80000023083243600260036203747047C0463A
:103B9000888A0000036A002B01D0186901E0012027
:103BA00040427047006A002800D0C069704700009A
:103BB00038B5041C006A00280BD0201CFFF7F2FF68
:103BC000051C201CFFF7E6FF024B281A984200D97B
:103BD000181C38BDFF7F000010B5041C006A0028C7
:103BE00006D0FFF70BFB206A04F066FD002323627A
:103BF00010BD006A002803D0407A431E9841C0B22D
:103C00007047000010B50A1C0C498AB0041C002340
:103C1000009169464B720193211C68460123FFF70E
:103C20009DFB041C601E8441E4B2002C02D0684657
:103C3000FFF7E4FA201C0AB010BDC046808A0000DD
:103C400038B50122051C0C1CFFF78EFE021C01205A
:103C5000002A03D1281C211CFFF786FE38BDF0B5D1
:103C60000C68035D2F3B5D426B41E418271C0C3749
:103C7000231CC55C1E1B2F2D09D0002D07D001333E
:103C8000161BF618013E3570BB42F2D10C260024FB
:103C90009455C25C2F3A544262419B180B60C05C41
:103CA000431E9841C0B2F0BDF0B5A1B003902548C5
:103CB0000D1C049205930CAA002316A90D930C90D9
:103CC0005372179316904B7207932C1C009207A9FE
:103CD00008AA0398FFF7C3FF0126021C7240019057
:103CE000D2B2201C08A9059B049FB847002807D121
:103CF000AC4201D1002023E0201CFFF77FFAF9E756
:103D0000019F002F11D0331C0098211C08AAFFF737
:103D100025FB061CAC420FD0201CFFF76FFA002ECB
:103D2000E8D0231C009C0093D1E7AC4202D0201CB9
:103D3000FFF764FA301C03E00028DBD016ACF0E794
:103D400021B0F0BD808A000038B50A1C0121041C96
:103D5000FEF7F6FE002801D100200FE0251C1035EB
:103D6000281C211CFFF76CFF0028F5D0201C3830E0
:103D7000291CFFF701F9431E9841C0B238BD00006D
:103D80004B6843600A4B03600B7A03724B7A4372B1
:103D9000CB68C3600B6903614B6943610B7E03769B
:103DA000CB69C3610B6A496A036241627047C046CE
:103DB000808A0000F0B59DB0051C383108A8029239
:103DC0000393FFF7DDFF244A12AF0023029C7B60C0
:103DD00012927B7208AE201C2F2104F045FD0028B2
:103DE0002ED023782F2B01D10134F4E7001BC0B271
:103DF000031C0C2800D90C23DBB21A1C211C04A8BC
:103E0000019304F04CFD019A002304A9381C8B5443
:103E1000FFF7F4F9381C311C04AA0123FFF79EFABE
:103E2000002804D10C4B68602B60687210E0019B85
:103E3000301CE418FFF7E2F9331C3E1C1F1CCAE7D4
:103E40000299039A641A1460281C311CFFF798FF2A
:103E5000281C1DB0F0BDC046808A0000F0B5A3B09C
:103E6000051C1F1C04A803AB161C0191FFF7A2FF41
:103E7000039BF6183378002B07D104A918A8FFF785
:103E80007FFF281C18A91E4A34E000230EAC636093
:103E900063726B4619331B4A1B780E92002B03D1B9
:103EA000281CFFF769FE27E0023B012B09D8019986
:103EB000201C3831321C3B1CFFF750FA00280BD174
:103EC000EEE7201C04A9321C3B1CFFF747FA002830
:103ED000E6D004A8FFF792F906231F4203D0201C66
:103EE0001599FFF71DF9211C18A8FFF749FF281C99
:103EF00018A9321CFFF71EFE281C23B0F0BDC046D7
:103F0000A88A0000808A000008B5031C081C191C40
:103F10003831024A0023FFF7C7FE08BD053C000008
:103F2000084B02211961191C002230310A70064920
:103F30005A719A719A721A73DA63996341331A70DB
:103F40007047C046FC030020808A000008B5024884
:103F500001F00CFC08BDC0466004002008B5024812
:103F600001F004FC08BDC04624050020F7B5164F3B
:103F70001649381C01F042FA1549164801F03EFA7C
:103F80001549164801F03AFA1549164801F036FA73
:103F90001549164801F032FA154D03260124281C54
:103FA000144901F02BFA391C0096231C01940022BD
:103FB000114801F0B7FB0096291C01941F221E2313
:103FC0000E4801F0AFFBF7BDEC05002000080042F1
:103FD000000C0042F005002000100042F405002013
:103FE00000140042E805002000180042F8050020F7
:103FF000FC050020001C0042600400202405002075
:104000003F20704713B502686B46D9710733546877
:10401000191C0122A04716BD08B50069022100F055
:1040200027FC08BD08B50069032100F037FC08BD76
:1040300038B50D1C041C131C006903212A1C00F058
:1040400029FD002801D10123636038BD10B5054C5E
:1040500023685A1C04D10368DB6898472060031C5E
:10406000181C10BD84000020074A08B51368591CAD
:1040700004D0012149421160181C03E000690221AB
:1040800000F0FAFC08BDC0468400002008B50378A3
:104090000349023303704222024800F0B1FD08BD1B
:1040A00040000020CB0A002010B50178031C4278A4
:1040B0000020A12908D1212A2FD118481849072208
:1040C00000F09EFD012028E0212926D1202A05D1DB
:1040D00013490722114800F027FC04E0222A10D1DE
:1040E0009A780F4BDA710E4B96221968D2009142E2
:1040F00010D1DC7901231C400CD1FA2001F036F9F3
:104100000AE0232A09D1DA789B7812021A43054B78
:104110001A6002E001F030F9002010BDCB0A002047
:10412000340000203C00002070470000064BFA21BC
:1041300089009960054900220831196004495A60D4
:1041400019611A767047C04600060020D08E000024
:10415000CB0A002070B5C2B219495301CB189E6832
:10416000184DC0242E40A40526439E60164E8001A3
:1041700009683018083258605201505C0726B04375
:104180000126304350549E6935402C439C610F4CAE
:104190005C61505C7024A0431024204350549C6800
:1041A0000B488A1820408024640320439860986854
:1041B0004021800B8003986053790B43537170BD8D
:1041C000D40A0020FFFFFF8FEC0800202807002002
:1041D000FF3F00F038B5041C08CC01211A78051CFB
:1041E0000A431A708022201C0021520004F086FA33
:1041F0002B689A78D107FCD45C6238BD134BF0B5BC
:104200001B6899035A029B01C90ED20E5B0F1F292E
:1042100000D105211F2A00D11D22072B00D1032325
:1042200004688E01278D0A491F25394031432185B5
:1042300001682A400C8DAC4322430A8502681903A9
:10424000108D044B03400B431385F0BD24608000A8
:104250003FF8FFFFFF8FFFFFEFF3108303600123A1
:10426000436072B670470368002B02D162B6BFF399
:104270006F8F704737B50569041C6846002D12D151
:10428000FFF7EAFF019B013B03D3621DD57FEDB22F
:10429000F9E768460193FFF7E6FF0020854217D053
:1042A000206AE36913E0FFF7D7FF019B0025013B7C
:1042B00004D3221C34321578EDB2F8E76846019336
:1042C000FFF7D1FF0020854202D0206BE36AC01ABD
:1042D0003EBD0000436810B51A68037A01215B01F6
:1042E000D318FF339A7A0A439A72037A42685B01C1
:1042F000D318C2689C6891040B4A090922400A43FA
:104300009A60037A42685B01D3189A684021920B45
:1043100092039A6043681A68037A08335B01D318E2
:104320001A790A431A7110BDFF3F00F0F7B505690D
:10433000041C0E1C171C6846002D1FD1FFF78CFFB4
:10434000019B013B5A1C06D0621DD17F5A1E0029D9
:104350003AD0131CF6E768460193FFF784FF002567
:10436000E369BD4235D0226A934232D25A1CE261DF
:10437000A269D3181B7873550135F1E7FFF76CFF7D
:10438000019B013B5A1C08D0221C343215785A1E5E
:10439000EDB2002D18D0131CF4E768460193FFF727
:1043A00062FF0025E36ABD4226D0226B934241D3CF
:1043B00022E0621D0021D17730321678581E8E42DD
:1043C00014D1031C5A1CF4D168460193FFF74BFF2C
:1043D00038E0226A934235D10023E361012323614F
:1043E0006846FFF739FF019B013BEBE71170201C8A
:1043F0000193FFF76FFFF6E7226B934222D1002370
:10440000E36223616846FFF727FF019B013B5A1CCB
:10441000DAD0221C34320021117001321678581E75
:104420008E4201D1031CF2E71170201C0193FFF7AB
:1044300051FFEAE75A1CE262A26AD3181B7873554F
:104440000135AFE7281CFEBD37B54368027A1B680B
:10445000083252019A18041CD0790123FF21184216
:1044600053D0D371A068656962680140002D20D1E6
:1044700049015218916863618904890C2162A16A1B
:1044800068465160621DD377FFF7E6FE019B013B52
:104490005A1C33D0221C34321178581EC9B2013252
:1044A000002903D001930123137023E01170031C32
:1044B000EEE74B01D3189A68A5699204920C226327
:1044C0000022626168465D60FFF7C6FE019B013B0A
:1044D00001E011702B1C591C10D0221C3432012019
:1044E0001070621DD17F5D1EC9B230320029F0D03C
:1044F000019310706846FFF7B6FE06E06846019328
:10450000FFF7B1FE201CFFF7E5FE37BD37B50023EE
:104510006C46E3710734201C0D1CFFF7B7FD2B68B8
:104520001818286001F0AEFD211C01F065FD2B6814
:104530001818286020783EBD03290BD10D4BB222FC
:104540001B685200985C8021494201439954022122
:1045500068220CE001290CD1064B92221B68520004
:10456000985C802149420143995402212822FF325C
:1045700099547047D40A002038B5304B00240121EB
:10458000051C1A201C7001F033FC1A20012101F0D7
:1045900089FC2B4B192001211C7001F029FC1920EA
:1045A000012101F07FFC274B2021DA6901200A4319
:1045B000DA61254B06241A7802431A70234B0F2226
:1045C00019789143197019782143197020490C7892
:1045D0002043087019780A401A701A7860210A433B
:1045E0001A701C4B1C4A5A805A78D209FCD11B48BD
:1045F00001F082F91A4C201CFFF7ECFD201CFFF79C
:10460000FDFD23687F2219780A401A701A78042168
:104610000A431A701A890C218A431A81C121114A4E
:10462000890050580002000A5050802111601A7809
:1046300002210A431A7001232B7038BDE8080020BC
:10464000D00A002000040040584400413C4400418E
:1046500059440041000C0040064000008D5000000D
:10466000D40A002000E100E00078002810D0094BB7
:1046700001211B681A898A431A811A8B08210A436F
:104680001A831A8B04210A431A83034B00221A60EF
:104690007047C046D40A0020D80B00200F4B9A69FF
:1046A000920B92039A611B680222FF331A72987967
:1046B0008022524202439A711A7A9007FCD5084B25
:1046C000081C997A7F221040914301439972997A8C
:1046D000802252420A439A727047C046D40A002090
:1046E0000050004110B50B790C1C002B0BD1081C9D
:1046F000FFF7DAFC002804D1094B9A69920B920368
:104700009A6101200BE001F0BDFC211C01F0A8FC26
:104710000028F6D1024B9A69920B92039A6110BD60
:10472000D40A0020F8B50D1C832A16D1CAB242491A
:104730005301CB189C694148AD012040C024A40519
:10474000204398613E48083245195D610B6852016B
:10475000D15C70208143402065E0022A45D1382099
:1047600001F046F9374B344F802603607600002372
:10477000421D036203614361C36147608560C66097
:10478000D3772F32041CC36203631370301C537041
:1047900003F088FFA061301C03F084FFFF232A1C74
:1047A0001A405201A062BF18B968244A07260A407D
:1047B000C02189050A43BA60A1686268194012687D
:1047C00008314901885CAD00B0430326304388546A
:1047D000A16862680B405B01A169D3185960201C75
:1047E000FFF778FD184BEC5025E0822A1ED1CAB2A3
:1047F00011495301CB189C691048AD012040C024D9
:10480000A405204398610E48083245195D610B6884
:10481000520199180C798020404220430871D15CE4
:104820007020814330200143D15404E0002A02D19A
:10483000081CFFF78FFCF8BDD40A0020FFFFFF8F94
:1048400028070020008F0000AC0A002038B5051CA6
:104850000124064BA200D258002A06D0211C281C95
:104860000134FFF75FFFE4B2F3E738BD88000020B2
:1048700008B5084B8A00D058002803D003689B680D
:10488000984706E0C9B2044B49015918886880046A
:10489000800C08BDAC0A0020D40A002010B50C1C06
:1048A000FFF7E6FF00280CD0064BE1B21B68083189
:1048B000490159184A7980235B4213434B71022303
:1048C000CB7110BDD40A002070B5CAB2134B144886
:1048D000540189015918031959609D68114908321A
:1048E00029408025AD022943996099684026890BAB
:1048F000890399600368510159180D7935430D7189
:104900005101591889794D06FAD551015918C979BB
:10491000CD07FAD50419A068C0B270BDEC0800201C
:10492000D40A0020FF3F00F038B50C4B141C1B6864
:104930000D1CFF335A7940210A435A710021FFF7B9
:10494000C3FFA04200D9201C0023A34204D0044A84
:104950009A5CEA540133F8E738BDC046D40A002017
:10496000EC08002010B5C9B20C48490143189A68F8
:104970009204920C3F2A08D9141C9A68403CA40463
:10498000920BA40C9203224302E09A68920B9203CA
:104990009A6041188868C0B210BDC046D40A002091
:1049A000F0B51C1C2F4B85B01B68061C0D1C029219
:1049B000002B51D02C4F3978C9B2002902D11920CF
:1049C00001F070FA64233B70284BAA00D0580028ED
:1049D00005D0036802995B68221C984740E0301CB0
:1049E000291CFFF745FFA04204D2301C291CFFF709
:1049F0003FFF041C291C301CFFF7B4FF1C4FE9B219
:104A00004A010191396803928B18FF335A7A0121C8
:104A10000A4318495A72AB01C9180298221C03F0C4
:104A200064FE002C1BD0301C291CFFF721FF00283E
:104A300015D1019B3A6808335B01D31819794020DE
:104A4000014319710121D97103995318FF339A7ADF
:104A500001210A439A7202E00120404200E0201C3A
:104A600005B0F0BDD80B0020D00A0020AC0A002011
:104A7000D40A0020EC08002013B56C460734221C31
:104A80000123FFF78DFF012801D1207801E00120EB
:104A9000404216BDF0B51C1C3F4B85B01B680E1C78
:104AA0000292002B6AD08023DB019C4266D83B4DEA
:104AB0002978C9B2002902D11A2001F0F3F9642340
:104AC00000222B700092002C56D0354DF7B22B6887
:104AD00001933B1C0833019A5B01D3189B79DB09D6
:104AE0001AD0304B3049186801F068FB2F4B172162
:104AF000584301F063FB3B1C0833019A5B01D31858
:104B0000DB799A0708D42A4B9A5D002A38D1421ED5
:104B1000002835D0101CEEE7254B00229A55251EA3
:104B20003F2D00D93F25234AB301D318181C029901
:104B30002A1C039303F0D9FD194A7B01D318039A69
:104B4000A9045A619A69890C920B92030A439A61EB
:104B50003B1C019A08335B01D3180222DA715979A0
:104B6000802252420A435A71009B029A5B195219E1
:104B70000093641B0292A6E700980BE0012008E076
:104B800001229A557B01ED18AB69101C9B0B9B030E
:104B9000AB61404205B0F0BDD80B0020E808002012
:104BA000D40A0020B400002040420F007011010020
:104BB000200700202807002070B50E4D1C1C8B011B
:104BC000ED18281C0E1C111C221C03F08EFDF6B2E1
:104BD0000949760189194D618A69084B201C1340E7
:104BE0008B618B69A2049B0B920C9B0313438B611B
:104BF00070BDC04628070020D40A0020FF3F00F007
:104C0000F7B5114B01901B780F1C141C002B19D108
:104C10000E4B1E78002E01D1151C08E00C4D0D48DE
:104C20002E888019361903F060FD2E800AE0002DD1
:104C300008D0BA192B1C01980021FFF7BDFF3618C8
:104C40002D1AF4E7201CFEBDCA0A0020C80A002065
:104C50001E0700201D060020F8B50E1C00AF151E13
:104C6000012D28D9D31DDB08DB006A46D21A9546F0
:104C7000081C03F00DFE01306C4640000323207039
:104C800063700222AA420ED23378002B0BD0511C43
:104C9000C9B20136A354A94204D00023023263549E
:104CA000D2B2EFE72A1C0548211CFFF7A9FF431EDB
:104CB0009841C0B200E00020BD46F8BDCB0A0020FC
:104CC00008B5044B00221A70034B04491A88FFF7F9
:104CD00097FF08BDC80A00201E0700201D060020FF
:104CE000F0B5204A87B001230026009102A9137075
:104CF000051C0296FFF70AFC03AC092701903A1C39
:104D0000201C311C03F0FAFC02236370A023E37122
:104D1000FA232372029B0122DB196380019B6271DB
:104D20002371104A009B27701670BB4205D1281CC6
:104D3000211C1A1CFFF764FF11E00B4B01221A70B3
:104D40000A4B211C3A1C281C1E800296FFF758FFB4
:104D5000281C02A9FFF7DAFB281CFFF7B1FF01208E
:104D600007B0F0BDCA0A0020C80A00201E070020B4
:104D700070B5CE788AB0051C0C1C022E08D1C988EB
:104D80002348FFF7ADFF031C581E8341D8B23DE016
:104D900001F078F9211C01F044F9002803D0C31771
:104DA0001B1AD80F32E0012E04D1E2881949112ACA
:104DB00027D823E0032E29D1A278002A05D116494D
:104DC000E2880B78934219D81BE0022A03D1A2791A
:104DD000281C124904E0012A05D1A2791049281C97
:104DE000FFF73AFF12E0032A10D101F04BF901A9B5
:104DF00001F027F9A279281C01A9F1E7D2B2002A13
:104E000000D10A78281CFFF7FBFE01200AB070BD14
:104E1000CB0A00201E8F00001A8F0000308F000088
:104E2000108F000073B5051C48780C1C0B2878D82F
:104E300001F0BAF9081C7728773E4306474B686FA4
:104E400000206FE0097801AA002903D11170517088
:104E5000281C09E0002313705370334B1B78012B7F
:104E600000D11370281C002102234FE08A78002310
:104E7000012A04D101AA137053702C4BEEE72A4A81
:104E8000137049E08E78012E07D1284B01AA00212A
:104E90001E701170281C331C38E0002E08D1224AE5
:104EA00001231370224A9169890B8903916138E0CB
:104EB000A178281CFFF7F2FB33E0281CFFF758FF0E
:104EC00030E0281C00211B4A1FE00A780020D3068E
:104ED00028D1281CFFF7BAFCA2781549154B0224EB
:104EE0001A600A682A23FF33D05C2043D0544A203A
:104EF000FF30145C01231C4314548A69920B920303
:104F00008A610EE00C4A281C00210123FFF754FEA1
:104F100007E08A78084B1A60054B9A69920B920356
:104F20009A61012076BDC0461C060020C90A0020F7
:104F3000D40A0020D80B0020CC0A0020F8B54B4B37
:104F4000071C1C78002C00D08EE0494D2868838B0C
:104F500019070DD5201CFFF7FDF82B6810201A1C2F
:104F6000FF32917A01439172424A146008229A8377
:104F70002B689A8B50071FD504229A833E4B1A78D0
:104F8000002A0AD01A78013AD2B21A701B78002B84
:104F900003D11A20012100F085FF384B1A78002A2E
:104FA0000AD01A78013AD2B21A701B78002B03D1BA
:104FB0001920012100F076FF2B68FF331A7AD10601
:104FC00026D510221A725A7940210A432C495A7167
:104FD0000A786023381C1A4202D1FFF723FF01E050
:104FE000FFF780FB002806D02B688022FF339979D9
:104FF00052420A4301E0234B20229A712B68FF336F
:105000001A7A500604D540221A72597A0A435A7203
:105010002968FE230E8C00241E40E1B2002E23D00E
:10502000321C012322411A4216D0221C2868083261
:1050300052018218D079184203D1D279DA401A424B
:1050400007D0114BA200D058002809D003681B6874
:1050500098470123A3409E430134092CDDD103E08E
:10506000381CFFF769FAF4E7F8BDC046C80A00200B
:10507000D40A0020D80B0020E8080020D00A002025
:10508000EC080020FF500041AC0A002008B502489F
:10509000FFF754FF08BDC046CB0A0020014A024B6F
:1050A0001A60704700500041D40A0020F7B58A18F2
:1050B000061C0D1C01920C1C019B671B9C4207D017
:1050C000336821781B68301C984701340028F3D1DD
:1050D000381CFEBD38B5051C0C1C081E07D003F09B
:1050E000D7FB2B68021C5B68281C211C984738BD25
:1050F00008B5FFF7EFFF08BD08B503681B689847C0
:1051000008BD000008B50249FFF7E4FF08BDC0462E
:105110003B8F000038B5041CFFF7DCFF051C201C8A
:10512000FFF7F0FF281838BDF0B58DB0161C0BAB9B
:10513000002201900C1C1A70012E00D80A266D4620
:105140002B35201C311C01F07DF8201CCFB2311C06
:1051500001F034F8291C041C092F01D8303700E075
:105160003737FFB22F70013D002CEAD10198FFF7CD
:10517000B1FF0DB0F0BDF8B5041C0D1C161E04D116
:105180000368C9B21B68984712E00A2A0DD10029AA
:105190000ADA2D21FFF7B0FF6942071C321C201CE0
:1051A000FFF7C2FFC01903E000E0D2B2FFF7BCFF77
:1051B000F8BD08B5FFF7DFFF08BD38B5041CFFF7E1
:1051C000DAFF051C201CFFF79DFF281838BD0000E2
:1051D000F7B51C1C08AB1B78071C211C101C151CE8
:1051E000009300F0B1FF002802D1381C504907E0BD
:1051F000281C211C00F0A8FF012804D14D49381CAF
:10520000FFF768FF7CE0281C211C404B3E4A01F060
:10521000AFF8002802D0381C4749F1E7281C211CB0
:105220003B4A3C4B01F090F80028F4D1281C211C8B
:10523000394A3A4B01F088F8002808D02D21381C53
:10524000FFF75AFF802109060190641800E00190E1
:105250000026334A334B00998E420AD0101C191C89
:10526000314A324B01F0BEFE0136021C0B1CF6B275
:10527000F1E7281C211C01F099FB0D1C041C01F016
:105280008BF8061C03F044F90B1C021C291C201C83
:1052900002F0A2FD0A22041C0D1C381C311CFFF771
:1052A00043FF019B0099C618002904D0381C2349EC
:1052B000FFF710FF3618009B002B20D01A4A1B4B1B
:1052C000201C291C02F0F8FA0D1C041C01F064F8E3
:1052D00001900A220199381CFFF726FF3618019821
:1052E00003F016F90B1C021C291C201C02F074FD93
:1052F000009B041C013BDBB20D1C0093DBE7301C60
:10530000FEBDC046C046C046000000E0FFFFEF41C2
:10531000000000E0FFFFEFC10000000000000000FF
:10532000000000000000E03F0000000000002440FA
:105330003E8F0000428F0000468F00004A8F000021
:1053400013B5049CE1B20091FFF742FF16BD37B5DB
:10535000041C0698C1B20091201CFFF739FF051C00
:10536000201CFFF7CFFE28183EBD0000014B18603F
:105370007047C046B0000020024B012252421A6022
:105380007047C046B0000020154A1368581C25D04D
:10539000013B1360002B21D172B6124A124B04322A
:1053A0009A4207D8BFF34F8F104A114BDA60BFF310
:1053B0004F8F11E00F4B197DC807FBD5188B2021AB
:1053C000FF319208520001431983DA610A4A1A80B8
:1053D0001A7DD107FCD5E5E7C046FDE77047C0461A
:1053E000B000002000200000030200000400FA05C5
:1053F00000ED00E00040004102A5FFFF01607047A2
:10540000F7B508AC267804689D1E27686C1EA54178
:10541000ECB2920705683A4327063A432A600268CD
:10542000072529405068B501002C00D05C032943B2
:1054300001430C435460F7BD30B50368C0251C68B8
:10544000AD0312052A402243C024A40209042140CE
:105450001143196003685A6814435C6030BD0368E7
:1054600001211A680A431A6002681168012319426F
:10547000FBD1D1691942F8D17047036802211A683B
:105480000A431A600268D3699907FCD4704703681D
:105490001A7ED10702D41A7E9107FCD570470368A3
:1054A00000225A8370470368187E4007C00F704778
:1054B0000368187EC009704703688022197E524233
:1054C0000A431A7670470368188DC0B270470368A4
:1054D0001A7E01200242FBD01985704770B503681F
:1054E00001268D07ED0F31401C686D070907294320
:1054F0002143196004685100034800F05FFE013841
:10550000C0B2207370BDC046006CDC02036801218C
:105510001A680A431A600268116801231942FBD114
:10552000D1691942F8D17047036802211A680A4309
:105530001A600268D3699907FCD470470368DA6976
:105540009107FCD41A6802218A431A6070470368E5
:105550009A6A520A52021143996203681A7E5107ED
:10556000FCD5986AC0B270470368224A30B59342AE
:1055700011D0214A934211D0204A934211D0204A9F
:10558000934211D01F4A934211D01F4A934230D107
:105590000E2319220DE0092314220AE00A23152202
:1055A00007E00B23162204E00C23172201E00D2351
:1055B0001822DCB2154901209B08A0409B0008601E
:1055C0005B180320C021890004405D58E000FF24DF
:1055D0008440A5432C1CC0258540281C20435850DE
:1055E0008023DB011A430A4B5A805A7852B2002AB0
:1055F000FBDB30BD00080042000C004200100042FE
:105600000014004200180042001C004200E100E0CB
:10561000000C0040F8B5041C151C0E1C1F1CFFF7E5
:10562000A3FF201CFFF71BFFB1001C220A406907E3
:105630002368090C0A431A60226884239375012E9B
:105640001AD10821012D00D110210C4B7943186883
:10565000C00000F0B3FD236807219A890140D204FD
:105660004903D20C0A439A8123680004C20C98892A
:10567000400B400310439881F8BDC046B4000020A1
:10568000F7B5019308AB041C1F780D1C161CFFF71F
:105690003DFF201CFFF768FFBF070C221743C02205
:1056A000920336051640C02292022D0423683E4321
:1056B00001991540354307221D600A408021236867
:1056C00089020A435A60F7BD0120704708B5036894
:1056D000014ADB69984708BD1304000010B5041C9B
:1056E0000069FFF7BCFE201C143000F0FCFC10BD6C
:1056F00008B50069FFF7CBFE08BD08B5143000F00F
:105700000DFD08BD08B5143000F011FD08BD08B549
:10571000143000F0EFFC08BD08B50069FFF7D7FEB4
:10572000012008BDF7B51D1C08AB1B78041C0093B5
:1057300009AB1B78161C019300234360FA239B00DE
:105740008360094B0F1C08330360143000F0ACFC7D
:10575000009A231CC03327619A70019A1E705D70F5
:10576000201CDA70FEBDC046508F000010B5041C2E
:105770000069FFF798FE002807D02069FFF7A3FE15
:10578000011C201C143000F09CFC2069FFF790FEE7
:10579000002805D02069FFF78FFE2069FFF77FFE04
:1057A00010BDF023081C1840303843425841704760
:1057B000F0231B01194080239B0099420CD0C02389
:1057C0009B00994206D080235B000520994204D0BB
:1057D000002002E0072000E0062070470F23194058
:1057E000012905D002394B424B410220C01A00E08A
:1057F00000207047F0B5031C85B00391C033041C32
:10580000182718783B1C43431B4E0821F3185956A0
:10581000151C00F08FFB231CC13318780821474367
:10582000F619715600F086FB01210A1C039B2069C2
:10583000FFF7F0FE291C201CFFF7BAFF291C071CEC
:10584000201CFFF7CBFF291C061C201CFFF7A9FF1B
:10585000391C0090331C20690122FFF7D1FD231C65
:10586000C3331978013B1A782069FFF7E5FD2069F9
:10587000FFF703FE05B0F0BDAC8A0000FEE70000B4
:1058800008B5034B1B68002B00D0984708BDC046E5
:10589000DC0B002038B50F490F4CA14204D100F0B9
:1058A000ABF800F085F80BE00C4D8D42F7D00023EB
:1058B000CA18E818A24204D2006804331060F7E75F
:1058C000FEE79042EBD0064B064A9342E7D2002215
:1058D00004C3F9E70000002050010020A890000058
:1058E00050010020000C002008B500F05EF80028F0
:1058F00001D100F04FF808BD014B18607047C04659
:10590000DC0B0020014B18687047C046E00B0020FC
:10591000F7B5144D144CA968144862680368520125
:10592000D20F2E1C271C8446B0687D6801906D0143
:105930006046ED0F0468AA4203D02A1C231C01997B
:10594000F2E7A342FAD101988142F7D30548D21871
:105950004068FA23411A06489B0048435343000D10
:10596000C018FEBD10E000E000ED00E0E00B0020FC
:105970005555000070B5041E08D0054B1D681E1C4F
:1059800000F012F833685B1BA342F9D370BDC04628
:10599000E00B002008B5034B1A6801321A60FFF7CC
:1059A000F3FC08BDE00B00207047002070477047F3
:1059B00010B500F0D5F802F04FFEFFF7F8FF012018
:1059C000FFF7D8FF084C201CFEF7D6FD201CFEF781
:1059D0004BFEFCF73DFEFCF7E7FE044B002BFAD034
:1059E00000E000BFF7E7C046CB0A0020000000003F
:1059F00008B502F057FE08BD70B5494A1E2153682C
:105A000002208B430343474953608B690824234397
:105A10008B61454C454B9C829C8A20439882101C8C
:105A2000DA689407FCD5424A012414701478E5071B
:105A300004D53F4C647864B2002CF7DB01249460F9
:105A4000547864B2002CFBDB3A4D394C65605478D5
:105A500064B2002CFBDB8225354CED016580547867
:105A600064B2002CFBDB02249C84DC68E606FCD5D7
:105A7000314D2E4CE562DD682C4CEE06FBD5A58C35
:105A80002E4E3543A584DD68284CEE06FBD5A58C4B
:105A900002263543A584DC682506FCD5234CE46842
:105AA0006606F8D5DC68E506FCD5002494605478D9
:105AB00064B2002CFBDB224D1D4C656055781C4CFC
:105AC0006DB2002DFADB1E6A1E4D35401D621D6A47
:105AD0008026B5431D620323A3601B4B636053788C
:105AE0005BB2002BFBDB00230B72184A4B728B72EC
:105AF000CB72174BFF211A60164B174A1B681268AE
:105B00005C01D20E214011439A06520F12020B1C67
:105B10001343124A1385436880221343436070BDC8
:105B200000400041000400400C0600000008004056
:105B3000000C004001050100B805FF7D040A0000CB
:105B400000070300FFFCFFFF03060100006CDC02FE
:105B5000B4000020246080002060800000400042EB
:105B6000314BFA21186810B5890000F027FB2F4B44
:105B70000138984224D82E4A2E4B5060186AC02112
:105B80000002000A090601431962002407219460FB
:105B90001160196A80220902090A12060A431A6270
:105BA000254BFC211A6A0A431A62196AFC229201E7
:105BB0000A431A62196AA022D2020A431A6200E05A
:105BC000FEE7201C0021013400F012F9142CF8D15A
:105BD0001A4C63785BB2002BFADB194B6380194BCC
:105BE0005A7ED209012AFAD0E422D2009A803F22BA
:105BF000DA70597E134AC9090129FAD0C0235B0122
:105C000000201361907000F053F863785BB2002BB2
:105C1000FBDB0D4A094B5A800C4BDA79D209012A79
:105C2000FAD041225A7010BDB4000020FFFFFF00DF
:105C300010E000E000ED00E000040040000C004037
:105C40001E40000000400042214000000048004289
:105C5000914205D002D9891AC84001E0511A884002
:105C6000704700000F4B302118600F4A0F4B0A2875
:105C700004DD9888884398800C210DE0082807DD12
:105C800098888843011C2020014399800A2103E061
:105C9000988801439980082111605A7ED209012A0F
:105CA000FBD07047BC000020B8000020004000423C
:105CB00000B5144A517E131CC9090129F9D00138D5
:105CC000042813D81969104A0A401A615A780F211A
:105CD0008A4300F069FA030509070300012102E085
:105CE000032100E002210A435A700AE01169F023FF
:105CF0001B050B43136153780F218B4302210B4388
:105D0000537000BD00400042FFFFFFF010B5041EBD
:105D1000062C05D0072805D0052804D80E3402E04B
:105D2000082400E00924201C012100F003F90E2CB6
:105D30000CD12A4BDA79D209012AFAD01A78022139
:105D40008A431A70DA79D209012AFBD0244B5A7E91
:105D5000D209012AFAD018225443224A1869141988
:105D6000217C1F2290431140021C0A431A61597E74
:105D70001B4AC9090129FAD0117802200143117088
:105D8000597E174AC9090129FAD0117B0220014323
:105D9000117301211176597E114AC9090129FAD0DE
:105DA000117B0220014311731A7ED107FCD50C4AE6
:105DB000508B80B2597E0A4AC9090129FAD011785C
:105DC0000224A14311705A7ED209012AFBD0064B4E
:105DD0001968064B1A68FFF73BFF10BD00480042E8
:105DE00000400042AC8A0000B8000020BC00002047
:105DF00010B51824021C201C5043274B1818007A99
:105E000040B2013046D0032944D8081C211C00F0C0
:105E1000CBF902331121624398569A18C3011F48E7
:105E200052681B18991840310220087001219140D6
:105E300059602FE06243985618499A185268C30176
:105E40005B18991840310620087001219140596073
:105E500099611FE051435A56104859184B68D201B6
:105E60001118C8184030062404700120984048607A
:105E70000B49521850600DE0624398569A18C301BE
:105E8000064852681B1899184031022008700121F9
:105E90009140996010BDC046AC8A000000440041AA
:105EA0001044004118235843134AF0B5131808242E
:105EB0001C5701341FD08256104ED2015D68012458
:105EC0009019231C8668AB401E420BD10E1C771E16
:105ED000BE41401934404030A50004780426B44344
:105EE0002C430470002903D105495218536002E085
:105EF000024E92199361F0BDAC8A0000004400414B
:105F00001044004118235843084A082113185956D1
:105F1000013109D082560649D20152185B68106AD5
:105F2000D8400123184000E000207047AC8A0000F0
:105F30000044004118224243F8B52D4D0824AA1808
:105F40001457031C621C50D0481C00240C284CD849
:105F500000F02AF9071E1E1E1E1E1E1E1E0A0A0A19
:105F60000A000124644240E0092902D1181C0021E2
:105F700003E00A2904D1181C0221FFF739FF23E0AE
:105F800000240B2931D1181C0121FFF731FF2CE02F
:105F900018225343EA185268EB560120141C04409F
:105FA0005508DB01002C11D0124C1B195D1930353E
:105FB0002E780C010F21314021439A18C9B2297063
:105FC000403213781843107000240EE0094E0F275A
:105FD0009B195D1930352E789A18BE433143C9B2EA
:105FE00029704032137818431070201CF8BDC04649
:105FF000AC8A00000044004170B544680E1C0025C6
:10600000002C09D02368201C5B68311C98470028AD
:1060100004DB2D18E468F3E7281C01E0012040426E
:1060200070BD38B544680D1C002C08D02368201CB6
:106030009B68291C9847002802D1E468F4E7201CDB
:1060400038BD38B544680D1C002C07D02368201CCF
:10605000291CDB689847E4682D18F5E72C7038BDDB
:1060600038B544680D1C002C08D02368201C1B6820
:10607000291C9847002803D1E468F4E7201C00E0BD
:10608000012038BD064B0122196810B511400548A2
:1060900005D1022404700424447041601A6010BDCC
:1060A000EC0B0020E40B002010B50021041CA422FE
:1060B00002F024FB221CA4320023201C1360536036
:1060C00010BDF8B5051CA4352E68041C0F1C701CEF
:1060D000A42100F0B7F8231CA8331B68994201D013
:1060E000A7552960F8BD021C0023A432A830136014
:1060F0000360704738B5021C041CA834A43223681E
:106100001268934207D0C55CA421581C00F09AF88D
:10611000281C216001E00120404238BD031CA4334B
:10612000A8301A680368D01A00D5A4307047031C41
:10613000021CA833A4321B681268934201D0C05CD1
:1061400001E00120404270470B1C011C021C30B5CD
:1061500019430220002900D130BD802109068B425D
:1061600016D00D4904205C180C498C42F4D90C4D12
:106170005C198C42F0D90B4C590049080320A1420C
:10618000EAD9074C0020A142E6D150425041E3E752
:10619000002AE1D0EFE7C0460000F0FFFFFFDF7FFD
:1061A0000000F07FFFFF0F0002B47146490849006C
:1061B000095C49008E4402BC7047C046002934D0B7
:1061C0000123002210B488422CD301242407A142C9
:1061D00004D2814202D209011B01F8E7E400A14286
:1061E00004D2814202D249005B00F8E7884201D321
:1061F000401A1A434C08A04202D3001B5C082243F9
:106200008C08A04202D3001B9C082243CC08A04269
:1062100002D3001BDC082243002803D01B0901D055
:106220000909E3E7101C10BC7047002801D00020CA
:10623000C04307B4024802A14018029003BDC04603
:10624000D90000000029F0D003B5FFF7B9FF0EBC5C
:106250004243891A1847C046002941D010B4041C93
:106260004C40A44601230022002900D549420028C1
:1062700000D5404288422CD301242407A14204D2F5
:10628000814202D209011B01F8E7E400A14204D2D5
:10629000814202D249005B00F8E7884201D3401AEC
:1062A0001A434C08A04202D3001B5C0822438C080E
:1062B000A04202D3001B9C082243CC08A04202D378
:1062C000001BDC082243002803D01B0901D0090968
:1062D000E3E7101C6446002C00D5404210BC704718
:1062E000002806D003DB0020C043400801E08020E6
:1062F000000607B4024802A14018029003BDC04640
:10630000190000000029EBD003B5FFF7A7FF0EBC72
:106310004243891A1847C0467047C0468446101C3D
:1063200062468C46191C634600E0C0461FB501F06A
:1063300045FA002801D40021C8421FBD10B501F064
:1063400075F94042013010BD10B501F037FA002850
:1063500001DB002010BD012010BDC04610B501F0CA
:106360002DFA002801DD002010BD012010BDC0461F
:1063700010B501F0A5F9002801DC002010BD0120B6
:1063800010BDC04610B501F09BF9002801DA0020CD
:1063900010BD012010BDC04638B50E4B0C4A041C80
:1063A0000D1CFFF7EFFF002804D1201C291C02F070
:1063B0003DF838BD074B064A201C291C01F00CFD96
:1063C00002F034F880231B06C018F2E7C046C0462E
:1063D000000000000000E041F8B543024400C50F92
:1063E0004E024800240E2A1C9B09000EC90FB60954
:1063F0008D4256D0221A002A00DC83E000281AD1F0
:10640000002E00D06FE0580704D00F221A40042A53
:1064100000D00433590137D50134FF2C00D17DE081
:106420009B015B0AE0B22A1C5B02C405580AD20732
:1064300020431043F8BDFF2CE5D08021C9040E4352
:106440001B2A00DD27E1311C2020D140821A964012
:10645000721E96410E439B1B5801D4D59B019F0988
:10646000381C02F0DBF8421F974094425ADC141BA0
:106470001F231B1B3A1C9F40611C3B1CCA405F1E14
:10648000BB4113430024BEE7DB08E0B22A1CFF2C0B
:1064900004D1002B79D08021C9030B435B025B0A36
:1064A000C2E7211A002941DD002822D0FF2CAAD002
:1064B0008020C00406431B2900DDEAE0301C2027B1
:1064C000C840791A8E40711E8E4106439B195901AE
:1064D00099D50134FF2C57D0704901221A400B4046
:1064E0005B0813438FE7013A002AB4D0FF2CA7D1F1
:1064F00089E7002E00D186E701390029E6D0FF2C7C
:10650000D9D180E7002A1DD1621CD2B2012A4DDD0B
:106510009F1B7A0125D5F71A0D1CA1E72A1CFF2025
:10652000002381E75D4BA41A3B406CE7002946D16C
:10653000611CC8B201282ADDFF2925D0F3185B08A9
:106540000C1C60E7002C13D0FF2818D08024E40432
:10655000524223431B2A4DDD0123F31A041C0D1C58
:106560007AE7002F00D07BE700220020002395E788
:10657000002B3BD0D243002AEFD0FF28EAD1331CB6
:10658000FF240D1C3FE70022FF2000234CE7002CD6
:106590005AD1002B77D0002E00D134E79B19580137
:1065A00000D430E73D4A012413402CE7002C15D1DC
:1065B000002B2FD1002ED7D0331C0D1C23E7002C2D
:1065C00021D1002B53D0C943002904D0FF284BD040
:1065D0001B294FDD01239B19041C78E7002B22D1D6
:1065E000002ED0D0331C0D1CFF240CE7331C041CE0
:1065F0000D1C08E71C1C2025D440AA1A93405A1EE3
:1066000093412343A9E7FF282ED08024E404494284
:106610002343DDE7002E00D1F5E69A1B500134D567
:10662000F31A0D1CEFE6FF24002E00D1EBE68022CA
:10663000DB08D203134204D0F608164201D1331C02
:106640000D1CDB00FF24DEE6002B0DD0FF24002E06
:1066500000D1D8E68022DB08D2031342F1D0F6083D
:106660001642EED1331CECE7331CFF24CBE6331C7F
:10667000041CC8E61C1C2027CC40791A8B40591EEC
:106680008B412343A7E7331CBDE6131E00D0BAE6B7
:106690006AE701261AE70126DDE6C046FFFFFFFB99
:1066A000F0B55F4656464D464446F0B444024600B7
:1066B00083B00F1C640A360EC50F002E41D0FF2E8A
:1066C00022D080231B0400201C43E4007F3E82462E
:1066D0008046391C4B007F02C90F7F0A1B0E8B4678
:1066E0003BD0FF2B34D0802212041743FF007F3BA6
:1066F00000215A466A40019252460A430F2A63D843
:106700007A48920082589746002C3FD108220223F3
:1067100092469846DDE70195404602282AD1019A23
:1067200001251540FF2300246402DB05600AED0704
:106730001843284303B03CBC90469946A246AB465A
:10674000F0BD002C27D10420012282469046C0E7EC
:10675000391C4A1E91410231CBE70121002FC8D0DC
:10676000381C01F05BFF431F9F4076235B421B1ADE
:106770000021BEE7032800D1AEE001284FD10198E7
:1067800042461040C5B200230024CDE70C2303206D
:106790009A4680469DE7201C01F040FF7626431F65
:1067A0009C4076420023361A9A46984691E7802408
:1067B0000025E403FF23B7E75B463C1C01938846B2
:1067C000AAE73C1C8846A7E7250C24043A0C240CB5
:1067D0003F04F6183F0C211C231C794353436F439D
:1067E0005543FB180A0C9B18B1469F4202D98022E0
:1067F0005202AD1809041A04090C521894011B0C1A
:10680000611E8C41920EED181443AD012C432301FF
:1068100005D5012263080120144081441C434B46E6
:106820007F33002B2DDD600704D00F222240042A85
:1068300000D00434220103D52D4B1C404B4680333D
:10684000FE2B17DD019B01251D400024FF236BE774
:106850008020C003044208D0074206D1041C3C43F8
:106860006402640A5D46FF235EE704436402640A2F
:10687000FF2359E70198A4010125640ADBB2054012
:1068800052E77E235B424A469B1A1B2B05DD019B88
:1068900001251D400024002346E7221CDA404B4618
:1068A0009E339C40231C5C1EA3411343580704D015
:1068B0000F221A40042A00D004335A0105D5019B47
:1068C00001251D40002401232EE701989C0101258C
:1068D000640A0540002327E78027FF03019B3C4310
:1068E000640201251D40640AFF231DE7808F00001C
:1068F000FFFFFFF770B5041E3CD0C60F00D0444226
:10690000201C01F08BFE9E23251C1B1A962B0CDCF1
:10691000083884406402640ADBB2321C6402DB057E
:10692000600AD2071843104370BD992B0ADD052277
:10693000121A211CD1400A1C011C1B318D40691EFA
:106940008D411543052801DD421F9540164C2C4012
:106950006A0704D00F221540042D00D004346101D1
:106960000CD59F23181AFF281AD0A401640AC3B2B9
:10697000321CD3E7002200230024CFE7E408FF2BDA
:1069800004D06402640ADBB2321CC7E7002C04D0D6
:106990008020C00304436402640A321CFF23BDE765
:1069A000321CFF230024B9E7FFFFFFFBF8B55F4669
:1069B000564644464D46F0B40C034D00CE0F610AD6
:1069C000440F2143C400180380465800400D8246FE
:1069D000D80F84464046400A530F0343D0006D0D44
:1069E000371C83465246664500D19DE0AF1A002F02
:1069F00000DC03E1002A38D1184300D0E4E063074B
:106A000009D00F232340042B05D0231DA342A4410A
:106A1000644209191C1C080200D478E0CE4B6A1CA1
:106A20009A4200D105E1CD4BE408194048075205D0
:106A3000490204430B0B520D371C002000211B039D
:106A4000201C1C0B0B0D1B05C54D23435205520882
:106A50001D4015436D006D08FF07291C39433CBCE0
:106A600090469946A246AB46F8BDBB488542C6D083
:106A7000802000040343382F00DDECE01F2F00DDF1
:106A800020E12020C01B1A1C814682405846F84055
:106A90000243944658464A469040421E9041FB406D
:106AA000624602431F1CA21A9442A4416442C91BBD
:106AB000091B141C0B02A2D549024F0A002F00D15A
:106AC000C4E0381C01F0AAFD021C083A1F2A00DDB0
:106AD000B7E02821091A201C9740C840074394407A
:106AE000954200DDA9E0551B691C1F2900DDD8E097
:106AF0001F22551B3B1C221CAB40CA40AC40651EEC
:106B0000AC411343CF401C43391C002577E74807AD
:106B1000E4086A05C908520D371C04438E4B9D4298
:106B200048D009030B0B88E7AA1A9446002A00DC18
:106B300098E05046002853D08748854200D15EE750
:106B40008020000403436246382A00DDFDE01F2A4E
:106B500000DD4BE120226046101A1A1C824082465A
:106B6000914658466246D0404A46024390465846AF
:106B700052469040421E9041424602436046C34006
:106B80001219A242A441644259180919141C08029E
:106B900000D434E7704B01359D4200D124E16F4BA6
:106BA00060081940012323401C1C0443CB071C43ED
:106BB000490824E70B1C234300D1C7E180231B03B2
:106BC0000B431B031B0B38E7013F002F64D15846D2
:106BD000221A9442A4416442C91A091B141C69E791
:106BE0005846184300D10AE70122524294446046B5
:106BF000002800D0C5E058460219C2E7002F72D124
:106C0000681C4005400D012800DCDEE05A46A21A4F
:106C10009442BF41C81A7F42C71B380200D488E0A3
:106C20005A46141BA3459241591A52428F1A66467E
:106C300044E7371C00230024FFE64849AD1A3940D9
:106C4000DDE6271C28388740002449E7201C01F096
:106C5000E5FC203038E75A461A43531E9A41D2B217
:106C6000002720E7002A00D0DDE0681C4205520D15
:106C7000012A00DC8EE0384DA84200D1B3E05D4629
:106C80002A19A242A441644259180919CC07520892
:106C900014434908051CB2E62F48854200D0EAE6B5
:106CA000ADE62B1C1F3B3A1CDA40131C20296DD08B
:106CB0003F22551BAF403C43601E84411C430021D2
:106CC00000259CE6381C20381A1CC240101C202FBE
:106CD0005ED04022D71BBB405A461A43531E9A41EE
:106CE00002430027DFE6002D3CD01B4DAA4500D112
:106CF00094E080252D047F422943382F00DDADE04C
:106D00001F2F00DD2CE12025ED1B081C261CA840B0
:106D1000FE40AC400643651EAC413443F9405D463D
:106D20002C1BA34592415B1A5242991A554666465E
:106D3000C0E6131C3B43141C002B00D0BEE600270A
:106D40000022002500210024E8E65A461A43531E7B
:106D50009A41D2B2002313E7FF070000FFFF7FFF35
:106D6000FFFF0F800D1C254358D0FF43002F51D14A
:106D7000041BA3459241591A5242891A5546664648
:106D800098E69648854200D0DDE638E6002792E78F
:106D90000023A1E7081C2043002D00D0C0E00028FC
:106DA00000D1FBE05846184300D128E658460219A6
:106DB000A242A441644259180919141C0A0200D4C1
:106DC0001DE6874B0125194019E6081C2043002DBC
:106DD00039D100286DD15946194300D1BDE0191CA5
:106DE0005C4666460BE6051C2A1CABE7604620386D
:106DF0001A1CC24060469146202800D1ABE04022D8
:106E0000121A93405A461A43531E9A414B461A434C
:106E10000023B5E6714DAA4500D06EE7191C5C460B
:106E200055466646EBE5002D1ED10D1C254373D05B
:106E3000D543002D6DD15C445C45924159185242B6
:106E400089185546A3E6002849D15946194300D16F
:106E500096E0191C5C466646604DD0E50C43611E09
:106E60008C41E4B200215AE75C4DAA4554D055420A
:106E7000802210040143382D00DD85E01F2D00DD48
:106E800095E02022501B0A1C84468240201CE840CA
:106E90000243904662469440601E84414246144339
:106EA000E9405C445C459241CB18524299185546E2
:106EB0006DE65846184300D1A1E55846271ABC4252
:106EC0009241C81A5242801A02026AD55846041BDF
:106ED000A3459241591A5242891A66468FE558468F
:106EE000184336D04807E40804438020C90800034B
:106EF000014208D0DD08054205D15946CA085C07A1
:106F00001443291C6646630FC9001943E400334D3E
:106F100075E5324A9245AED1191C5C4655466EE580
:106F2000002837D05846184313D080254807E40876
:106F3000C9082D0304432942E5D0D8082842E2D1EC
:106F40005D46EA085C071443011CDCE700230024CB
:106F500073E5224D53E5002354E700270022F1E6B4
:106F60003D1C203D0A1CEA40151C202F31D0402634
:106F7000F71BB9400C43611E8C412C430021CEE627
:106F8000164A0027151CDDE60C43611E8C41E4B255
:106F9000002186E7191C5C46104D30E5191C5C4643
:106FA0002DE5031C3B43D8D0011C3C1C27E52020C9
:106FB000404240190A1CC2409046202D0BD0402070
:106FC000451BA9400C43611E8C4145462C430021C2
:106FD00067E70021CEE70021F4E7C046FF07000085
:106FE000FFFF7FFFF0B5564644465F464D46F0B47E
:106FF0001F1C0B031B0B98464B0087B0041C8146DB
:107000005B0DC80F161C9A460090002B51D06A4B9E
:107010009A4531D08022414652030A43630FD20081
:107020001A43664B90460025E20091469A4400249C
:1070300002953B031B0B9B46FD0F7B00311C5B0D38
:10704000019560D05C4A934254D080215846490350
:107050000143720FC9001143584A8B469B18F10037
:107060000020009A04436A4003920F2C00D9ADE03F
:10707000534EA4003459A746404604436ED1002124
:1070800002250824884689460295D2E7009C02988A
:10709000C34649460194022864D0032800D1ABE2DC
:1070A000012800D038E2019A002402400025A146C0
:1070B00060E0434623434AD04046002800D1C0E167
:1070C00001F0ACFA031E272B00DDB3E128210D1AD5
:1070D000211C083B4246E9409A400D1C1543221CE6
:1070E0009A40A8469146374B00251B1A9A46002421
:1070F00002959EE75A4616430320002EB1D1B346AF
:1071000000210220ADE75A4632431BD05B46002BDC
:1071100000D18AE1584601F081FA272800DD7DE19F
:107120002822171A011C321C08395B46FA408B4092
:10713000171C1F43331C8B40BB46191C214B1B1AC9
:1071400000208EE70027BB460021012089E70020B0
:10715000012504248046814602956AE703250C2414
:10716000029566E7019C0394039D01222A400024B6
:10717000114DA146002000212403260B0C0D2405EF
:10718000114B34432D0523402B435B005B08D20792
:10719000191C4846114307B03CBC90469946A2468C
:1071A000AB46F0BD0022802424039146024DE1E766
:1071B00000240025A146DDE7FF07000001FCFFFFDA
:1071C000C08F00000DFCFFFFFFFF0F805546ED1A3A
:1071D0000495D84500D953E100D14EE1049C002527
:1071E000013C4E4604944746A946584603020C0EFD
:1071F0001C430902250C23041B0C0091381C291C7C
:107200000193FEF7DBFF019983464143381C8A4610
:10721000291CFFF717F8330C090419438A450CD9C8
:107220005B460919013B8C4200D947E18A4500D8E9
:1072300044E102225242934409195346CB1A181CC6
:10724000291C9846FEF7BAFF071C0198291C7843B1
:1072500082464046FEF7F6FF36040B04360C3343F5
:107260009A4509D91B197A1E9C4200D924E19A45F6
:1072700000D821E1023F1B195E4632041743380C47
:10728000BB46009E009F51463F0C32045B1A594694
:10729000BA46120C0F043F0C904651467A434F43B6
:1072A0004146414356467043CF19160CBE19B142B0
:1072B00002D980277F02C019310C12043604120C47
:1072C0004018B618834200D2C4E000D1BEE0191ABB
:1072D0004846861BB145BF417F42CF1BA74200D124
:1072E00013E1291C381CFEF769FF01990290414304
:1072F000381C8946291CFEF7A5FF330C09041943E5
:1073000089450CD9029B0919013B8C4200D9FFE049
:10731000894500D8FCE0029F0919023F02974F46B9
:10732000CF1B381C291C0597FEF748FF071C019846
:10733000291C784381460598FEF784FF360409042A
:10734000360C0E43B14509D936197B1EB44200D91B
:10735000E0E0B14500D8DDE0023F3619029D494624
:10736000761A290439430B0457460A0C1B0C404675
:107370004546584355437B437A43EB18070CDB19CA
:107380009D4202D980256D0252191D0C00041B0478
:10739000000C52191B18964235D300D1FCE0012392
:1073A0001943049E994FF519002D00DCA1E0480710
:1073B00009D00F230B40042B05D00B1D8B428941B4
:1073C00049428B44191C5A46D20107D5904B5C4662
:1073D000049E80271C40FF00A346F5198D4B9D425B
:1073E0007ADD039C0122224000248B4DA146C1E698
:1073F00080242403474627424CD13C432403240BDA
:10740000009A854DB6E63619481EB4425ED9011C75
:107410009642C4D1009E9E42C1D1C2E7031C283BC4
:10742000311C99408B46002188E6301C01F0F6F8AB
:10743000203072E6283B211C994000228846914664
:1074400051E6201C01F0EAF820303BE60021B1456E
:1074500000D33DE7009F5A46B944B945BF417F423A
:107460003F19FB18013A9C421ED2984200D97EE097
:1074700000D1B5E0191A93462AE7894500D8ADE650
:107480004846464642467708D3074608C0071E438B
:107490008146AAE65846204212D1044324032A1CFE
:1074A000240B89465C4D65E6A342E3D1009F4F451E
:1074B000DBD9211A93460BE7171CDDE69B46BCE699
:1074C0003C432403240B009A534D53E6B24259D84F
:1074D00000D18AE0011C62E75F46C9087B07039E72
:1074E0000B437C026D0501229946240B6D0D324041
:1074F00040E64A4B049FDB1B382B10DD039C012226
:10750000224000240025A14634E60121494248E7F3
:10751000029304E71F1C21E7019C039441E71F2B02
:1075200040DC3F48049F0C1C3A1858469140DC4010
:10753000904020430A1C511E8A41011C11435A46A7
:10754000DA40131C480709D00F220A40042A05D04C
:107550000A1D8A42894149425B18111C1A0234D51E
:10756000039C0122224000240125A14602E6009F3F
:1075700002214942B9448B44B9458941494209191C
:10758000CB18A4E6009D881E6900A942AD416D425A
:107590002C19361900913AE7002B00D033E700246C
:1075A000009437E71F4A049C5D46121BD5402A1CF5
:1075B000202B1FD01C4E5F46A3199F403B1C194334
:1075C0004B1E994111430023BCE75A07C9080A43DF
:1075D000039F91465B0201221C0B3A400025C9E53E
:1075E0004E45C4D89346002172E6009F9F42C9D3FE
:1075F000011C0FE70023E2E7802424035F463C439D
:107600002403240B019A8946034DB3E5FF030000D0
:10761000FFFFFFFEFE070000FF07000002FCFFFF68
:107620001E040000E2FBFFFF3E040000F0B55F46D1
:1076300056464D464446F0B40D1C041C8046E80FE7
:10764000814618030F03000B3F0B83B084461B4891
:10765000009749005E00DF0F490D9246760DBB464C
:1076600081420CD01548864210D00120B14215D07D
:1076700003B03CBC90469946A246AB46F0BD009F85
:1076800001202743F4D10D488642EED160460243E3
:107690000120002AECD10120B142E9D1009B6345D1
:1076A000E6D1D045E4D1D94506D00029E0D11C432C
:1076B000201C441EA041DBE70020D9E7FF070000A3
:1076C000F0B55F4656464D464446F0B4CD0FDE0F4A
:1076D000AC461D032D0BB146374E0F034C00AB4695
:1076E0005D0080463F0B640D92466D0DB44232D072
:1076F000314EB54235D0002C0ED138434142414184
:10770000081C002D0BD0002919D1CC452DD0654681
:1077100068420123184318E0002DF6D1281C594671
:107720000A4353425341002806D1002BEDD0634653
:1077300058420123184308E00020002B05D14A4697
:10774000504250414042012318433CBC9046994668
:10775000A246AB46F0BD3E1C0643C9D002204042C3
:10776000F3E75E461643C6D0F8E7AC4207DC0BDA17
:10777000614648424841404201231843E5E76646D6
:10778000704201231843E0E75F450AD80ED000207D
:107790005F45DAD26546684268414042012318439A
:1077A000D3E76246504201231843CEE7D045F8D8CC
:1077B0000020D045EED3C8E7FF070000F0B55646DD
:1077C0004D4644465F46F0B40D1C83B0041C019046
:1077D000E80F814618030F03000B3F0B8446354822
:1077E000009749005E00DF0F490D9246760DB846BE
:1077F000814234D02F48864236D0002918D0002E3E
:107800001FD1341C67463A4353425341002C1FD0CA
:107810000020002B05D142465042504140420123F6
:10782000184303B03CBC90469946A246AB46F0BD17
:107830000098044360426041041C002EE2D00028FE
:10784000E9D1C14515D04F46784201231843E8E7F6
:10785000002BF6D04B46584201231843E1E7009F26
:1078600002202743DDD1C5E7674602201743D8D160
:10787000C3E7B14204DD4A46504201231843D0E732
:10788000B14207DB00986045E4D80AD0009F002091
:107890006745C6D24F46784278414042012318439B
:1078A000BFE7019A5245D5D8019A00205245F1D33D
:1078B000B7E7C046FF070000F0B5564644465F46AE
:1078C0004D46F0B41F1C0B031B0B9A464B0087B0B0
:1078D000041C80465B0DC80F161C02938146002BCA
:1078E00068D0694B0299994232D0802253465203A4
:1078F0001A43D200630F1A439246644AE000891883
:1079000080460291002400253B031B0B9B46780018
:10791000FB0F321C400D039300D175E05A4B984287
:1079200069D08022594652030A43730FD2001A438A
:10793000564B9346C018F200002303994E467140FF
:107940001C430F2C00D9A9E0514EA4003459A7467E
:1079500053461C4300D087E00025AA46A8460824C9
:107960000225D1E74946022D6CD0032D00D117E244
:10797000012D00D058E10D40EDB20024A9460023AE
:10798000A0460020002125030A0D1C052D0B120521
:10799000404B2A43134023435B004C465B08E207FD
:1079A000191C4046114307B03CBC90469946A2467C
:1079B000AB46F0BD5346234350D05346002B00D175
:1079C00084E1504600F02AFE031E272B00DD76E1FD
:1079D00028210D1A211C083B5246E9409A400D1CF3
:1079E0001543221C9A40AA4690462B4B00241B1A92
:1079F0000293002588E75B461E430323002E9CD19B
:107A0000B3460022022398E75B46334321D0584611
:107A1000002800D14EE100F001FE272800DD42E100
:107A200028210F1A021C311C083A5B46F94093408A
:107A30000F1C1F43331C9340BB461A1C164B181ACD
:107A400000237AE701230B4000249946A0460E4B01
:107A500097E70027BB46002201236EE7002104249C
:107A60008A46884601254FE70C2403254CE700256C
:107A70008024A9462403A846034B82E7DA469046B1
:107A800003991D1C6FE7C046FF07000001FCFFFFC4
:107A900000900000FFFF0F800DFCFFFF029F160CFF
:107AA000381804904046070C0004000C1204120C15
:107AB000031C5343041C3D1C7443554398463B1C14
:107AC00073436419A44644460293230C63449D42C5
:107AD00004D9029D802464022D1902951D0C039582
