:100000000080002001430000E9420000E9420000B6
:1000100000000000000000000000000000000000E0
:10002000000000000000000000000000E9420000A5
:100030000000000000000000E942000055430000FD
:10004000E9420000E9420000E9420000E942000004
:100050005D5F0000E9420000E9420000ED4200005F
:10006000E942000075660000E94200000D32000020
:100070001D320000E942000085660000E9420000F0
:10008000E9420000E9420000E9420000E9420000C4
:1000900000000000E9420000E9420000E9420000DF
:1000A000E9420000E9420000E9420000E9420000A4
:1000B0000000000010B5064C2378002B07D1054B3B
:1000C000002B02D0044800E000BF0123237010BDC4
:1000D00064010020000000003CEF0000084B10B558
:1000E000002B03D00749084800E000BF0748036819
:1000F000002B00D110BD064B002BFBD09847F9E731
:1001000000000000680100203CEF000060010020BA
:1001100000000000FC3010B5006B03689B68984736
:1001200010BDFC3010B5006B03681B68984710BD0C
:10013000FC3010B5006B0368DB68984710BDFC30DD
:1001400010B5006B03681B69984710BDFC3010B5F3
:10015000006B03685B69984710BD0000FA239B00A1
:1001600083600A4B00220360030001740849FC33DA
:100170004260996190214900DA611A621A6342541F
:10018000044A9A62044ADA627047C04668DA00009C
:100190002EDB000036DB00005ADB0000FC30816102
:1001A000C2610362704770B5002305005C1CA4B2F5
:1001B000272B10D82B6828009B689847002805D06B
:1001C0002B682800DB6898470024F3E7012004F03F
:1001D000D5F82300EAE770BDF7B5050000240191CA
:1001E000A6B2019B9C4212D0FE2C0FD02F00FC37F0
:1001F000386B03689B6898470028F2D0386B036817
:10020000DB6898472B1998740134E9E7260000232E
:10021000AD193000AB74FEBDF7B506000D0000242B
:100220000192002D24D0FD2C22D83700FC37386BEA
:1002300003689B689847002812D0386B0368DB6816
:100240009847C0B20D28F0D00A2804D1002CECD079
:10025000019B002B0CD0331901349874A4B2E4E74D
:10026000013DADB2002D03D0012004F087F8D8E79E
:1002700000233619B374E0B2FEBD70B5040015005A
:100280000E00FFF790FF2300FC333100186B04F0E1
:1002900049F9290000222000FFF7BEFF70BD70B5AC
:1002A000040015000E00FFF77EFF2300FC33310031
:1002B000186B04F041F9290000222000FFF7ACFF81
:1002C00070BD000070B50500437C04001235032B9F
:1002D0001BD1FA2225495200FFF7E1FF28002449EB
:1002E0000AF0C5F8051E02D1012040423CE0FA2187
:1002F000002249002000FFF78FFFAB7A302B2BD074
:100300002B7B312B1AD103202EE0FA22043B520022
:10031000012B15D91749FFF7C2FF280016490AF02B
:10032000A6F8051EE0D0FA21002249002000FFF7C0
:1003300073FFAB7C552B0FD04E2B0FD1012013E058
:100340000E49FFF7ACFF0E4928000AF090F800288C
:10035000CAD0837A2C2BD6D1002005E00220322B84
:1003600002D0332BF8D1CEE770BDC046A7DB00002A
:10037000B2DB0000D4DB0000E3DB0000BDDB0000EB
:10038000C9DB0000F7B50400250017001E00FC358E
:100390000191FFF708FF0199286B04F09DF83900DF
:1003A000286B0A2204F037F9310000222000FFF701
:1003B00033FFFEBDF8B51C00437C16001A1F050074
:1003C000012A03D8FA22194952000BE0022B06D168
:1003D000F3330A00FF331649FFF7D4FF05E0FA2292
:1003E000144952002800FFF75AFF28001249123022
:1003F0000AF03DF8002801D1307015E0871D380063
:100400000AF009F8631EC4B2834200D9DCB22200AC
:10041000390030000AF018F80022FA21325549005C
:100420002800FFF7F9FE2000F8BDC046BDDB000044
:100430000FDC0000A7DB0000ADDB0000F0B5A5B0CD
:1004400004000E0000920193FFF73CFF012801DC3D
:1004500000202BE2782306AA20212000FFF7AAFF24
:100460000028F5D0637C924D1A1F290006A8012AA6
:1004700000D9B6E00AF068FE061EE9D02900002087
:100480000AF062FE02900028E2D0290000200AF063
:100490005BFE041EDCD0290000200AF055FE03900C
:1004A0000028D5D0290000200AF04EFE29000020A7
:1004B0000AF04AFE2C9B002B0BD0290000200AF0EA
:1004C00043FE0028C4D009F045F808F079FF2C9BC2
:1004D00018602A9B002B0BD0754900200AF034FECF
:1004E0000028B5D009F036F808F06AFF2A9B18609A
:1004F0002B9B002B0BD06E4900200AF025FE002814
:10050000A6D009F027F808F05BFF2B9B186030009D
:1005100009F020F8060020000F0009F01BF8002267
:10052000644B04000D003000390007F075FC06F044
:1005300091F908F045FF6049049006F05FFE08F06D
:10054000EBFE02000B003000390008F003FB002234
:100550005A4B07F061FC060004980F0008F0DCFE1F
:100560000B0002003900300007F02AF908F028FFDC
:10057000029B1B78532B02D180231B06C018009BC3
:100580000022186029004B4B200007F045FC06F0C4
:1005900061F908F015FF4849061C06F02FFE08F027
:1005A000BBFE02000B002000290008F0D3FA002255
:1005B000424B07F031FC0400301C0D0008F0ACFE8B
:1005C0000B0002002900200007F0FAF808F0F8FEFE
:1005D000039B1B78572B02D180231B06C018019B5D
:1005E00062E1032B6CD10AF0AFFD002800D12FE7A8
:1005F000290000200AF0A8FD002800D128E72900E2
:1006000000200AF0A1FD002800D121E708F0A2FF98
:1006100030607160290000200AF096FD041E00D1B0
:1006200016E7290000200AF08FFD051E00D10FE714
:10063000200008F08FFF08F0C3FE009B1860280020
:1006400008F088FF08F0BCFE019B18602C9B002B73
:100650000CD0174900200AF077FD002800D1F7E6FA
:1006600008F078FF08F0ACFE2C9B18602A9B002B4A
:100670000CD00F4900200AF067FD002800D1E7E602
:1006800008F068FF08F09CFE2A9B18602B9B012055
:10069000002B00D10AE1064900200AF055FD002890
:1006A00000D1D5E608F056FF08F08AFE2B9BFBE050
:1006B000E7DE0000000059400000C84200004E4044
:1006C0000AF042FD002800D1C2E6290000200AF00D
:1006D0003BFD002800D1BBE6290000200AF034FDD4
:1006E000002800D1B4E6290000200AF02DFD061EE6
:1006F00000D1ADE6290000200AF026FD0290002876
:1007000000D1A5E6290000200AF01EFD051E00D13B
:100710009EE6674900200AF017FD0390002800D1EB
:1007200096E6300008F016FF060028000F0008F0DB
:1007300011FF00225F4B049005913000390007F053
:100740006BFB06F087F808F03BFE5B49051C06F0E2
:1007500055FD08F0E1FD02000B003000390008F003
:10076000F9F90022554B07F057FB0600281C0F0033
:1007700008F0D2FD0B0002003900300007F020F82D
:1007800008F01EFE029B1B78532B02D180231B0610
:10079000C018009B00221860464B0498059907F08A
:1007A0003BFB06F057F808F00BFE4349051C06F02A
:1007B00025FD08F0B1FD02000B000498059908F032
:1007C000C9F900223D4B07F027FB0600281C0F004B
:1007D00008F0A2FD0B0002003900300006F0F0FF27
:1007E00008F0EEFD039B1B78572B02D180231B06DC
:1007F000C018019B18602A9B002B10D02C490020A8
:100800000AF0A2FC002800D122E608F0A3FE2C4B3F
:100810002C4A07F025FF08F0D3FD2A9B18602B9B7C
:10082000002B0CD0224900200AF08EFC002800D1B9
:100830000EE608F08FFE08F0C3FD2B9B18602C9B82
:100840000120002B32D02000FFF73CFD022800DC05
:10085000FEE5782306AA00212000FFF7ABFD002863
:1008600000D1F5E5124C06A821000AF06DFC002825
:1008700000D1EDE5210000200AF066FC002800D13F
:10088000E6E5210000200AF05FFC002800D1DFE54A
:10089000210000200AF058FC002800D1D8E508F01B
:1008A00059FE08F08DFD2C9B1860012025B0F0BD8D
:1008B000E7DE0000000059400000C84200004E4042
:1008C000CAA1FD3F6F1283C070B515001A00040065
:1008D000FFF7E5FC0023984207D0200029001230E2
:1008E00009F087FD43424341DBB2180070BD0000B0
:1008F000F7B5050004001020FC35296320560121BE
:1009000005F0F0FB10200121205605F03FFC0A20E5
:1009100003F034FD10200021205605F037FC642040
:1009200003F02CFD10200121205605F02FFC0E278E
:10093000286B03689B689847002804D0286B0368DD
:10094000DB689847F4E7FA23594E5B00EA6A310006
:100950002000FFF7B9FF002839D1286B03689B6896
:100960009847002804D0286B0368DB689847F4E7B1
:10097000FA2332005B0031002000FFF7A5FF0028BA
:1009800025D1F530013FFF30BFB203F0F7FC002F57
:10099000CED1FA23EA6A5B0031002000FFF794FF12
:1009A000642003F0EBFCFA23EA6A5B0031002000CC
:1009B000FFF78AFF642003F0E1FCFA23EA6A5B0098
:1009C00031002000FFF780FF642003F0D7FCFA23FA
:1009D000384E5B00EA6A31002000FFF775FF6420A3
:1009E00003F0CCFCFA23EA6A5B0031002000FFF739
:1009F0006BFF0190002858D0FA23EA6A5B002E4969
:100A00002000FFF761FF642003F0B8FC2000FFF72F
:100A1000CAFB2A49286B03F085FD2600FA21012232
:100A2000490020001236FFF7F7FB2549300009F096
:100A30001EFD032300281BD12249300009F017FDB9
:100A40000223002814D12049300009F010FD0123B1
:100A500000280DD11D49300009F009FD04230028AC
:100A600006D11B49300009F002FD002801D0052302
:100A70006374677C012F11D11649286B03F052FD76
:100A8000FA213A0049002000FFF7C6FB1249300066
:100A900009F0EDFC002801D006236374FA23EA6A0A
:100AA0005B000E492000FFF70FFF0198FEBDC04616
:100AB0001BDC00001EDC000023DC00002DDC00003D
:100AC00031DC00003CDC000047DC000052DC0000B0
:100AD00062DC000072DC000079DC000081DC0000D8
:100AE00070B515001A000400FFF7C7FB00239842F9
:100AF00007D020002900123009F07BFC434243411B
:100B0000DBB2180070BD0000F0B50500FA23FC351B
:100B100089B00F0016005B00EA6A2F490400FFF756
:100B2000D3FE002801D1002054E02C490A220E31C6
:100B3000684608F088FD0A2014220021684408F065
:100B4000A0FD092013223900684409F07DFC6846A5
:100B500009F061FC22236A461354D333FF33204A41
:100B600069462000FFF7BCFF0028DCD03100286B6D
:100B700003F0D8FC286B03F0C3FC286B1A21036830
:100B80001B689847637C043B012B09D80022C821CD
:100B90002000FFF741FB0022C8212000FFF73CFBAB
:100BA00025001049002220001235FFF735FB0E49C1
:100BB000280009F05CFC0028B5D0FA210022890049
:100BC0002000FFF729FB0949280009F012FC4342E5
:100BD0005841C0B209B0F0BD55DD000080DA000018
:100BE00004E20000102700005FDD00005ADB000077
:100BF000F0B50700FA23FC3785B00D005B00FA6AF8
:100C000015490600FFF760FE002823D001AC0C2236
:100C10001249200008F017FD6421280005F0BCFEF1
:100C2000303020726421280005F03CFFCDB228004E
:100C30000A2105F0B1FE303060720A21280005F06B
:100C400031FFFA233031A172DB00FA6A2100300053
:100C5000FFF746FF05B0F0BD55DD000065DD000083
:100C6000F7B51E00123008AB0D0001921F7809F095
:100C7000FEFB041E13D0280009F0CDFB0025201830
:100C8000AF4207D0310009F0A6FB0135002806D09D
:100C90000130F5E708F063FC019B18800120FEBDE0
:100CA000F0B505001F00FA2387B0FC3503910292CE
:100CB0005B00EA6A26490400FFF706FE002801D11E
:100CC000002541E0FA23EA6A5B0022492000FFF791
:100CD000FBFD0028F4D00E2602ABF61800231E49B7
:100CE000286B338003F0F8FB0A220399286B03F08A
:100CF0005EFCFA21002289002000FFF78DFA0B2309
:100D000032000093154921332000FFF7A9FF051E8B
:100D100002D10C9B188017E031882000FFF75CFAA5
:100D200020001234FFF73FFA200009F074FB8742DD
:100D300000D387B23A002100029809F085FB002316
:100D4000029AD3550C9B1F80280007B0F0BDC04607
:100D500055DD000066DF000070DF000079DF000075
:100D6000F0B585B002930AAB1F780BAB1B7812303D
:100D70000E000192039309F07AFB051E2BD0300080
:100D800009F049FB2C180025039BAB4202D100253A
:100D90002E0018E03900200009F01DFB0135002865
:100DA00019D0441CF0E7200009F035FB86420ED232
:100DB000A35D9F420BD0222B03D001996A1C4B5597
:100DC000D5B20136F6B2029B9D42ECDB02E0002375
:100DD000019A5355012005B0F0BD0000F0B50500A3
:100DE0001E00FA2385B0FC350F0003925B00EA6A0F
:100DF00018490400FFF768FD002801D1002026E013
:100E0000FA23EA6A5B0014492000FFF75DFD002821
:100E1000F4D01249286B03F05FFB0A223900286BDB
:100E200003F0C5FBFA21002289002000FFF7F4F946
:100E3000012301932B330093039A330008492000C8
:100E4000FFF78EFF05002000FFF7ADF9280005B081
:100E5000F0BDC04655DD000066DF000070DF000019
:100E600079DF0000F0B51500FA2204001E0085B0FD
:100E70000AAB1B78520003930BAB1F78FFF70FFAF6
:100E800029000097039B32002000FFF7E9FE051EB2
:100E900005D0FA21002249002000FFF7BDF9280003
:100EA00005B0F0BD30B50E2500242C2385B06D446F
:100EB000009301942B00054A0549FFF7D3FFA04298
:100EC00000D02C78200005B030BDC0467AE000008C
:100ED00081E000000200FA23F0B5FC3285B05B002F
:100EE000D26A13490500FFF7EFFC002802D1012068
:100EF00040421AE00E2400232C270E4E6C4401932E
:100F0000009723000C4A31002800FFF7ABFF0028B0
:100F100009D1019000972300084A31002800FFF70B
:100F2000A1FF0028E3D00020205605B0F0BDC04648
:100F300055DD0000DBE00000D5E00000E4E000004B
:100F40007FB50E250023427C04000E006D44019302
:100F5000032A0ED12C3300932B001E4A1E49200079
:100F6000FFF780FF002802D0002E08D11AE00020F1
:100F70002DE02C23194A009319492B00EFE72B8809
:100F80000120002B23D12200637CFC32032B04D1EF
:100F9000F233FF33D26A134916E0FA23D26A5B00B8
:100FA000114911E02B880120002B10D02200637C16
:100FB000FC32032B04D1F233FF33D26A0B4903E036
:100FC000FA23D26A0A495B002000FFF77DFC04B0D7
:100FD00070BDC046ECE00000F7E0000003E1000057
:100FE0000EE100001AE1000027E1000034E10000FA
:100FF00041E10000002905D0012907D11423C36273
:101000000A3302E00A23C36214330363704700000B
:10101000F0B504000C3487B00E00070043492000EF
:101020000392029303F058FA0C99200003F05FFA40
:101030003F49200003F050FA002E04D0039A00210B
:10104000300008F01EFB029B3A495A4253415B00B4
:1010500001933B001C3318000493002503F03CFA75
:1010600003F086F90095059003F082F9059B7A6BF1
:10107000C01AFA239B005343984253D22E4B002BA5
:1010800003D000E000BF00284CD0386803689B689C
:1010900098470028E8DD38680368DB689847C4B2E1
:1010A0002100049803F027FA029B002B29D0019B12
:1010B000002B02D0012B16D023E0029B009A9B5CF0
:1010C000A34209D1130001330093009A029B9B5C59
:1010D0005A425A41019214E0029B1B781B1B5A4250
:1010E0005A4100920DE0002E0BD00D2C07D0039B2F
:1010F000012B04DD013B34700393013601E0022330
:1011000001930C9B5B5DA34206D10C9B01355B5D9B
:10111000002BBAD1012006E00C9B1D782C1B6542E8
:101120006541B2E7002007B0F0BDC046B0E1000065
:1011300000E20000C6E1000000000000F8B5012652
:10114000030032000400406C4A4040330F001A7024
:10115000431C25D02500310004F0C4FF0C35002FBE
:101160000BD01049280003F0B7F93100606C05F08E
:101170000DF803F0FDF8206512E003F0F9F8236D97
:10118000C01A094B984203D80133181A03F0F6F835
:101190000649280003F0A0F90021606C04F0F6FF76
:1011A000F8BDC046CAE10000CF070000E6E100003C
:1011B000F8B5040005000E001F001C34002A03D0FF
:1011C0000949200003F088F93100200003F084F978
:1011D000002F03D00549200003F07EF93100286874
:1011E00003F07AF9F8BDC04603E2000000E2000017
:1011F000F0B5060004000C363A498BB0300003F01D
:101200006BF9230040331B780121002B67D02000AD
:10121000FFF794FF03F0ACF8050003F0A9F8F423FE
:10122000FF33401B984208D82F4B002BF5D000E02D
:1012300000BF0028F1D1042151E003F099F8039098
:1012400003F096F8039BC01A284B984242D801231A
:1012500027491A002000FFF7ABFF0023254D1A0095
:10126000009519002000FFF7D3FE1F4F049005954D
:10127000002F08D1049B002BE2D01F4B07AA23CBE1
:1012800023C2002504E000E000BF0028F2D1D2E72D
:10129000012307A91A0069582000FFF789FF059B61
:1012A0002000009300231A001900FFF7B1FE002868
:1012B00007D1002F03D000E000BF0028BBD00321DE
:1012C0000DE004350C2DE3D10C49300003F004F996
:1012D000002104E00A49300003F0FEF8052108006F
:1012E0000BB0F0BD07E20000000000007FA9030082
:1012F00039E20000EFE20000A4E100001FE200007C
:101300003DE20000F8B506004136357804000921B9
:10131000002D0CD101233370FFF76AFF35700700F1
:101320002900002803D02000FFF708FF390008003B
:10133000F8BD0000030037B540331C7805000A23D0
:10134000002C18D1093B1A000C49FFF731FF0C4B58
:1013500022000093210023002800FFF759FE2300FC
:10136000002808D1074B002B04D000E000BF042365
:10137000002800D0032318003EBDC04673E20000E1
:10138000EFE2000000000000F8B5060041363778B3
:1013900005000924002F0ED1436C023401330AD01A
:1013A00001233370FFF7C6FF3770041E03D101001D
:1013B0002800FFF7C3FE2000F8BD00000CC89B1AF0
:1013C000084A9B1053431A1E8A4200D20A0006495B
:1013D000D2180800934203D8101E884200D9080092
:1013E0007047C046ABAAAAAA55555515F7B58C4605
:1013F000040013000192A44508D0002B03D01D0067
:10140000260086CE86C50C340C33F4E76346191AE1
:101410000C20044B89085943890089084843019BE3
:101420001818FEBDABAAAA2AF7B58C460300140013
:1014300001929C4508D0002C03D025001E0086CECA
:1014400086C50C340C33F4E76346191A0C20044BA0
:1014500089085943890089084843019B1818FEBD33
:10146000ABAAAA2AF7B5846807680B6805000E00C6
:10147000381C211C019305F09BFC011C019805F010
:1014800051FC002822D0211C381C05F0CBFF011C88
:10149000019805F05BFC002818D06D68201C291C01
:1014A00005F086FC7668011C301C05F03BFC00282A
:1014B0000CD0211C281C05F0B5FF011C301C012498
:1014C00005F044FC002800D1041CE0B2FEBD7047CA
:1014D00000230022036043608360C360C361036232
:1014E0004362024B026142618361704700003443F2
:1014F00030B585B003930023036043608360C3600D
:10150000C36103624362030001AC01910292103394
:1015100026CC26C305B030BD7FB585690400291CE3
:10152000406905F07FFF291C061C206905F07AFF41
:10153000019028200296039502F0A4FF0600029A6B
:10154000039B0199FFF7D4FF2660291C606905F011
:1015500069FF291C061C206905F02AFC019028203F
:101560000296039502F08EFF0600029A039B0199F2
:10157000FFF7BEFF61696660281C05F019FC291C95
:10158000061C206905F04EFF019028200296039565
:1015900002F078FF0600029A039B0199FFF7A8FF6B
:1015A0006169A660281C05F003FC291C061C206943
:1015B00005F0FEFB019028200296039502F062FFE1
:1015C00005000199029A039BFFF792FFE5607FBD3A
:1015D000F7B54368826804000D00934207D0002BE2
:1015E00002D01A0043CD43C20C33636028E00121CE
:1015F000FFF7E4FE0700061E04D00C20784302F03B
:1016000041FF060063689C46236801936346019A84
:101610009B1AF318002B01D007CD07C33200614697
:101620000198FFF7E3FE0C3005002068002801D088
:1016300002F02CFF0C235F432660F6196560A6605C
:10164000F7BD000030B5040085B00191029203930C
:10165000200001A91030FFF705FF051E2DD0E2691B
:10166000236A9B1A164A9B105343032B05D820006C
:1016700001A91C30FFF7ACFF1FE02368002B02D14B
:101680002000FFF749FF0199029A039B2068FFF7AA
:10169000D9FF002811D10199029A039B6068FFF7D6
:1016A000D1FF002809D10199029A039BA068FFF796
:1016B000C9FF002801D1E468CAE7280005B030BDA1
:1016C000ABAAAAAA1FB501AC01910292238101998C
:1016D000029A039BFFF7B6FF04B010BD10B50400DB
:1016E0000068002801D002F0D1FE200010BD70B5C6
:1016F00005680400002D05D02800FFF7F8FF28003A
:1017000002F0C4FEA568002D05D02800FFF7EFFF0A
:10171000280002F0BBFE6568002D05D02800FFF709
:10172000E6FF280002F0B2FEE568002D05D0280093
:10173000FFF7DDFF280002F0A9FE20001C30FFF7B4
:10174000CDFF200070BD1FB50368426801930023E0
:101750000292826803608360436003920A680260B9
:101760000B6043684A6842604B6083688A688260A5
:101770008B6001A8FFF7B2FF05B000BDF7B5091AED
:101780000C4C89104C430700260000250192002EC6
:1017900008DD019B791958190A2207F054FF013E10
:1017A0000C35F4E7E0430C23C01720405843019B5D
:1017B0001818FEBDABAAAAAAF0B587B004000E00A7
:1017C00001920293934279D09B1A9F1004933C4B51
:1017D00045687B4303938368394A5B1B9B105343E3
:1017E000039A9A4244D86B1A9F100593344B5F4377
:1017F000BA421DD2049B2A00EF1A29003800FFF7D5
:10180000F5FD6268049B944663446360BC1B2C4BEB
:10181000A4105C43002C08DD0C3D0C3F0A2239006B
:10182000280007F010FF013CF4E7320002991BE0AA
:101830006A1A9446019B2A00634402991800049393
:10184000FFF7F2FD039B2900DA1B0C235A43636860
:1018500030009A186260FFF7C9FD6268059B9446E4
:1018600032006344049963600198FFF787FF25E025
:101870000399FFF7A3FD0700051E04D00C20784351
:1018800002F000FE050031002A002068FFF7AEFDDF
:10189000029902000198FFF7C7FD6168020030005D
:1018A000FFF7A4FD06002068002801D002F0EEFD3D
:1018B0000C235F432560ED196660A56007B0F0BD9D
:1018C000ABAAAAAA73B50500006800260C1A6846E0
:1018D00006702800FFF770FF2868001976BD000029
:1018E00082B0F0B58DB01393002312920360436071
:1018F0008360129B0F698E690493149B04000D0092
:10190000381C311C039305F053FA03990590049891
:1019100005F088FD011C059805F018FA00280FD184
:10192000311C381C05F07EFD0399071C049805F056
:101930003FFA011C381C05F0F5F9002800D18CE0B5
:101940006B69301C0493139B0499059305F030FADE
:101950000399071C059805F065FD011C381C05F06E
:10196000F5F9071E0FD1311C049805F05BFD0599B0
:10197000061C039805F01CFA011C301C05F0D2F976
:1019800000286AD000E00027E9692B6A364A5B1A12
:101990009B1053439F420ED20C267E438E1931007A
:1019A00012A8FFF75FFD002803D031002000FFF7E9
:1019B0000FFE0137E8E7296800294ED0149B129AE0
:1019C000009306A8139BFFF78BFF079B069A61689D
:1019D0002000FFF777FF149B129A00936968139B0E
:1019E00009A8FFF77DFF09A906A8FFF7ACFE09A823
:1019F000FFF774FE079B069A61682000FFF762FFFD
:101A0000149B129A0093A968139B09A8FFF768FF1B
:101A100009A906A8FFF797FE09A8FFF75FFE079B35
:101A2000069A61682000FFF74DFF149B129A0093FD
:101A3000E968139B09A8FFF753FF09A906A8FFF758
:101A400082FE09A8FFF74AFE079B069A61682000FC
:101A5000FFF738FF06A8FFF741FE20000DB0F0BCED
:101A600008BC02B01847C046ABAAAAAA10B5040029
:101A700088B005930A9B06920793079B059A0393E8
:101A80000093069BFFF72CFF200008B010BD13B594
:101A90006B460268D9710733546819000122A047C8
:101AA00016BD10B50400006A002803D101230020F0
:101AB000636008E0002392B2436000F0C5FF236A30
:101AC0005B68002BF2D110BD006A10B5002801D070
:101AD00000F016FE10BD13B56B46DC1D012221007F
:101AE00000F03AFD012801D1207801E001204042B8
:101AF00016BD006A10B5002802D0FFF7ECFF01E028
:101B00000120404210BD70B50500006A031E0BD0D5
:101B1000FFF7E1FF04000300421C05D0286A0369B7
:101B2000591E00F0BBFD2300180070BDF8B5FA2364
:101B300000259B0083600D4B040008334560036063
:101B400028200F00160007F05BFD2062A8420AD093
:101B50002822390007F077FD20000C2231001030D8
:101B600008F072FC25772000F8BDC046A0E3000015
:101B7000FA22002392008260034A43600832026026
:101B8000036203747047C046A0E30000036A002BA1
:101B900001D0186901E0012040427047036A181E15
:101BA00000D0D8697047000070B50500006A0028B1
:101BB0000BD02800FFF7F2FF04002800FFF7E6FF34
:101BC000024B201A984200D9180070BDFF7F000018
:101BD00010B50400006A002806D000F0CDFD206A90
:101BE00007F018FD0023236210BD036A181E03D0FE
:101BF000587A431E9841C0B2704710B50123002A9D
:101C000004D000F009FF431E9841C3B2180010BD74
:101C100070B5012204000D0001F084F902000120DA
:101C2000002A03D12900200001F07CF970BDF0B535
:101C30000B68C45C2F3C65426C411B191F001E00E1
:101C40000C37C55C9C1B2F2D08D0002D06D001330E
:101C50009C1B013C1555BB42F3D10C2400251555A6
:101C6000C25C2F3A544262419B180B60C05C431E19
:101C70009841C0B2F0BD0000F0B50E009FB00292D6
:101C800003930AAA0023340017000190214814A9E5
:101C90000B930A905372159314904B72059306AAF6
:101CA00005A90198FFF7C3FF012242400090D2B27C
:101CB000039B06A92000029DA847002807D1B44233
:101CC00001D1002024E0200000F056FDF9E7009B40
:101CD000002B11D0012306AA2100380000F0EAFDF4
:101CE0000500B44210D0200000F046FD002DE8D0E1
:101CF00023003C001F00D2E70120B44208D020009E
:101D000000F03AFD012003E00028DAD014ACEFE740
:101D10001FB0F0BDDCE3000070B50A000121040033
:101D200000F0CAF9002801D100200FE0250010358D
:101D300021002800FFF76CFF0028F5D020002900C3
:101D4000383000F0DFFB431E9841C0B270BD000088
:101D50004B6843600A4B03600B7A03724B7A437201
:101D6000CB68C3600B6903614B6943610B7E0376EB
:101D7000CB69C3610B6A03624B6A43627047C0461A
:101D8000DCE30000F0B59DB00700383108A80292EE
:101D90000393FFF7DDFF0023244A12AE029C736019
:101DA0001292737208AD2F21200008F014FB002856
:101DB00031D023782F2B07D133002E001D000134A2
:101DC0002B0035001E00EEE7001BC0B2031C0C28E0
:101DD00000D90C23DBB21A00210004A8019308F0FB
:101DE00033FB0023019904AA3000535400F0C4FCD3
:101DF000012304AA2900300000F05CFD002804D172
:101E00000A4B78603B6078720DE0019B2800E41873
:101E100000F0B2FCD4E7029B2900E41A039B3800CF
:101E20001C60FFF795FF38001DB0F0BDDCE300003B
:101E3000F0B51400A3B004AE0093070003AB30006C
:101E40000191FFF79FFF039BE4182378002B05D136
:101E5000310018A8FFF77CFF1D4A31E000230EADCA
:101E60006B601C4A6B72737A0E92002B03D13800A0
:101E7000FFF77EFE28E0023B012B09D80199009B69
:101E800038312200280000F015FD00280BD1EEE7C4
:101E9000009B22003100280000F00CFD0028E6D055
:101EA000300000F069FC0623009A1A4203D015990D
:101EB000280000F0F3FB290018A8FFF749FF2200D3
:101EC00018A93800FFF732FE380023B0F0BDC04635
:101ED000C0E30000DCE3000010B50C0001000023AB
:101EE0003831024A2000FFF7C7FE10BDFB1B00007F
:101EF0000221084B00221961190030310A7006498D
:101F00005A719A719A721A73DA63996341331A702B
:101F10007047C04680010020DCE3000010B50100DE
:101F2000014801F023F910BD0804002010B5FF217D
:101F3000014801F01BF910BD0804002010B5012173
:101F4000007904F023F9054B1A78002A04D0002206
:101F500003481A7001F0F6F810BDC046EC010020ED
:101F60000804002010B5084B04001A78002A06D196
:101F700001321A70054B064806CB01F0C7F82079EC
:101F8000002104F003F910BDEC010020E401002061
:101F90000804002010B583790400002B0DD023899C
:101FA0005A1C2281054A934202D8FFF7BFFFF6E789
:101FB0002000FFF7C3FF0023A37110BD0102000042
:101FC00000B5062903D91623437100201CE00F4BEE
:101FD000052913D80800002204F0D4FC03050709E2
:101FE0000B0D0B4908E00B4906E00B4904E00B49D7
:101FF00002E00B4900E00B49196002E00A4A1A604E
:10200000002201201A715A7100BDC046E40100206F
:10201000001BB70000093D0080841E0040420F00F5
:1020200020A1070090D0030048E8010070B50C0023
:1020300002F09EF90500FFF779FFFF2808D002F0B3
:1020400097F9ABB280B2C01AA042F4DB002000E0E6
:10205000012070BDF8B505000E001700FFF79AFFCC
:102060002800FFF77FFF962128004900FFF7DEFFD9
:1020700040203043FFF752FF18243800E040083C6E
:10208000C0B2FFF74BFF23000833F6D19520002E96
:1020900003D06A30082E00D17838FFF73FFF0024C4
:1020A000FFF744FF43B2E872002B04DAFF2C02D0A2
:1020B0000134E4B2F4E7F8BDF7B500250271057309
:1020C0008572857145710400019102F051F9012179
:1020D00083B22079009304F005F80121207904F0FF
:1020E00055F8454E300000F0E9FF444B44491D715E
:1020F0005D7119605A68300001F008F80A35013D39
:10210000FF20EDB2FFF70AFF002DF8D1300001F0FB
:1021100019F8FA272000FFF725FFFF000022200012
:102120001100FFF797FF061EE072012E08D002F0A3
:102130001FF9009BC01A80B2B842EFD901233DE0DD
:10214000D522082152002000FFF784FF0423184203
:1021500001D026730BE01E00FFF7E8FE013EF6B249
:10216000E072002EF8D10223AA2827D12373267B00
:10217000FA27023E73425E41FF00B6070022372174
:102180002000FFF767FF320029212000FFF762FFE0
:10219000021EE07208D002F0EBF8009BC01A80B279
:1021A000B842EBD9082309E0237B022B19D13A214D
:1021B0002000FFF74FFF002805D0062363712000A1
:1021C000FFF7BCFE15E0FFF7B1FEC02318409842B0
:1021D00001D1BD3B2373FFF7A9FEFFF7A7FEFFF771
:1021E000A5FE2000FFF7AAFE01992000FFF7E8FEF8
:1021F00005002800FEBDC04608040020E4010020C0
:1022000090D0030070B5040002F0B2F896250600E5
:102210006D00FFF78BFE031EE072FF2B08D102F06A
:10222000A7F8B3B280B2C01AA842F2DD0F2303E0D0
:102230000120FE2B05D00D2320006371FFF77EFEE9
:10224000002070BDF8B515001E009A188023040008
:102250009B009A4241DC8379002B05D003688B42B6
:1022600002D10389AB4216D9237B2160032B00D016
:1022700049020A0020001121FFF7ECFE071E02D0E0
:102280000323637129E02000FFF7BCFF002824D05E
:1022900001232781A3712389AB4205D2FFF746FEB4
:1022A000238901332381F6E7069DAF19BD4204D08F
:1022B000FFF73CFE28700135F8E72389A27AF3186E
:1022C0009BB22381002A03D0064A0120934208D9F9
:1022D0002000FFF75FFE012003E02000FFF72EFE45
:1022E0000020F8BDFF01000013B504000120002B01
:1022F00004D0049800902000FFF7A4FF16BD8023AF
:1023000007B59B0000920022FFF79CFF0EBD70B541
:10231000050008001400FFF701FE80239B00E6186B
:1023200020780134FFF7FAFDB442F9D1FF20FFF71E
:10233000F5FDFF20FFF7F2FDFFF7F8FD1F23E87220
:1023400003400120052B05D0112328006B71FFF7F6
:10235000F5FD002070BD70B51223040016000029A1
:1023600026D0037B032B00D049020A00200018214D
:10237000FFF770FE0423051E1AD13200FE21200053
:10238000FFF7C5FF002814D0962120008900FFF731
:102390004DFE152300280BD02A000D212000FFF749
:1023A00059FE002803D1FFF7C1FD002806D01423F1
:1023B00063712000FFF7C2FD002003E02000FFF75B
:1023C000BDFD012070BD0000034B044A1A600022CD
:1023D0005A711A717047C046E401002000093D009F
:1023E000020010B50C3204000121406A00F012FD19
:1023F00000280AD0236A0120002B06D18022E3683E
:1024000052422362237A1343237210BD70B5040035
:10241000FFF7E6FF002801D100201BE0626AE368B5
:10242000117C023B8B40516915795E18002D08D054
:10243000701E401900F038FC0028EDD0013DEDB2CF
:10244000F4E7636A01201A7C80239B009340E269D1
:10245000D318E36170BD000010B50400406900F0BE
:10246000FFFB002803D0207E014B4001C01810BDA7
:10247000FC0100200A00F0B50B000E00070020212F
:1024800087B00B32197001339A42FBD10723002524
:1024900001933C78002C2AD02E2C07D1019B0A2BCB
:1024A0002BD00A23082501930137F2E710221449A3
:1024B00002A807F0C8F8002302AAD25C002A03D0C1
:1024C00001339442F8D118E0019BAB4215D32300AD
:1024D000213B5D2B11D822006B1C613ADBB27519D0
:1024E000192A01D8203CE4B22C701D00DCE73078BA
:1024F0002038431E9841C0B200E0002007B0F0BD74
:10250000C2E3000070B5427A04000D00002A01D039
:1025100000201FE04B1CDB7F102B06D10E3B4372CB
:102520004B8C02625B01C3610CE0202BF0D10200F6
:102530001D3B4372496A1C320162280000F002FC14
:102540000028E5D00023012065622072E36023614A
:102550006361237670BD0000F0B5437A85B0040056
:102560000F000392002B02D1012040426FE0037A5A
:10257000DB07F9D50269C3699B1A039A9A4201D90C
:102580009BB20393039B0293029B002B39D02269D9
:10259000637AD605F60D606A550A022B01D1406AAE
:1025A0001AE00379013B1D40EDB2002E0DD1002D44
:1025B0000BD1002A02D1236AE36006E02200E16821
:1025C0000C3200F08FFB0028CED0636AE268901EC8
:1025D0001A7C5B699040C01880234019029D9B00C3
:1025E0009B1B9D4200DD9DB24022237A134203D102
:1025F00080239B009D421AD1164B1B68984204D140
:1026000015E06B460C20185E21E00100124800978F
:102610002B0032000068FFF767FE0028A4D0236972
:102620007F195B192361029B5D1BABB2ABE70021F5
:1026300000F016FB002897D03A00084B9E1971193C
:10264000B142ECD03378013613700132F8E705B0AF
:10265000F0BDC04604000020F8010020FC0100206D
:1026600073B5437A0500012B01D8002013E00369FC
:102670000122DC056B46DE1D3100240FFFF76CFFE5
:102680000128F2D133780133EFD02B6960011F3379
:102690002B61014BC01876BDFC01002070B5437A58
:1026A00004000E00002B01D1002028E0C2698A42FC
:1026B000FAD3022B02D0002E03D1E660266101205E
:1026C0001DE0636A2069197C421E0931731ECA40ED
:1026D000CB409A4201D8002803D1226AE2601D0053
:1026E0000AE09B1AFBE72200E1680C32606A00F006
:1026F000F9FA013D0028D7D0002DF4D1DEE770BDF6
:1027000070B5437A0500002B01D1002031E0037A37
:102710007F2B2CD90121FFF79FFE041EF5D06B7A89
:10272000012B07D82B7F03776B7F4377AB7F8377B2
:10273000EB7FC3772B6A9AB21B0C23751B0A637558
:102740000C4BA2761B68120AE276002B0BD02100FC
:102750002000163118309847637E227E1B021343F7
:10276000A3741B0AE3747F232A7A13402B7200F0B0
:102770004BFA70BDF001002010B50400FFF7C0FF58
:10278000002802D000230120637210BD73B504003D
:10279000407A0D0001280ED1237A9B070BD5E369FF
:1027A0008B4208D3002B41D0290020002669FFF777
:1027B00075FF002801D1002038E0002D07D1216AE3
:1027C000606A00F089FB0028F5D025621CE001AAB0
:1027D000E168606A00F086FA0028ECD0606A01992E
:1027E000431CDB7F102B01D0114B00E0114B9942B1
:1027F0000AD200F071FB0028DDD00F4AE168606A60
:1028000000F0C4FA0028D6D08022237A5242134323
:10281000E56123722000FFF773FF0028CBD0291E4B
:10282000B14200D931002000FFF738FF76BDC04625
:10283000F8FFFF0FF8FF0000FFFFFF0F1B4B70B505
:1028400015004A01D31811220400D87A104204D08E
:102850003132154201D0002027E0154A2176126856
:102860006261998A5A8B0904114318222162D87A2D
:10287000024003D1DB69E361012309E0102AEAD1B8
:102880002200606A1C3200F05DFA0028E3D00423C5
:1028900063720F2300212B402372E160216101202C
:1028A0006B0602D52000FFF771FF70BDFC01002010
:1028B00004000020F0B50500447A002087B00E0027
:1028C0001F00844200D088E003A91000FFF7D2FD6A
:1028D000002801D1002080E0736A6B62F4603461EB
:1028E0003369F269934226D20F225B091A40300005
:1028F0000192FFF7B5FE011EECD00378002B0ED03D
:10290000E52B66D00B2203A806F08EFE0028E7D147
:1029100030233B40302BDDD03A00019955E0002CAC
:1029200008D16B461B792B762D4B1B686B610B789E
:10293000002B50D1012412233B40122BCAD1002C72
:1029400006D001212800FFF787FD041E0AD1C1E748
:10295000737A022BBED03000FFF758FD0028B9D0A3
:102960002C76204C20220021200006F08AFE0B222B
:1029700003A9200006F067FE1B4B1B68002B05D047
:10298000210020000E311030984706E02122A37369
:102990000823227407326274E373637C227C1B0277
:1029A0001343FF221A401B0AE3746376E37BA2748D
:1029B0002276A27B1B021343A3751B0AE37500F06A
:1029C00023F9002886D03A00297E2800FFF736FF39
:1029D00003E0002CA5D0012482E707B0F0BDC0467B
:1029E00004000020FC010020F001002010B50021AF
:1029F0000400FFF7CBFE002801D100200BE00121ED
:102A00002000FFF729FD0028F7D0E52303700023FD
:102A1000637200F0F9F810BD10B50A4B8AB00833A4
:102A2000002400936B460A005C7201000223684692
:102A30000194FFF73FFFA04202D06846FFF7D6FFA0
:102A40000AB010BDD4E30000F0B5437A87B00400AB
:102A50000F000392012B0DD1037A9A070AD55B0769
:102A60000CD5E16923698B4208D02000FFF716FEE0
:102A7000002803D1012300206360AAE0039B019397
:102A80003BE0606A530A0679D205013E1E40F6B269
:102A9000D30D0293002E35D08023029A9B009B1AFF
:102AA0006A469588019A9BB29A4200D91D1C626AB7
:102AB000E368117C023B8B405269ADB29B189E19B2
:102AC00080239B009D423FD1434B1A68964202D11E
:102AD000012252421A60414B3A0031001868FFF758
:102AE0003AFC0028C6D080239B00FF18019B5B1B8B
:102AF0009BB2019323695D192561019B2269002B1B
:102B0000BFD149E0002BC7D1E168002904D1236A75
:102B1000002B11D0E360BFE705AA00F0E3F800281E
:102B200057D0636A059A0133DB7F102B01D02C4B01
:102B300000E02C4B9A4205D32000FFF751FC0028FF
:102B4000AAD197E7E260A7E7029B002B0FD1236988
:102B5000E26993420BD300F057F800288AD0012194
:102B60001D4B214A1E6013780B43137006E00121B0
:102B7000300000F075F8002800D17BE73A001B4BCD
:102B800002995B185819984204D0117801321970D3
:102B90000133F8E77F19A9E7E169237A8A4201D96D
:102BA000E26106E0124A1268002A06D0039A002A5F
:102BB00003D08022524213432372237A1B0701D48D
:102BC000039806E02000FFF79BFD002800D151E7A5
:102BD000F6E707B0F0BDC04604000020F801002071
:102BE000F8FFFF0FF8FF0000FC030020FC010020AD
:102BF000F001002007B56B46D97107330122190097
:102C0000FFF722FF0EBD0000F8B5104C012023781D
:102C1000002B1AD00E4F0F4E0F4B3A001968306838
:102C2000FFF799FB002801D100200EE00B4D296829
:102C3000002907D03A003068FFF78DFB0028F3D059
:102C400000232B60002301202370F8BDFC0300202B
:102C5000FC010020F801002004000020F401002005
:102C600070B50D4E040033680D0083420ED0FFF79F
:102C7000CBFF002801D100200DE0084B084A2100BD
:102C80001868FFF73CFB0028F5D034600120054BA5
:102C900019782943197070BD04000020F801002044
:102CA000FC010020FC03002010B50400FFF7ACFF7E
:102CB00000280FD0002380221800074992005854A2
:102CC00001339342FBD10120044B054A1C60137869
:102CD0000343137010BDC046FC0100200400002017
:102CE000FC030020C36870B501330C0016008B4252
:102CF00001D2002021E0451CEA7FC369C809102ADF
:102D000000D1080AC0180D4B1B68984207D1EB7F11
:102D10000B4A102B09D1E4B26400135B0BE00021D5
:102D2000FFF79EFF0028F2D1E3E77F231C40A400B9
:102D300013591B011B090120336070BD04000020E2
:102D4000FC010020F7B58027050016000024019142
:102D5000BF0001AA01992800FFF7C4FF00280FD087
:102D60003A002B7C9A406B1CDB7FA418019A102B35
:102D700001D0044B00E0044B9A42EAD301203460B6
:102D8000FEBDC046F8FFFF0FF8FF0000F7B50600D4
:102D90000C1E0192012C01D8002032E0C3680133DF
:102DA0009942F9D8471CFA7FC569CB09102A00D18E
:102DB0000B0AED18134B1B689D4209D1FB7F124A89
:102DC000102B0CD16B46E4B29B88640013530BE0CC
:102DD00000212800FFF744FF0028EFD1DCE77F2324
:102DE0001C40019BA40013510123084918000A78D4
:102DF0001A430A70327E9A4203D9B2685519044ABE
:102E00001560FEBD04000020FC010020FC03002032
:102E1000F4010020F0B5146887B006000291170095
:102E2000002C02D00134002305E0029B0468013B22
:102E300059425941CBB20193F36825000133039302
:102E400000230093009BF268934221D2039B9D4292
:102E500001D902252C0005AA29003000FFF742FF06
:102E6000002815D0059A6B1C002A01D01C0003E035
:102E700002991A1B914204D0009A1D00013200925F
:102E8000E0E7144A29003000FFF780FF00280BD14B
:102E900000201DE06B1E2A00190030000093FFF790
:102EA00075FF0028F4D0009DAC42F3D339680029A7
:102EB00006D1019B3C60002B09D00134346006E050
:102EC00022003000FFF762FF0028F2D1E0E7012086
:102ED00007B0F0BDFFFFFF0F022337B505000C0060
:102EE000036001AA21002800FFF7FCFE002812D091
:102EF000002221002800FFF749FF00280BD06B1C9F
:102F0000DB7F019C102B01D0044B00E0044B9C4262
:102F1000E7D3012000E000203EBDC046F8FFFF0FD0
:102F2000F8FF0000F8B53F4B0500141E196020D0D3
:102F3000042A01D9002074E000210800FFF790FE68
:102F40000028F7D0631E384A1B01D318BF33FF3364
:102F50001B785B06EED11B34240113199A89598919
:102F600012040A43632AE5D91C89DA88240414432D
:102F7000E0D000212000FFF773FE0028DAD02A4BB2
:102F80001A7BD97A12020A43802189008A42D1D160
:102F9000197C0029CED0DA89002ACBD05A7B002AAE
:102FA000C8D02976002101202A71297401002E7CC5
:102FB000B1408A4204D0711C2974072EF6D9B9E7B2
:102FC000D98A002900D1596AA960D8890019E86115
:102FD0001A691202120C6A8497B21A7C7F0151435B
:102FE000124A0818BF187F126862381868611A7D83
:102FF000D97C12020A4300D11A6A241AA418F44098
:103000000B49EC606A1C8C4201D80C2307E009498B
:103010008C4201D8102302E0DB6A6B62202301207E
:10302000D377F8BDF8010020FC010020FF0100006B
:10303000F40F0000F4FF0000F8B5002706AC267876
:1030400007AC257808AC24784772B94205D1064B05
:10305000064A2221064806F05DFA4671C5710160F4
:10306000027183710472F8BD38E40000E4E30000EB
:1030700049E40000437A002B04D18372C372C36019
:1030800001334372704730B5040085B002AD00686B
:103090000291039201F079FC6B79227AE179009335
:1030A0002068002301F014FD2979029A206801F0BC
:1030B0003DFC206801F05FFC05B030BD70B5182400
:1030C0000500FFF7D7FF2300082128790D4E434361
:1030D000F318595603F0A0F823000821A8794343B8
:1030E000F318595603F098F80821687944433419C5
:1030F000615603F091F8044B280006CBFFF7C3FF9D
:1031000070BDC04620E700000004002007B5837AA8
:1031100000910192002B0DD09A0706D5EFF3108293
:1031200053425341C37272B604E0DB0702D5838970
:10313000034A93600099019AFFF7A5FF07BDC046B7
:1031400000180040837A002B0CD09A0704D5C37A6C
:10315000002B07D062B605E0DB0703D5C368024A3F
:103160009BB2D3607047C0460018004010B500689D
:1031700001F015FC10BD0000094B0A4A0A491A600B
:1031800000225A711A71094B19600C211971013111
:103190005A729971DA710239033259711A72704791
:1031A0000004002000093D00480E00200804002013
:1031B00070B5027A05000C00C368002A01D0986837
:1031C00000E05868002803D0036821001B68984776
:1031D0002A7A054B002A00D1044B002B01D0200095
:1031E0009847012070BDC0460000000000000000AC
:1031F00010B5002801D001F049F910BD10B5040048
:103200000068FFF7F5FF200010BD000010B5024870
:1032100001F0C2FD10BDC0467406002010B5024882
:1032200001F0BAFD10BDC046D406002010B5012142
:103230000348FDF7DFFE0349034801F073F910BDB1
:103240005804002074E400006407002010B5012138
:103250000E2002F047FF0021062002F043FF00216C
:10326000072002F03FFF01210E2002F08FFF062011
:1032700002F0BAFF041E11D101000E2002F086FFF9
:10328000FA20C00001F07AF801210E2002F07EFF42
:10329000FA20C00001F072F82100E5E70B4C0C4B5E
:1032A00020001968FDF724FB002800D1FEE701216A
:1032B0002000FDF745FE074A200013000649FCF7F1
:1032C0006DFF0649064801F02DF910BDB00400203D
:1032D0000C00002002E200007FE4000087E4000010
:1032E0006407002010B510210648FEF715FD0028E0
:1032F00003D1643001F042F8F5E70349034801F0D7
:1033000011F910BD8001002092E400006407002044
:10331000F0B5436889B00568049105920693069B51
:10332000AB4200D184E02C896B682011039304F038
:10333000FFF9414903F062FF0F232E68071C234069
:10334000311C0598079303F0F7FC00280AD0391CBC
:10335000301C04F067F8011C059803F001FD0624F9
:10336000002813D1311C059803F0F0FC002400283C
:103370000CD0391C301C03F01BFD011C059803F018
:10338000DBFC431E98410924404204400399049801
:1033900003F0D2FC00280AD0391C039804F042F84C
:1033A000011C049803F0D2FC0C23002810D10399CF
:1033B000049803F0CBFC00280BD00399381C03F0D1
:1033C000F7FC011C049803F0ADFC002801D0032396
:1033D0001C401A4F079B1A4938001C4001F087F81F
:1033E000301C05F099FF022602000B000096380001
:1033F00001F0CEF91349380001F079F8039805F08F
:103400008BFF00960B000200380001F0C1F90E4955
:10341000380001F06CF821000A224B1E9941380057
:1034200001F0EFF80C35002C00D178E7012000E026
:10343000002009B0F0BDC04617B7D138640700209E
:103440009BE400008CE200004CE0000030B504007A
:1034500095B002A80D00FEF78BFB132322681749D5
:103460000BA8FEF7E5FC0C9B03930D9B04930E9BAE
:1034700001930593002302A95A180BA9C918097CC6
:10348000013311740D2BF6D1139B02A801930A93FB
:10349000FEF7ABFB041E0A480AD00A4901F042F8C5
:1034A000290002A801F034F802A8FEF791FB02E01F
:1034B000054901F037F8200015B030BD800100202B
:1034C00064070020AEE40000C0E4000030B591B015
:1034D000274901A802F057FF07A80123254A2649DA
:1034E000FEF7A6FC07A8FEF780FB002804D101A880
:1034F00002F002FF11B030BD0A2207A904A801F0B2
:10350000E1FB04A802F0F8FE00240A2207A904A89F
:1035100001F0D8FB04A901A802F082FF04A802F080
:10352000EBFE164D1649280000F0E1FF280001A926
:1035300000F0EEFF651C012C09D0022C0DD0002CF0
:1035400012D101A803F08FF80E4B18600AE001A811
:1035500003F078F80C4B188004E001A803F072F82F
:103560000A4B18702C00D0E72C1E042CCDD1BEE7DE
:1035700002E20000C9E4000080010020640700208E
:10358000D4E40000140000201000002008000020F7
:1035900030B591B0244901A802F0F5FE07A8012337
:1035A000224A2349FEF744FC07A8FEF71EFB002829
:1035B00004D101A802F0A0FE11B030BD0A2207A973
:1035C00004A801F07FFB04A802F096FE00240A2262
:1035D00007A904A801F076FB04A901A802F020FFC6
:1035E00004A802F089FE134D1349280000F07FFF64
:1035F000280001A900F08CFF651C012C06D0022CCC
:1036000007D0002C0BD101A90C4804E001A90C48FB
:1036100001E00C4801A902F0E9FE2C00D7E72C1EBE
:10362000042CD4D1C5E7C04602E20000E0E400006B
:103630008001002064070020E8E400004806002024
:10364000640600205806002030B591B0214901A839
:1036500002F099FE07A801231F4A2049FEF7E8FB64
:1036600007A8FEF7C2FA002804D101A802F044FE20
:1036700011B030BD0A2207A904A801F023FB04A859
:1036800002F03AFE00240A2207A904A801F01AFB5E
:1036900004A901A802F0C4FE04A802F02DFE104DFA
:1036A0001049280000F023FF280001A900F030FF96
:1036B000651C002C04D0012C08D101A90A4801E0A6
:1036C0000A4801A902F092FE2C00DCE72C1E042C13
:1036D000D9D1CAE702E20000F4E400008001002032
:1036E00064070020FCE4000044070020500700208D
:1036F000F0B50126D3B00E23544C6B4412AD0093A9
:103700003100FA232A002000FDF7CAFA3100070031
:103710002000FDF76DFA002F04D10136F6B2152E08
:10372000E9D190E00AAF20233A0031002000FDF7F4
:1037300055FB002800D138702B784D2B0BD1444914
:10374000444800F0EFFE444A39002000FDF7DCF960
:10375000642000F013FE2B78432B24D13F493D48D1
:1037600000F0E0FE3E4A39002000FDF7CDF964206C
:1037700000F004FE3B4E3C483100FEF7ADFB31004B
:1037800007A802F000FE290004A802F0FCFD04A92D
:1037900007A8FFF75BFE04A802F0AEFD07A802F041
:1037A000ABFDFFF793FE2B784E2B24D12F492948F0
:1037B00000F0B8FE2E4A39002000FDF7A5F964207C
:1037C00000F0DCFD2B4E28483100FEF785FB310070
:1037D00007A802F0D8FD290004A802F0D4FD04A92E
:1037E00007A8FFF733FE04A802F086FD07A802F041
:1037F00083FDFFF7CDFE2B78532B24D11E491548AE
:1038000000F090FE1D4A39002000FDF77DF964208C
:1038100000F0B4FD1A4C14482100FEF75DFB2100B6
:1038200007A802F0B0FD290004A802F0ACFD04A92D
:1038300007A8FFF70BFE04A802F05EFD07A802F040
:103840005BFDFFF701FF53B0F0BDC046B0040020A0
:1038500008E50000640700200CE5000014E5000006
:103860001FE50000C9E400008001002027E50000FA
:103870002FE50000E0E4000037E5000042E500002D
:10388000F4E40000F0B53C4D9DB03C490400280034
:1038900000F048FE09AB3A4F3A4E029308AB019351
:1038A00007AB009332003B000AA93748FCF7C6FD7E
:1038B000364905900DA802F066FD059B002B4CD003
:1038C000334913A802F05FFD002310A800930A9A61
:1038D0000B9B02F0BEFD10A913A802F038FE2D4983
:1038E00002F042FE05000622316816A802F0C9FD6A
:1038F00016A9280002F02BFE274902F035FE05002C
:103900000622396819A802F0BCFD19A9280002F0A6
:103910001EFE224902F028FE079902F038FE2049D7
:1039200002F022FE099902F032FE1E4902F01CFE4E
:1039300001000DA802F05AFD19A802F0DDFC16A83E
:1039400002F0DAFC10A802F0D7FC13A802F0D4FCB5
:103950000DA9200002F0C2FC07E01349280000F086
:10396000E1FD1249200002F00EFD0DA802F0C4FC9A
:1039700020001DB0F0BDC046640700204AE50000ED
:10398000AC04002018040020B0040020D6E200009F
:1039900062E500006CE5000074E500007CE50000D5
:1039A00084E500008CE500008EE5000098E500004D
:1039B000F0B58DB00490494909A802F0E4FC09A9CA
:1039C000049802F013FE040009A802F095FC631CA1
:1039D00000D080E0FA21424F424D3B682A688900BE
:1039E000981A03F063F8404C02904049200000F020
:1039F0007EFD0A220299200000F003FE3C4E33684F
:103A000003933C4B0398196803F00CFD0021041C40
:103A100003F09CF90596002802D180231B06E418C8
:103A2000354B211C1E68301C03F07CF9002819D18D
:103A3000324B1968324B186803F0F4FC0021041C67
:103A400003F084F9002802D180231B06E418211C0E
:103A5000301C03F067F9002804D12A4B029A1B8816
:103A60009A4238DD234B039A254C1A602268234B77
:103A70001A602B683B6000F07BFC2349286006A895
:103A800002F081FC049909A802F0C0FC09A906A86B
:103A9000FFF7DCFC09A802F02FFC06A802F02CFCC2
:103AA000154B059A1B68194900932368126809A8E9
:103AB000FDF7DCFF164B099A18681A6000220A9974
:103AC000099259600B990A9299600B92FFF790FB4B
:103AD0000998FFF78DFB0DB0F0BDC04698E50000DA
:103AE0005004002054040020640700209EE50000DC
:103AF000180400205406002014000020E0050020D7
:103B0000AC04002010000020B4E500001C040020DC
:103B10004404002030B5164B8DB003AD186805F095
:103B2000FBFB06AC0B220095062300F0C9FB290025
:103B3000200006F068FC2C23E3720E4B186805F099
:103B4000EBFB06230B22009500F0BAFB29002000B6
:103B500006F034FC084D2800FDF7D4FB210007488F
:103B600000F0E0FC2800FDF70FFC0DB030BDC046B2
:103B700018040020AC040020580400206407002032
:103B8000F7B5091A0C4C89104C43050026001700A4
:103B90000192002E08DD290038000A2205F053FDAD
:103BA0000C350C37013EF4E7E0430C23C0172040EE
:103BB0005843019B1818FEBDABAAAAAAF7B5060088
:103BC0000C1E84425ED04B680D682F4A5F1B019328
:103BD000BB108168534302682B48891A89104143FE
:103BE0008B4225D9002B09D0284A934201D9FDF7F1
:103BF0006EFC380000F046FC040000E01C00AC46FF
:103C00000094019A62450CD0009B002B03D01A004F
:103C1000614629C929C2009B0C3300930C239C44A4
:103C2000EFE73068FFF7E4FA3460E419B46026E0A7
:103C30007168891A8810009113494843834204D857
:103C400001992800FFF79CFF19E0009B2800E91864
:103C5000FFF796FF726833682168D31ACB189C4629
:103C600063680093009B9C4509D0002A03D0100094
:103C700064462ACC2AC00C239C44D218F2E733684D
:103C8000DF1977603000FEBDABAAAAAA55555515BD
:103C9000F0B50B2303250024012687B0019400937F
:103CA0000C2202334A4902954A48FFF7C5F90194AC
:103CB00004232A0048490096484801F047F8484C38
:103CC00008230922474901960095200001F03EF89B
:103CD0000021454A0594131D6432181F01601960C4
:103CE00059600C339342F8D1404C2000FDF7F0FBB3
:103CF000200000243E4D3F492A0002F0A3FD3E482B
:103D00002A000460446084603C4902F09BFD3C4F03
:103D10003C48390002F037FB3B4E2A00310039485D
:103D200002F090FD3900394802F02DFB2A003100E5
:103D3000364802F087FD3900354802F024FB2A009E
:103D40003100334802F07EFD3900324802F01BFB9F
:103D50002A0031002F4802F075FD39002E4802F08C
:103D600012FB2A0031002C4802F06CFD0A212B487E
:103D7000FCF7F4F92A4B059A01211A60294A11200F
:103D8000DA60DA615A1DD4770A22DA6214321A63D1
:103D90005A630F32FF329A632E3AFF3ADA631A00FF
:103DA000403211701A004132147002229A641A00D3
:103DB0001C614C3219759B611C629B625C609C604B
:103DC000586411701C6502F08DF907B0F0BDC04653
:103DD000480E0020340700204C0E002074060020FE
:103DE000D4060020440E0020E80500201C0400201A
:103DF00000000020EF16000044040020FD31000008
:103E000002E2000048060020F9620000640600207B
:103E1000580600205007002044070020B00400206E
:103E2000580400206CE400009621184B10B5186867
:103E3000490103689B6998471548FFF73FF99621A8
:103E40001448C90100F058FF0321080002F0E4F90A
:103E50000321042002F0E0F90321062002F0DCF93E
:103E60000321072002F0D8F902210B2002F0D4F937
:103E700002210C2002F0D0F902210D2002F0CCF931
:103E80000549064800F04EFB10BDC0460C0000205E
:103E900034070020D4060020EDE500006407002070
:103EA000F0B504009DB0594906A802F06CFA0A2248
:103EB00005A9200000F0C0FA554C5649200000F03A
:103EC00031FB05A9200000F02DFB09A8012305AA5C
:103ED0005149FDF7ADFF09A8FDF787FE002800D185
:103EE0008FE012A8FDF7F4FA4C48129B16AA036063
:103EF000139B4360149B8360159BC3600393030073
:103F0000103332CA32C31C3019A9FFF757FE12A86A
:103F1000FDF7EDFB09A8FDF747FE002871D00A2246
:103F200009A912A800F0CEFE12A906A802F078FA9C
:103F300012A802F0E1F9364C3949200000F0D7FA16
:103F400006A9200000F0E4FA2C2106A802F039FBB3
:103F50000022030006A9060012A802F04DFB12A8D9
:103F600002F081FB071C12A802F0C6F92D492000BF
:103F700000F0BDFA381C05F0CFF90B000221020059
:103F80000091200000F00DFC2C2106A802F019FB86
:103F9000721C030006A9050012A802F02DFB12A84E
:103FA00002F061FB061C12A802F0A6F91E492000CF
:103FB00000F09DFA301C05F0AFF90B000221020061
:103FC0000091200000F0EDFB089B6A1C06A912A8D6
:103FD00002F012FB12A802F035FB050012A802F055
:103FE0008BF91249200000F082FAA9B20A222000BF
:103FF00000F007FBABB23A1C311C0848FDF762FB2E
:1040000088E706A802F078F91DB0F0BD02E20000D2
:1040100064070020FAE50000800100201C04002055
:1040200005E600000FE6000015E600001BE60000B4
:1040300010B501210D2002F055F801210D2002F0EC
:10404000A5F8FA20800000F099F900210D2002F077
:104050009DF8FA20800000F091F9E1210F4C49020F
:10406000200000F0B3FF200000F0B2FF0028FAD0DB
:104070000B49200000F056FAFFF7D6FEFFF7E6F8EE
:10408000FFF7D4F8FFF72EF9FFF720FAFFF780FAD1
:10409000FFF7DAFA0020FFF703FF10BD64070020E6
:1040A00023E60000F0B5714C93B07149200000F098
:1040B0001EFA704D2800FCF7F5FE0A2201002000D0
:1040C00000F075FA2800FCF705FF05006A4920009A
:1040D00000F00DFA0A222900200000F092FA039461
:1040E000002D05DD6549200000F01CFAFFF700FBFC
:1040F00000F03EF9624B186006A8FFF7C3FB614B66
:104100001B78002B05D0FFF705FD5F4800F036F95E
:10411000F5E70C265D4F5E4B38780FAC70431818EE
:104120005C4B21001B6801935B4B1B680293019B56
:104130000F93029B6360FDF795F9002827D1049740
:10414000050027000596049B51481E78019B390005
:104150003B60029B7B60059B7343C018FDF782F9AF
:1041600000280FD103000722AA424341DBB2002BF3
:1041700008D0964201D00136F0B2049B0135187088
:10418000EDB2E0E7072D02D83000FFF789FE06A95F
:10419000200002F03BF92000FFF70AFC200002F0AB
:1041A000ABF83C4D3C4E2A6831683C48FFF7B0F80C
:1041B00000284ED03A4909A802F0E5F802223168F9
:1041C000200002F05EF9210009A802F08DF920001C
:1041D00002F092F8334909A802F08CF9022229680A
:1041E000200002F04EF9210009A802F07DF920001C
:1041F00002F082F82C4909A802F07CF92B490CA89E
:1042000002F0C1F809A9200002F000F921000CA871
:10421000FFF71CF9200002F06FF80CA802F06CF810
:1042200023490CA802F0AFF82249200002F0ABF8B5
:1042300021000CA8FFF70AF9200002F05DF80CA895
:1042400002F05AF81C49039800F06CF909A802F032
:1042500053F81A4B1878FA239B00584300F08EF855
:1042600006A802F049F813B0F0BDC046640700206C
:1042700035E60000B00400203CE6000046E6000001
:10428000500400207006002080EE3600E405002077
:10429000E8050020AC04002018040020440400209D
:1042A0004EE6000074E5000056E60000B4E50000AC
:1042B00059E6000060E6000063E600000800002008
:1042C00030B5040087B00D00064901A806F054F887
:1042D00022002B0001A90A9806F04EF80A9807B0B0
:1042E00030BDC04675E6000003BEFEE7034B10B5C7
:1042F0001B68002B00D0984710BDC0465C0700200B
:1043000070B50F490F4CA14204D100F007FC00F03A
:1043100099F80BE00C4D00238D42F6D0CA18E8182E
:10432000A24204D2006804331060F7E7FEE790422F
:10433000EBD00022054B06498B42E6D204C3FBE7D3
:10434000000000206401002040EF00006401002014
:10435000780E002010B500F02AF8002801D100F0F6
:104360001BF810BD014B18607047C0465C07002069
:10437000014B18687047C0466007002070B5051EE5
:1043800007D0044C266800F011F823689B1B9D425F
:10439000F9D870BD6007002010B5034A13680133D7
:1043A000136000F01DFA10BD600700207047002068
:1043B0007047F0B58DB00E0000920B1E39D0023A56
:1043C0000023222A35D8009B0A2B04D1002802DAC8
:1043D0004442012301E004000023019303AF3A00AB
:1043E000002C11D02000009902F05CFB20000D0091
:1043F000009902F0D1FA0400092D01D8303500E00F
:1044000057353D700137EAE703ABBB42EAD001996B
:104410003300002902D02D21731C317003A98A4278
:1044200004D9013A117819700133F7E700221A70A4
:10443000330018000DB0F0BD10B5FFF7BAFF10BD86
:104440007047000010B501F0A1FD05F0B3F8FFF7CB
:10445000F7FF0120FFF792FF084C200001F008F859
:10446000200001F07DF8FFF7E3FDFFF71BFE044B92
:10447000002BFAD000E000BFF7E7C0462F0C002069
:104480000000000010B505F0BBF810BD10B505F038
:10449000C1F810BDF7B506000D000C008B18019394
:1044A000019B671B9C4207D0336821781B68300052
:1044B000984701340028F3D13800FEBD70B50500DF
:1044C0000C00081E07D005F0A6FF2B6802005B68F1
:1044D00021002800984770BD10B5FFF7EFFF10BD11
:1044E00010B503688A685B680968984710BD10B505
:1044F000FFF7E4FF10BD10B503681B68984710BDB7
:1045000010B50249FFF7DAFF10BDC04600E2000017
:1045100070B50400FFF7E4FF05002000FFF7F0FF8F
:10452000281870BD70B50500FFF7C8FF040028000B
:10453000FFF7E6FF001970BD10B5FFF7F3FF10BDE0
:10454000F0B5160000228DB002AB053301900D00CE
:10455000DA77012E00D80A260BAC2800310002F0D1
:10456000A1FA0F00CBB228003100009302F014FA38
:10457000FBB237330500013CDBB2092F02D8009BA8
:104580003033DBB22370002DE7D121000198FFF713
:1045900095FF0DB0F0BD10B5002A04D10368C9B273
:1045A0001B68984702E0D2B2FFF7CAFF10BD70B592
:1045B0000500FFF7F0FF04002800FFF7A1FF001936
:1045C00070BDF8B506000C00151E04D10368C9B211
:1045D0001B68984714E0D2B20A2D0DD12A00002999
:1045E0000ADA2D21FFF787FF614207002A00300019
:1045F000FFF7A6FF381803E021003000FFF7A0FF07
:10460000F8BD70B50500FFF7DCFF04002800FFF7D8
:1046100077FF001970BD70B50400FFF7D2FF0500E9
:104620002000FFF76DFF281870BD0000F7B51E00D1
:1046300008AB1B7800900193310033001000170085
:1046400004F0DCFD4949002814D1012274006408FB
:104650005242474B3800210004F0D0FD00280DD114
:104660000122434B52423800210002F02BFB00286C
:1046700004D140490098FFF721FF75E0E0223E4B4E
:1046800012063800310002F027FB002801D03B4918
:10469000F0E7E0223A4B12063800310002F008FB46
:1046A0000028F4D1002200233800310002F000FB82
:1046B000051E07D02D210098FFF71DFF8023050060
:1046C0001B06F618002400202E49019BA34206D0A9
:1046D00000222D4B013403F09FFBE4B2F5E73300D9
:1046E0003A0003F06DF80F00060002F043FB0A22C7
:1046F000010004000098FFF723FF019B45192800E3
:10470000002B31D0200004F0CFFD02000B00300060
:10471000390004F01FFA06000F0000981B49FFF74C
:10472000CDFE2C18019D184B00223000390003F0FB
:1047300097FF0F00060002F01DFB0A220100019006
:104740000098FFF7FDFE2418019804F0ADFD02006B
:104750000B003000390004F0FDF9013DEDB2060018
:104760000F00002DDFD12000FEBDC0467EE6000018
:10477000FFFFEF7F86E60000FFFFEF4182E60000CB
:10478000FFFFEFC10000E03F0000244060E50000B3
:1047900037B51D00069BDBB200932B00FFF746FFE9
:1047A0003EBD37B519000500069B2800DBB200931B
:1047B0000B00FFF73BFF04002800FFF7A1FE0019E4
:1047C0003EBD0000014B18607047C0461800002035
:1047D0000122024B52421A607047C0461800002066
:1047E000124A1368591C1FD0013B1360002B1BD1C8
:1047F00072B601220E48017D0D4B1142FBD02021E3
:104800001A8BFF310A431A830A4ADA610A4A1A806C
:104810000122197D1142FCD0BFF34F8F074A084B8C
:10482000DA60BFF34F8FFEE77047C04618000020E4
:10483000004000410210000002A5FFFF0400FA053D
:1048400000ED00E001607047F0B5150005AA14788E
:1048500002689F1E944616687A1E97416246AD070D
:1048600035433F063D431560072211400A000568A5
:10487000A00102436E680020022B00D058033100D3
:10488000114301436960F0BD30B5C0251205AD0389
:104890002A40C0250468AD02236809041A43294050
:1048A00011432160026853682B43536030BD0121DE
:1048B000026813680B43136003681A68D207FCD4BC
:1048C000DA69D207F9D470470221026813680B43F2
:1048D00013600268D3699B07FCD4704703681A7E93
:1048E000D20702D41A7E9207FCD5704700220368D3
:1048F0005A8370470368187E4007C00F70470368EB
:10490000187EC0097047802102684942137E0B431C
:10491000137670470368188DC0B2704703681A7E1B
:10492000D207FCD589B2012019857047F8B501235B
:104930004D081D406D070B401C072B0007682343E3
:104940003E68510033433B600468034802F024F89A
:104950000138C0B22073F8BD006CDC02012102688E
:1049600013680B43136003681A68D207FCD4DA6932
:10497000D207F9D470470221026813680B43136011
:104980000268D3699B07FCD4704702210268136850
:104990008B4313600268D3699B07FCD4704702689D
:1049A000936A5B0A5B020B43936203681A7E5207A9
:1049B000FCD5986AC0B270470368224A30B593426A
:1049C00011D0214A934211D0204A934211D0204A5B
:1049D000934211D01F4A934211D01F4A93422FD1C4
:1049E0000E2319220DE0092314220AE00A231522BE
:1049F00007E00B23162204E00C23172201E00D230D
:104A000018220121D8B28140144C9B082160032157
:104A10000140FF209B001B19C024C9008840A4004E
:104A20001D598543C0208840010029431951802326
:104A3000DB011A430A4B5A805A7852B2002AFBDB38
:104A400030BDC04600080042000C00420010004289
:104A50000014004200180042001C004200E100E087
:104A6000000C0040F8B504000F0016001D00FFF711
:104A7000A3FF2000FFF71BFF1C23BA00134072079F
:104A80002168120C13430B60842322689375012F55
:104A90001AD11021012E00D008390C4B6943186837
:104AA000C00001F079FF0723216803408D895A0374
:104AB000EB04DB0C13438B81216800048A89C30C4F
:104AC000500B400318438881F8BDC0469800002071
:104AD000F7B50500019308AB1C780E001700FFF72F
:104AE0003DFF2800FFF768FFC0233F059B031F40E1
:104AF000A3070C241C43C02336049B021E4007233B
:104B000001992A6819400B0080213C43344314600A
:104B10002A6889020B435360F7BD00001E2270B55E
:104B200008244D484D49436893431C3A134343605E
:104B30008B6923438B614A4C4A4B9C829C8A144369
:104B40009C82DC681442FCD0474A01241600147091
:104B50001578254203D075786DB2002DF8DB01245D
:104B60009460547864B2002CFBDB404D3E4C656091
:104B7000547864B2002CFBDB82253B4CED01658050
:104B8000547864B2002CFBDB80259C8CAC439C8465
:104B90001024DD682542FCD0324C354DE5621024EE
:104BA000DE68304D2642FBD0AC8C324E3443AC84B0
:104BB0001024DE682B4D2642FBD00226AC8C3443F9
:104BC000AC8440247E36DD683542FCD0254DED684E
:104BD0002542F8D01024DD682542FCD000249460E2
:104BE000547864B2002CFBDB234D1F4C6560547875
:104BF0001D4D64B2002CFADB1E6A204C3440802626
:104C0000760034431C621C6A803EB4431C6203235A
:104C1000AB601B4B6B6053785BB2002BFBDB00235C
:104C2000184A0B724B728B72CB72174B1A60174B70
:104C30001C68174BA1061B686401DA0EFF23490F9D
:104C4000234009021343134A0B4313858022436810
:104C50001343436070BDC046004000410004004063
:104C60000C06000000080040000C00400105010097
:104C7000B805FF7D040A000000070300FFFCFFFFEA
:104C800003060100006CDC02980000202460800014
:104C9000206080000040004210B50400FFF768FB70
:104CA000E06023682000DB689847002808DAFFF7F7
:104CB0005FFBE368C01AA3689842F2D30120404228
:104CC00010BD000070B50D0009490400160001F088
:104CD0005AFB2800FFF7E0FF002806DBB04204D0B3
:104CE000C1B2200001F013FCF3E7200070BDC04604
:104CF00002E200000120704710B503681322DB694F
:104D0000984710BD10B504000069FFF7D0FD2000E2
:104D1000143001F01FFD10BD10B50069FFF7DEFD76
:104D200010BD10B5143001F027FD10BD10B51430C2
:104D300001F028FD10BD10B5143001F00FFD10BDBD
:104D400010B50069FFF7EAFD012010BDF7B51D00A1
:104D500008AB1B780400009309AB1B781600019385
:104D600000234360FA239B0083600A4B0F00083343
:104D70000360143001F0D8FC6A46230012785C33DB
:104D800027619A706A4612791E705D702000DA7091
:104D9000FEBDC0468CE6000010B504000069FFF7B8
:104DA000A9FD002807D02069FFF7B4FD010020000D
:104DB000143001F0C4FC2069FFF7A1FD002805D0E4
:104DC0002069FFF7A0FD2069FFF790FD10BDF023DB
:104DD000194030390800414248417047F0231B0117
:104DE0001940802306209B0099420AD00133FF33EB
:104DF0000130994205D0802302385B00994200D0EF
:104E0000002070470F2300201940012904D00239E7
:104E10004B424B410230C01A704700000300F0B50E
:104E2000182585B003915C33040018782B00082105
:104E300043431B4F1600FB18595601F0EDF92300B0
:104E400008215D33187845437F19795601F0E4F95C
:104E50000122039B11002069FFF704FE31002000AE
:104E6000FFF7BCFF310005002000FFF7CBFF31004A
:104E700007002000FFF7ABFF3B00009029002069EE
:104E80000122FFF7E1FC23005E331A78597820698C
:104E9000FFF7FAFC2069FFF717FD05B0F0BDC0462B
:104EA00020E700003F20704713B56B460268D971B8
:104EB0000733546819000122A04716BD10B502211E
:104EC000006900F04DFC10BD10B50321006900F031
:104ED0005DFC10BD10B5130004000A000069032139
:104EE00000F050FD002801D10123636010BD0000D7
:104EF000074B0200186810B5411C03D00122524232
:104F00001A6003E00221106900F02EFD10BDC046BA
:104F10006C00002010B5054C23685A1C04D10368AE
:104F2000DB68984703002060180010BD6C0000206B
:104F300010B503784222023303700249024800F0A0
:104F4000D3FD10BD280000202F0C002010B50178E3
:104F5000030042780020A12908D1212A2ED11A3A33
:104F60001749184800F0C0FD012027E0212925D16C
:104F7000202A05D1193A1249124800F04DFC04E0EC
:104F8000222A12D19A780E4BDA7196220C4BD2005B
:104F9000196891420FD1D87901231840041E0AD113
:104FA000FA20FFF70FFC200008E0232A06D15A88D8
:104FB000054B1A6002E0FFF70BFC002010BDC04655
:104FC0001C0000202F0C002024000020704700004F
:104FD00010B5FFF7CDF9F423FF330024984207D929
:104FE000044B0A20DC79631E9C41E4B2FFF7C6F94A
:104FF000200010BD1C000020FA220021054B920069
:105000009A60054A596008321A60044A19761A6192
:105010007047C04664070020BCE600002F0C00204B
:1050200070B5C024194EC3B25A01B2189568184918
:10503000A4050D4025439560164D80012818506049
:105040003068072608335B011D5CB543063E3543D7
:105050001D54966931402143702491610E4951617C
:10506000195CA143603C2143195494680B49C3184F
:10507000214080246403214391609168890B890356
:10508000916040215A790A435A7170BD380C002052
:10509000FFFFFF8F500A00208C080020FF3F00F028
:1050A00070B50400012104CC0500137820000B43E7
:1050B000137080220021520004F0E3FA2B689A78E2
:1050C000D207FCD45C6270BD1F22144BF0B51B6884
:1050D000590B9C0C9B0111405B0F22401F2900D1F2
:1050E0001A391F2A00D1023A072B00D1043B1F2591
:1050F00006688C01378D0A492A40394021433185A1
:105100000468218DA9430A43228501681A03088D8A
:10511000044B034013430B85F0BDC0462460800060
:105120003FF8FFFFFF8FFFFFEFF3108303600123C2
:10513000436072B670470368002B02D162B6BFF3BA
:105140006F8F704737B5056904006846002D13D18D
:10515000FFF7EAFF019B621D013B02D3D57FEDB251
:10516000FAE768460193FFF7E6FF002D01D1002022
:1051700016E0236AE06912E00025FFF7D5FF019BE6
:10518000013B04D3220034321578EDB2F8E76846CB
:105190000193FFF7D0FF002DE9D0236BE06A181AC6
:1051A0003EBD0000436830B51968FF2301248268C2
:1051B0001A4052018A18D218917A2143917282685A
:1051C00041681A4052018A18C16895688C040D49DB
:1051D0002409294021439160826841681A405201A4
:1051E0008A189168890B89039160816842680B4035
:1051F0004021126808335B01D3181A790A431A71E7
:1052000030BDC046FF3F00F073B543680400186826
:10521000FF23A16819400A00083252018218D1798F
:10522000C90752D50125D571A2686069616813402C
:1052300000281DD15A018B189A6865619204920C5E
:105240002262A26A68465A60631DDD77FFF76CFF31
:105250002100019B3531013B5A1C2FD022003432F2
:105260001278581ED2B2002A1ED10A700300F3E74A
:105270005B01CB189A6868469204920C2263002264
:105280006261A269661D5A60FFF74EFF2100019B13
:105290003531013B5A1C11D0220034321570F27F97
:1052A000581ED2B2002A06D00193012368460B7023
:1052B000FFF741FF09E00A700300EBE7684601933E
:1052C000FFF739FF2000FFF76DFF73BDF7B50569E4
:1052D00004000F0016006846002D19D1FFF724FFC7
:1052E000019B601D013B5A1C05D0C27F591E002A3C
:1052F00040D00B00F7E768460193FFF71CFF002240
:10530000E369964243D0216A8B4238D316003EE0CF
:10531000FFF70AFF019B013B5A1C08D022003432E0
:1053200015785A1EEDB2002D24D01300F4E768461C
:1053300001930025FFF7FFFEE36AB5420AD0226B16
:10534000934207D25A1CE262A26AD3181B787B559B
:105350000135F1E7226B93424FD100236846E362A7
:105360002361FFF7E1FE22000026019B3532013B5D
:10537000591C32D168460193FFF7DDFE3DE0591C10
:10538000E161A169CB181B78BB540132B8E7226AEE
:10539000934220D10023E361013323616846FFF784
:1053A000C3FE22000027019B651D013B3532591CBD
:1053B0000DD0EF771178581E002901D10300F6E7D0
:1053C0000193002320001370FFF7ECFEE9E7684625
:1053D0000193FFF7B0FE35000FE0210034310E706D
:1053E0001178581E002901D10300C1E70193002361
:1053F00020001370FFF7D6FEB5E72800FEBD37B5D5
:105400006B46DC1D00230D0020002370FFF790FD8C
:105410002B681818286001F003FA210001F0BBF98D
:105420002B681818286020783EBD000003290CD195
:1054300080200E4B62311B68FF315A5C40420243B0
:105440005A546339FF3968220DE001290DD18020BB
:10545000064B24311B68FF315A5C404202435A54C8
:1054600028222339FF39FF3299547047380C002025
:1054700070B500252F4B012104001A201D7000F08B
:1054800031FE01211A2000F081FE2B4B0121192051
:105490001D7000F027FE0121192000F077FE202169
:1054A000264A0135D3690B43D361254A1A3913784B
:1054B0002B4313700F22234B1878904318701878E1
:1054C00008431870204801782943017019780A4070
:1054D00060211A701A780A431A701C4B1C4A5A80B1
:1054E0005A78D209FCD11B48FEF73CFF1A4D280020
:1054F000FFF7D6FD2800FFF7E7FD7F222B68C120CC
:10550000197880000A4004211A701A780A431A7028
:105510001A8908318A4311491A810A581202120A5B
:105520000A5080220A6002211A780A431A70012365
:10553000237070BD4C0A0020340C00200004004091
:10554000584400413C44004159440041000C004093
:10555000064000003D5F0000380C002000E100E044
:105560000078002810D00121084B1B681A898A4353
:105570001A811A8B07310A431A831A8B04390A439A
:105580001A830022024B1A607047C046380C002074
:105590003C0D00200E4A8020936940429B0B9B03E8
:1055A000936113680222FF331A729A7902439A7147
:1055B0001A7A9207FCD57F20064B01409A7A8243E3
:1055C0001143997280219A7A49420A439A7270472C
:1055D000380C00200050004110B50B790C00002B56
:1055E0000BD10800FFF7B2FC002804D1094A9369E7
:1055F0009B0B9B03936101200BE001F011F921004B
:1056000001F0FDF80028F6D1024A93699B0B9B0339
:10561000936110BD380C0020F8B50D00832A16D117
:105620004148CBB2590141188E69404AAD01324020
:10563000C026B60532438A613D4A083355194D618B
:10564000016870205B015A5C8243303862E0022AB4
:1056500042D13820FEF716FF364B80270360002327
:10566000314E7F00421D036203614361C3614660A6
:105670008560C760D3772F320400C3620363137061
:105680003800537003F0BCFFA061380003F0B8FF8E
:10569000FF232A001A40A06250013018876823496E
:1056A00008323940C027BF0539438160306807267A
:1056B0005201115CAD00B143043E31431154A26864
:1056C0002000134062685B01D318A2695A60FFF79B
:1056D00069FD194BEC5025E0822A1ED11248CBB24D
:1056E000590141188E69114A80243240C026B605FE
:1056F00032438A610E4AAD0155194D610833016884
:105700005B01C818027964422243027170205A5C1E
:105710008243403802435A5404E0002A02D1080070
:10572000FFF77EFCF8BDC046380C0020FFFFFF8F5E
:105730008C080020E8E60000100C002070B5050081
:105740000124064BA200D258002A05D021002800CF
:10575000FFF762FF0134F4E770BDC046700000201F
:10576000084B8A00D05810B5002803D003689B6806
:10577000984706E0C9B2044B49015918886880046B
:10578000800C10BD100C0020380C002010B50C004F
:10579000FFF7E6FF00280CD08022064BE4B2196820
:1057A0000834640109194B79524213434B710223A7
:1057B000CB7110BD380C0020144AF0B5CBB2890172
:1057C0005118134A5C01101941608568114940273E
:1057D00029408025AD022943816081680833890B07
:1057E0008903816010685901461835793D43357148
:1057F0004518AD796D06FBD55B01C118C979C9079C
:10580000FBD51419A068C0B2F0BDC046500A0020F4
:10581000380C0020FF3F00F070B50D0040210B4B0D
:1058200014001B68FF335A790A435A710021FFF7AD
:10583000C3FFA04200D9200000230549A34203D0A2
:105840005A5CEA540133F9E770BDC046380C0020B9
:10585000500A002030B5C9B20B4C4901601883686A
:105860009B049B0C3F2B07D9403B85689B049A0CFB
:10587000AB0B9B03134302E083689B0B9B0383608A
:1058800061188868C0B230BD380C0020F0B51C002B
:10589000304B85B01B6806000D000192002B52D0E2
:1058A0002D4F3978C9B2002902D1192000F06EFCC1
:1058B00064233B70294BAA00D058002805D0036808
:1058C00022005B680199984741E029003000FFF70A
:1058D00047FF844204D929003000FFF741FF04004C
:1058E00029003000FFF7B6FF0121EBB21C4F0393F4
:1058F0005B010293029A3B6801989B18FF335A7A26
:105900000A4318495A72AB01C918220003F09BFEE2
:10591000002C1BD029003000FFF722FF002815D1F2
:105920004020039B396808335B01CB181A79024386
:105930001A710122DA71029BCB180121FF339A7A86
:105940000A439A7202E00120404200E0200005B0C4
:10595000F0BDC0463C0D0020340C0020100C00208F
:10596000380C0020500A002013B56B46DC1D2200C5
:105970000123FFF78BFF012801D1207801E00120EE
:10598000404216BDF0B51D003D4B85B01B680E00B2
:105990000392002B6FD08023DB019D426BD8394CE2
:1059A0002178C9B2002902D11A2000F0EFFB64234C
:1059B000237000230193002D52D0334F3B68029394
:1059C000FF2333401C0000930834029B64011B1921
:1059D0009B79DB0915D02D4B2D49186800F0DCFFB1
:1059E0002C4B1721584300F0D7FF2B4B029A12196A
:1059F000D279920705D49A5D002A33D1013831D388
:105A0000F4E70022244B2C1E9A553F2C00D93F244A
:105A1000224FB301FF1822000399380003F013FE50
:105A2000009B194A5B01D3185F619869A204910C2D
:105A3000820B92030A439A61009B029A08335B012E
:105A4000D31802228021DA715A7949420A435A71E5
:105A5000019B2D1B1B190193039B1B190393AAE7A1
:105A600001980AE001229A55009B5B01FF18BB696F
:105A70009B0B9B03BB610120404205B0F0BDC046BB
:105A80003C0D00204C0A0020380C0020980000201B
:105A900040420F0070110100840800208C08002093
:105AA00070B50C001D000D4EA301F618110030005A
:105AB0002A0003F0C8FDE1B24C010949094B09195C
:105AC0004E618A6913408B618869AB049A0C830B21
:105AD0009B03134328008B6170BDC0468C080020D7
