:1020000000800020355300001D5300001D530000C8
:1020100000000000000000000000000000000000C0
:102020000000000000000000000000001D53000040
:1020300000000000000000001D5300008953000054
:102040001D5300001D5300001D5300001D530000D0
:102050001D5300001D5300001D53000021530000BC
:102060001D530000613B00001D5300001D53000084
:102070001D5300001D530000713B00001D53000064
:102080001D5300001D5300001D5300001D53000090
:10209000000000001D5300001D5300001D530000F0
:1020A0001D5300001D5300001D5300001D53000070
:1020B0000000000010B5064C2378002B07D1054B1B
:1020C000002B02D0044800E000BF0123237010BDA4
:1020D00040010020000000006464000008B5084BC7
:1020E000002B03D00748084900E000BF07480368F9
:1020F000002B03D0064B002B00D0984708BDC046EC
:102100000000000064640000440100203001002051
:102110000000000038B5051C0024AC4210D201219B
:102120000D2003F00FFC642003F074F90D20002152
:1021300003F008FC0134642003F06CF9E4B2ECE72E
:102140002C1C092CE8D8C820013403F063F9E4B250
:10215000F7E7000008B50B4B0121186803F0F2FB0C
:10216000094B0021186803F0EDFB084B00211868AB
:1021700003F0E8FB064A074B1A60074B19221A6066
:1021800008BDC0461400002004000020000000200C
:102190003333D33A5C0100208C01002008B50B4B8F
:1021A0000021186803F0CEFB094B0021186803F0EA
:1021B000C9FB084B0021186803F0C4FB064A074B13
:1021C0001A60074B2D221A6008BDC0460800002087
:1021D000100000200C000020C3F528399C010020CD
:1021E0009001002070B5494CE1218EB0201C4902BD
:1021F00001F0A4FD201C01F0A3FD0028FAD00D2061
:10220000012103F045FB424B0121186803F040FB1C
:10221000404B0121186803F03BFB3F4B012118683C
:1022200003F036FB3D4B0121186803F031FB3C4BBA
:102230000121186803F02CFB3A4B0121186803F0C8
:1022400027FBFFF787FFFFF7A9FF0C2003F05AFADF
:10225000354E0421301C01F081FB002805D1201CE3
:10226000324902F075FD02203FE06846304903F034
:10227000BFFD00250A21281C03F0A8FC6946303068
:102280004873281C0A2103F0E5FC6B463031997332
:10229000301C694601F042FC002803D00135EDB244
:1022A000642DE7D1311C05A86A46132301F0E0FB39
:1022B0002048069D079E0899031C45608660C16002
:1022C000103309AA62CA62C312781A700D9B0362A6
:1022D00001F09AFA00280AD11749201C02F026FDC5
:1022E000201C694602F034FD0320FFF713FF201C79
:1022F000124902F01BFD6946201C02F029FD201C3A
:102300000F4902F025FD0EB070BDC046DC0500206F
:1023100008000020100000200C0000200000002019
:102320000400002014000020D8030020845E000078
:10233000975E000068010020AB5E0000BB5E0000FD
:10234000C75E000008B50E2003F030FA064B186097
:102350000F2003F02BFA054B1860102003F026FA2B
:10236000034B186008BDC0469401002060010020A6
:102370009801002008B5024801F016FA08BDC046D1
:102380006801002038B5154C154B0A221968201C2D
:1023900002F02DFD134D201C291C02F0C7FC124B2E
:1023A0000A221968201C02F022FD291C201C02F0C0
:1023B000BDFC0E4B0A221968201C02F018FD291CD6
:1023C000201C02F0B3FC0A4B0A221968201C02F000
:1023D00012FD201C01F093F938BDC04668010020B1
:1023E00094010020CE5E00006001002098010020D2
:1023F0006401002070B502F0DBFF1F4C2060FFF786
:10240000A1FF02F0D5FF2368C51AFFF7BBFF02F05A
:10241000CFFF2368194CC01A194B0A221860194BB8
:10242000201C196802F0E3FC174E201C311C02F03E
:102430007DFC164B0A221968201C02F0D8FC311CC6
:10244000201C02F073FC124B04221968201C02F0BD
:10245000CEFC201C0F4902F069FC291C0A22201C1A
:1024600002F0A7FC201C0C4902F060FC291C201C77
:102470000A2202F0C0FC70BDA0010020DC05002093
:102480006401002094010020D05E00006001002063
:1024900098010020D35E0000DB5E0000437A002B31
:1024A00004D18372C372C36001234372704730B595
:1024B00085B0041C02AD00680291039202F08EFD0B
:1024C0006B79E179227A00932068002302F028FEDC
:1024D00029792068029A02F051FD206802F074FD0B
:1024E00005B030BD70B5041C1826FFF7D7FF207962
:1024F000331C43430D4D0821EB18595603F052FA93
:10250000A079331C43430821EB18595603F04AFACB
:10251000607908214643AD19695603F043FA044B2C
:10252000201C06CBFFF7C3FF70BDC0462C5F000028
:10253000A401002007B5837A00910192002B0DD0F1
:102540009A0706D5EFF310835A425341C37272B60D
:1025500004E0DA0702D58289034B9A600099019A58
:10256000FFF7A5FF07BDC04600180040837A002B87
:102570000BD09A0704D5C37A002B06D062B604E0CC
:10258000DA0702D58289014BDA60704700180040F3
:1025900008B5006802F02BFD08BD0000094B0A4A8F
:1025A0000A491A6000225A711A71094B19601621E2
:1025B0001971182199711721597101215A72D97114
:1025C0001A727047A401002000093D00D4050020C4
:1025D000AC01002008B5011C0148FFF7D9FF08BD78
:1025E000AC01002008B50248FF21FFF7D1FF08BD6C
:1025F000AC01002008B50121007903F0A3F9054BD7
:102600001A78002A04D0002203481A70FFF7AEFFA0
:1026100008BDC046C4010020AC01002010B5084B25
:10262000041C1A78002A06D101221A70054B0648AC
:1026300006CBFFF77FFF2079002103F083F910BD5F
:10264000C4010020BC010020AC01002010B583793A
:10265000041C002B0DD023895A1C2281054A934269
:1026600002D8FFF7BFFFF6E7201CFFF7C3FF0023E8
:10267000A37110BD0102000000B5062903D916237D
:10268000437100201CE00F4B052913D8081C0022C1
:1026900003F092FA030507090B0D0B4908E00B49FB
:1026A00006E00B4904E00B4902E00B4900E00B494E
:1026B000196002E00A4A1A6000221A715A71012058
:1026C00000BDC046BC010020001BB70000093D0052
:1026D00080841E0040420F0020A1070090D003001C
:1026E00048E8010038B50C1C02F05CFE051CFFF741
:1026F00079FFFF2808D002F055FEABB280B2C01AB5
:10270000A042F4DB002000E0012038BDF8B5041C35
:102710000E1C171CFFF79AFF201CFFF77FFF962166
:102720004900201CFFF7DEFF40203043FFF752FF37
:102730001825381CE840C0B2083DFFF74BFF2B1CA2
:102740000833F6D19520002E03D08720082E00D024
:10275000FF20FFF73FFF0025FFF744FF43B2E07281
:10276000002B04DAFF2D02D00135EDB2F4E7F8BDFD
:10277000F7B5002502710573857285714571041CDA
:10278000019102F00FFE012187B2207903F080F859
:102790000121207903F0D6F8434E301CFFF7A2FE4A
:1027A000424B43491D715D711960301C5A68FFF737
:1027B000C1FE0A25013DFF20EDB2FFF70BFF002D02
:1027C000F8D1301CFFF7D2FE201CFFF727FF0021B5
:1027D000201C0A1CFFF79AFF061CE072012809D092
:1027E00002F0E0FDC01BFA2380B2DB009842EED974
:1027F00001233CE0D522201C08215200FFF786FF70
:102800000423184201D026730BE01E1CFFF7EAFEDA
:10281000013EF6B2E072002EF8D10223AA2826D19A
:102820002373267B023E73425E41B60737210022A6
:10283000201CFFF76BFF321C201C2921FFF766FFCD
:10284000021CE07209D002F0ADFDC01BFA2380B279
:10285000DB009842EAD9082309E0237B022B19D137
:10286000201C3A21FFF752FF002805D00623637190
:10287000201CFFF7BFFE15E0FFF7B4FEC023184091
:10288000984201D103232373FFF7ACFEFFF7AAFEA2
:10289000FFF7A8FE201CFFF7ADFE201C0199FFF7F3
:1028A000EBFE051C281CFEBDAC010020BC01002075
:1028B00090D0030038B5041C02F074FD051CFFF72E
:1028C00091FEE072FF280AD102F06CFDABB280B23B
:1028D000C01A96235B009842F1DD0F2302E0FE2828
:1028E00006D00D23201C6371FFF784FE002000E05A
:1028F000012038BDF8B5041C0F1C151C1E1E45D048
:102900009A1880239B009A4242DC8379002B05D0E1
:102910000268914202D10389AB4216D9237B27601A
:10292000032B00D07F023A1C201C1121FFF7EEFE82
:10293000071E02D0032363712AE0201CFFF7BAFFB1
:10294000002825D001232781A3712389AB4205D21A
:10295000FFF748FE238901332381F6E7069D069A97
:10296000AB1A9BB2B34204D2FFF73CFE287001358C
:10297000F5E72389A27AF3189BB22381002A02D0BB
:10298000064A934202D9201CFFF760FE012003E0B3
:10299000201CFFF72FFE0020F8BDC046FF010000FD
:1029A00007B5802300929B000022FFF7A3FF0EBD16
:1029B00070B5051C081C161CFFF70CFE0024305DCA
:1029C000FFF708FE013480239B009C42F7D1FF20D3
:1029D000FFF700FEFF20FFF7FDFDFFF703FE1F23BB
:1029E000E87203400120052B05D01123281C6B71D0
:1029F000FFF700FE002070BD70B50B1C041C161CF8
:102A0000002901D1122328E0027B032A00D04B02C7
:102A1000201C18211A1CFFF779FE051E01D0042383
:102A20001BE0201CFE21321CFFF7C2FF002815D03E
:102A30009621201C8900FFF755FE002801D115239F
:102A40000BE0201C0D212A1CFFF760FE002803D19B
:102A5000FFF7C8FD002806D014236371201CFFF780
:102A6000C9FD002003E0201CFFF7C4FD012070BD5C
:102A7000034B044A1A6000225A711A717047C0460B
:102A8000BC01002000093D00021C10B50C32041CE2
:102A90000121406A00F0F6FC00280AD0236A0120D8
:102AA000002B06D1E368227A236280235B42134322
:102AB000237210BD70B5041CFFF7E6FF002801D19A
:102AC00000201BE0636AE6681A7C023E96405A6961
:102AD0001D79B618002D08D0701E401900F01EFC9C
:102AE0000028EDD0013DEDB2F4E7636A01201A7CC5
:102AF00080239B009340E269D318E36170BD00001E
:102B000010B5041C406900F0E5FB002803D0207ECE
:102B1000014B4001C01810BDD4010020F0B50023C6
:102B200087B0071C0E1C2022F25401330B2BFAD164
:102B30000721002501913C78002C2AD02E2C06D1AB
:102B4000019B0A2B2BD00A21082501911FE002A826
:102B50001449102203F0C9F8002302A9CA5C002A14
:102B600003D00133A242F8D119E0019B9D4216D84F
:102B7000231C213B5D2B12D8221C6B1C613ADBB25B
:102B80007519192A01D8203CE4B22C701D1C01379C
:102B9000D1E730782038431E9841C0B200E00020D1
:102BA00007B0F0BDE55E000038B5427A041C0D1C8C
:102BB000002A01D000201FE04B1CDB7F102B06D128
:102BC0000223437202624B8C5B01C3610CE0202B39
:102BD000F0D103234372496A221C01621C32281C73
:102BE00000F0EAFB0028E5D0002301206562207296
:102BF000E36023616361237638BD0000F0B5437A5A
:102C000085B0041C0E1C0392002B01D13A4811E040
:102C1000037AD807FAD5E26920690399131A994211
:102C200001D99BB2039303990291029B002B04D11B
:102C3000039988B200B205B0F0BD2369617ADF055F
:102C4000FF0D5A0A606A022902D1416A51181BE03D
:102C50000579013D2A40D5B2002F0DD1002D0BD1B1
:102C6000002B02D1226AE26006E0221CE1680C32ED
:102C700000F072FB0028C9D0636AE1681A7C02394F
:102C80005B699140C91849198022029D9200D31BAB
:102C90009D4200DD9DB2237A580601D4954218D199
:102CA000164B1B68994214D0154B3A1C18680096B5
:102CB0002B1CFFF71FFE0028A8D0761901E0DF1BB0
:102CC000F6192169029A4B19551BADB22361029581
:102CD000ABE7081C002100F0FDFA002896D0094B54
:102CE000321CFF1879193B1C8B42E8D0187801334D
:102CF00010700132F8E7C046FFFF00001800002006
:102D0000D0010020D401002073B5437A041C012BAC
:102D100001D8002016E003696D460735DE05291C41
:102D20000122360FFFF76AFF012801D12B7800E05E
:102D3000054B1BB20133ECD0236970011F332361B3
:102D4000024BC01876BDC046FFFF0000D401002032
:102D500070B5041C407A0D1C00282AD0E26991420B
:102D600001D9002025E0022821D0002D01D1E56005
:102D70001DE0626A2169137C681E09334A1ED8402F
:102D8000DA40031E934201D3002902D1226AE26095
:102D900000E0831A1E1C002E09D0221C606AE16824
:102DA0000C3200F0D9FA013E0028F4D101E025618F
:102DB000012070BD38B5051C407A002833D02B7A2D
:102DC0007F2B2DD9281C0121FFF79AFE041E2AD043
:102DD0006B7A012B07D82B7F03776B7F4377AB7F11
:102DE0008377EB7FC3772B6A9AB21B0C23751B0A80
:102DF00063750D4BA2761B68120AE276002B0BD08E
:102E0000201C211C183016319847637E227E1B023D
:102E10001343A3741B0AE3742A7A7F2313402B7293
:102E200000F02EFAFFE738BDC801002010B5041CE1
:102E3000FFF7C0FF002802D000236372012010BDFD
:102E400073B5427A041C0D1C0020012A4BD1207A54
:102E50000223184047D0E3690020994243D8101C50
:102E6000002B40D0201C291C2669FFF771FF002889
:102E700025D0606A002D06D1216A00F067FB00288A
:102E80001DD025621DE0E16801AA00F065FA002866
:102E900015D0606A0199431CDB7F102B01D1124BC6
:102EA00000E0124B99420CD200F050FB002806D0F3
:102EB000606AE1680E4A00F0A1FA002801D1002002
:102EC00011E0227A80235B421343E5612372201CC8
:102ED000FFF770FF0028F2D0291EB14200D9311C43
:102EE000201CFFF735FF76BDF8FF0000F8FFFF0F4D
:102EF000FFFFFF0F38B5234B151C4A01D318041CE4
:102F0000D87A1122104204D04222154201D000206A
:102F100036E01D4A2176126862615A7D187DD97E9D
:102F200012020243987E09021204014311432162F6
:102F3000D87A182202400CD15A7F197F12020A4314
:102F4000997FDB7F09040A431B061343E3610123D6
:102F500009E0102ADBD1221C606A1C3200F02CFA36
:102F60000028D4D0042363720F2300212B40237246
:102F7000E160216101206A0602D5201CFFF760FF95
:102F800038BDC046D401002018000020F0B5457AB5
:102F900087B0041C0E1C0193002D00D086E0101C8D
:102FA00003A9FFF7BBFD002800D180E0726A2F1C47
:102FB0006262F56035613369F269934226D2DB05BE
:102FC0001B0F301C0093FFF79FFE011E6FD003788C
:102FD000002B01D0E52B0BD1002F04D1009B2376D1
:102FE000344B1B6863610B780127002BE3D10DE0A4
:102FF00003A80B2202F06AFE0028DCD1019A3023DC
:103000001340302B53D0201C00994BE0019A12231F
:103010001340122B4BD1002F06D0201C0121FFF7AB
:103020006FFD061E0AD142E0737A022B3FD0301C9E
:10303000FFF740FD00283AD01F4E277600212022BE
:10304000301C02F05BFE301C03A90B2202F04DFE87
:103050001A4B1B68002B05D0301C311C10300E3170
:10306000984706E021223274B37328220823727431
:10307000F373737C327C1B021343FF221A401B0A3A
:10308000F3747376F37BB2743276B27B1B02134314
:10309000B3751B0AF37500F0F3F8002807D0217E02
:1030A000019A201CFFF726FF051C00E00025281CC4
:1030B00007B0F0BD18000020D4010020C801002096
:1030C000F0B5437A87B0041C0D1C0392012B0DD17F
:1030D000037A99070AD55A070CD5E16922698A4211
:1030E00008D0201CFFF734FE002803D101236360C1
:1030F0000020AAE0039B01933BE0606A730A077912
:10310000F605013F1F40FFB2F60D002F36D080229A
:103110009200921B019992B20B1C914200D9131C90
:103120009BB20293636AE1681A7C023991405A6942
:103130008B18029ADF1980239B009A423FD1444B9F
:103140001968B94202D1012252421A60414B391C1E
:1031500018682A1CFFF750FC0028C7D08022920074
:10316000AD180199029A8B1A21699BB201938B18B1
:103170002361019A2669002ABFD149E0002EC6D1F9
:10318000E168002903D1236A002B16D10FE005AABC
:1031900000F0E2F8002858D0626A059B0132D27F25
:1031A000102A01D12C4A00E02C4A934205D3201C5E
:1031B000FFF76AFC0028AAD198E7E360A7E7002E92
:1031C0000FD12369E1698B420BD300F059F8002835
:1031D0008CD01F4B01211F60214B1A780A431A70B3
:1031E00006E0381C012100F075F8002800D17DE7C9
:1031F0001C4B2A1CF618029BF118331C8B4204D07E
:103200001078013218700133F8E79E1BAD19A8E75A
:10321000E169237A8E4201D9E66106E0124A12681A
:10322000002A06D0039A002A03D080225242134378
:103230002372237A190701D4039806E0201CFFF7B4
:10324000B9FD002800D151E7F6E707B0F0BDC04650
:1032500018000020D0010020F8FF0000F8FFFF0F49
:10326000D4030020D4010020C801002007B56B461C
:10327000D9710733191C0122FFF722FF0EBD000090
:10328000F8B50F4F01203B78002B18D00D4E0E4B98
:103290000E4D196830682A1CFFF7AEFB00280ED0CF
:1032A0000B4C2168002907D030682A1CFFF7A4FBCB
:1032B000002804D00023236000233B700120F8BDC8
:1032C000D4030020D001002018000020D4010020E9
:1032D000CC01002070B50D4D041C2B680E1C8342E0
:1032E0000ED0FFF7CDFF002801D100200DE0084BE4
:1032F000211C1868074AFFF753FB0028F5D02C6003
:10330000054B01201A7816431E7070BD180000206E
:10331000D0010020D4010020D403002010B5041CEB
:10332000FFF7AEFF00280FD00023084A0021995470
:103330008022013392009342F7D1054B01201C609B
:10334000044B1A7802431A7010BDC046D401002005
:1033500018000020D4030020C36870B501330C1C92
:10336000151C994201D9002021E0461CF17FC26959
:10337000E309102900D1230A98180D4B1B689842C5
:1033800007D1F27F0B4B102A09D1E4B264001B5B1A
:103390000BE00021FFF79EFF0028F2D1E3E77F2238
:1033A0001440A4001B591B011B092B60012070BD98
:1033B00018000020D401002073B5051C0191161CD3
:1033C0000024281C019901AAFFF7C6FF002810D08D
:1033D0002A7C80239B009340E4186B1CDB7F019ABE
:1033E000102B01D1034B00E0034B9A42E9D3346028
:1033F000012076BDF8FF0000F8FFFF0FF7B5051CB0
:103400000C1C0192012932D9C36800200133994272
:103410002ED86F1CFA7FEE69CB09102A00D10B0A57
:103420009E19144B1B689E4208D1FA7F124B102A3A
:103430000BD1E4B2019A64001A530BE0301C002156
:10344000FFF748FF0028F0D112E07F221440019AD4
:10345000A4001A51094B01201A7802431A702B7EDE
:10346000834205D9AB68F618054B1E6000E00020CA
:10347000FEBDC04618000020D4010020D403002067
:10348000CC010020F0B5156887B0061C0291171C0E
:10349000002D03D000210135019106E0029B056853
:1034A000013B5A425341DBB20193F26800230132DF
:1034B00003922C1C00930099F268914221D2039B45
:1034C0009C4201D90224251C301C211C05AAFFF7AF
:1034D00043FF002815D00599631C002901D01D1C4D
:1034E00003E002995A1B8A4204D0009A1C1C013244
:1034F0000092E0E7301C211C134AFFF77FFF0028F1
:103500000BD100201DE0631E301C191C221C0093EF
:10351000FFF774FF0028F4D0009CAC42F3D8396860
:10352000002906D101993D60002909D00135356097
:1035300006E0301C2A1CFFF761FF0028F2D1E0E70B
:10354000012007B0F0BDC046FFFFFF0F022337B5D3
:10355000051C0C1C0360281C211C01AAFFF7FCFEA3
:10356000002812D0281C211C0022FFF747FF00284A
:103570000BD06B1CDB7F019C102B01D1044B00E0B6
:10358000044B9C42E7D3012000E000203EBDC04632
:10359000F8FF0000F8FFFF0FF8B5444B041C151CA2
:1035A000196029D0042A01D900207DE00020011CE7
:1035B000FFF790FE0028F7D02D013D4BA935FF35D0
:1035C0005D19AA79AB1D5006EED1EA7CA97C1202E6
:1035D0000A43297D09040A43697D09060A43632ACF
:1035E000E2D9AA7BED7B2D0215439A7ADB7A12048D
:1035F00015431B061D43D7D0281C0021FFF76AFE88
:103600000028D1D02A4B197BDA7A09021143802293
:1036100092009142C8D11A7C002AC5D0D9890029CC
:10362000C2D0597B0029BFD022760022217122749A
:10363000227C01209040814204D0501C2074072A33
:10364000F6D9B1E7D98A002900D1596AA160D88991
:103650002818E0611F693E02360C6684B7B21E7CF2
:1036600071430E18134879010918491271186662DE
:103670006161187DDE7C0002304300D1186A6D1A4A
:103680002818D040021CE0600B48611C824201D81F
:103690000C2307E00948824201D8102302E0DB6ACC
:1036A00063622023CB770120F8BDC046D001002003
:1036B000D4010020FF010000F40F0000F4FF00001F
:1036C00013B502686B46D97107335468191C01227F
:1036D000A04716BD38B5041C006A0025A84202D1D7
:1036E000012363600AE0456092B2FFF7E9FC236AB8
:1036F0005B68002B02D001236360281C38BD006A80
:1037000008B5002801D0FFF755FB08BD13B56C467E
:103710000734211C0122FFF771FA012801D120781A
:1037200000E0014800B216BDFFFF0000006A08B5C6
:10373000002802D0FFF7EAFF01E00120404208BD67
:1037400038B5051C006A00280AD0FFF7DFFF041C0B
:10375000631C05D0286A01690139FFF7F9FA201CBA
:1037600038BD0000F8B5FA239B0083600D4B00259F
:103770000833041C4560036028200F1C161C02F04F
:103780009BFA2062A8420AD0391C282202F0ADFA26
:10379000201C1030311C0C2202F039FB2577201C34
:1037A000F8BDC046085F0000FA2292008260044A19
:1037B0000023083243600260036203747047C0460E
:1037C000085F0000036A002B01D0186901E00120A6
:1037D00040427047006A002800D0C069704700006E
:1037E00038B5041C006A00280BD0201CFFF7F2FF3C
:1037F000051C201CFFF7E6FF024B281A984200D94F
:10380000181C38BDFF7F0000006A002803D0407AF2
:10381000431E9841C0B2704710B50A1C0C498AB0CB
:10382000041C0023009169464B720193211C6846D9
:103830000123FFF7ABFB041C601E8441E4B2002CA3
:1038400002D06846FFF7F2FA201C0AB010BDC0464D
:10385000005F000038B50122051C0C1CFFF79CFE20
:10386000021C0120002A03D1281C211CFFF794FE12
:1038700038BDF0B50C68035D2F3B5D426B41E41829
:10388000271C0C37231CC55C1E1B2F2D09D0002DB7
:1038900007D00133161BF618013E3570BB42F2D13A
:1038A0000C2600249455C25C2F3A544262419B1866
:1038B0000B60C05C431E9841C0B2F0BDF0B5A1B032
:1038C000039025480D1C049205930CAA002316A909
:1038D0000D930C905372179316904B7207932C1CF8
:1038E000009207A908AA0398FFF7C3FF0126021C4C
:1038F00072400190D2B2201C08A9059B049FB847D2
:10390000002807D1AC4201D1002023E0201CFFF7A2
:103910008DFAF9E7019F002F11D0331C0098211C6C
:1039200008AAFFF733FB061CAC420FD0201CFFF7A0
:103930007DFA002EE8D0231C009C0093D1E7AC4216
:1039400002D0201CFFF772FA301C03E00028DBD005
:1039500016ACF0E721B0F0BD005F000038B50A1CDE
:103960000121041CFEF704FF002801D100200FE014
:10397000251C1035281C211CFFF76CFF0028F5D0F2
:10398000201C3830291CFFF70FF9431E9841C0B2A4
:1039900038BD00004B6843600A4B03600B7A03722A
:1039A0004B7A4372CB68C3600B6903614B69436117
:1039B0000B7E0376CB69C3610B6A496A036241627D
:1039C0007047C046005F0000F0B59DB0051C38315F
:1039D00008A802920393FFF7DDFF244A12AF0023E9
:1039E000029C7B6012927B7208AE201C2F2102F099
:1039F000F3F900282ED023782F2B01D10134F4E7DE
:103A0000001BC0B2031C0C2800D90C23DBB21A1C0B
:103A1000211C04A8019302F0FAF9019A002304A9D9
:103A2000381C8B54FFF702FA381C311C04AA0123FE
:103A3000FFF7ACFA002804D10C4B68602B60687269
:103A400010E0019B301CE418FFF7F0F9331C3E1C1A
:103A50001F1CCAE70299039A641A1460281C311CBF
:103A6000FFF798FF281C1DB0F0BDC046005F0000A6
:103A7000F0B5A3B0051C1F1C04A803AB161C0191D4
:103A8000FFF7A2FF039BF6183378002B07D104A998
:103A900018A8FFF77FFF281C18A91E4A34E000234E
:103AA0000EAC636063726B4619331B4A1B780E922F
:103AB000002B03D1281CFFF777FE27E0023B012BE8
:103AC00009D80199201C3831321C3B1CFFF75EFAE3
:103AD00000280BD1EEE7201C04A9321C3B1CFFF789
:103AE00055FA0028E6D004A8FFF7A0F906231F42E4
:103AF00003D0201C1599FFF72BF9211C18A8FFF7FC
:103B000049FF281C18A9321CFFF72CFE281C23B0E3
:103B1000F0BDC046285F0000005F000008B5031C30
:103B2000081C191C3831024A0023FFF7C7FE08BDE4
:103B300019380000084B02211961191C002230318C
:103B40000A7006495A719A719A721A73DA63996304
:103B500041331A707047C046D8030020005F000050
:103B600008B5024801F052FB08BDC0463C040020E5
:103B700008B5024801F04AFB08BDC0460005002018
:103B8000F7B5164F1649381C01F088F91549164843
:103B900001F084F91549164801F080F915491648D5
:103BA00001F07CF91549164801F078F9154D032606
:103BB0000124281C144901F071F9391C0096231CBA
:103BC00001940022114801F0FDFA0096291C01948D
:103BD0001F221E230E4801F0F5FAF7BDC80500208C
:103BE00000080042000C0042CC05002000100042FA
:103BF000D005002000140042C40500200018004237
:103C0000D4050020D8050020001C00423C04002000
:103C1000000500203F20704713B502686B46D9713C
:103C200007335468191C0122A04716BD08B5006966
:103C3000022100F03BFC08BD08B50069032100F03B
:103C40004BFC08BD38B50D1C041C131C0069032176
:103C50002A1C00F03DFD002801D10123636038BD1E
:103C600010B5054C23685A1C04D10368DB689847DB
:103C70002060031C181C10BD6C000020074A08B50A
:103C80001368591C04D0012149421160181C03E03B
:103C90000069022100F00EFD08BDC0466C00002046
:103CA00008B503780349023303704222024800F04A
:103CB000C5FD08BD28000020A70A002010B5017826
:103CC000031C42780020A12908D1212A2FD11848AD
:103CD0001849072200F0B2FD012028E0212926D151
:103CE000202A05D113490722114800F03BFC04E0CB
:103CF000222A10D19A780F4BDA710E4B962219684E
:103D0000D200914210D1DC7901231C400CD1FA2061
:103D100001F07CF80AE0232A09D1DA789B781202B4
:103D20001A43054B1A6002E001F076F8002010BD3E
:103D3000A70A00201C00002024000020704700007B
:103D400010B501F02FFBF423FF330024984207D96C
:103D5000044B0A20DC79631E9C41E4B201F05AFB5B
:103D6000201C10BD1C000020064BFA218900996020
:103D7000054900220831196004495A6019611A7610
:103D80007047C046DC05002050630000A70A0020F1
:103D900070B5C2B219495301CB189E68184DC024A2
:103DA0002E40A40526439E60164E800109683018F7
:103DB000083258605201505C0726B0430126304358
:103DC00050549E6935402C439C610F4C5C61505CA3
:103DD0007024A0431024204350549C680B488A1838
:103DE0002040802464032043986098684021800B21
:103DF0008003986053790B43537170BDB00A002063
:103E0000FFFFFF8FC808002004070020FF3F00F0DD
:103E100038B5041C08CC01211A78051C0A431A7015
:103E20008022201C0021520001F068FF2B689A7844
:103E3000D107FCD45C6238BD134BF0B51B68990305
:103E40005A029B01C90ED20E5B0F1F2900D105211A
:103E50001F2A00D11D22072B00D1032304688E01E5
:103E6000278D0A491F2539403143218501682A40A1
:103E70000C8DAC4322430A8502681903108D044B54
:103E800003400B431385F0BD246080003FF8FFFF23
:103E9000FF8FFFFFEFF3108303600123436072B6CF
:103EA00070470368002B02D162B6BFF36F8F704773
:103EB00037B50569041C6846002D12D1FFF7EAFFEB
:103EC000019B013B03D3621DD57FEDB2F9E7684644
:103ED0000193FFF7E6FF0020854217D0206AE369CF
:103EE00013E0FFF7D7FF019B0025013B04D3221C01
:103EF00034321578EDB2F8E768460193FFF7D1FF49
:103F00000020854202D0206BE36AC01A3EBD00004B
:103F1000436810B51A68037A01215B01D318FF3397
:103F20009A7A0A439A72037A42685B01D318C2688C
:103F30009C6891040B4A090922400A439A60037A5B
:103F400042685B01D3189A684021920B92039A60F1
:103F500043681A68037A08335B01D3181A790A4355
:103F60001A7110BDFF3F00F0F7B50569041C0E1C67
:103F7000171C6846002D1FD1FFF78CFF019B013BEA
:103F80005A1C06D0621DD17F5A1E00293AD0131C3C
:103F9000F6E768460193FFF784FF0025E369BD4219
:103FA00035D0226A934232D25A1CE261A269D318F8
:103FB0001B7873550135F1E7FFF76CFF019B013B5F
:103FC0005A1C08D0221C343215785A1EEDB2002D2E
:103FD00018D0131CF4E768460193FFF762FF002531
:103FE000E36ABD4226D0226B934241D322E0621D98
:103FF0000021D17730321678581E8E4214D1031C1E
:104000005A1CF4D168460193FFF74BFF38E0226A4F
:10401000934235D10023E361012323616846FFF712
:1040200039FF019B013BEBE71170201C0193FFF767
:104030006FFFF6E7226B934222D10023E3622361F4
:104040006846FFF727FF019B013B5A1CDAD0221C70
:1040500034320021117001321678581E8E4201D17F
:10406000031CF2E71170201C0193FFF751FFEAE7F0
:104070005A1CE262A26AD3181B7873550135AFE768
:10408000281CFEBD37B54368027A1B68083252010E
:104090009A18041CD0790123FF21184253D0D37100
:1040A000A068656962680140002D20D1490152185D
:1040B000916863618904890C2162A16A6846516034
:1040C000621DD377FFF7E6FE019B013B5A1C33D0FC
:1040D000221C34321178581EC9B20132002903D093
:1040E00001930123137023E01170031CEEE74B01D1
:1040F000D3189A68A5699204920C22630022626127
:1041000068465D60FFF7C6FE019B013B01E0117050
:104110002B1C591C10D0221C343201201070621D3F
:10412000D17F5D1EC9B230320029F0D001931070EA
:104130006846FFF7B6FE06E068460193FFF7B1FE5A
:10414000201CFFF7E5FE37BD37B500236C46E37151
:104150000734201C0D1CFFF7A3FD2B6818182860DE
:1041600001F0C8FC211C01F07FFC2B6818182860A6
:1041700020783EBD03290BD10D4BB2221B685200A3
:10418000985C8021494201439954022168220CE045
:1041900001290CD1064B92221B685200985C8021A9
:1041A00049420143995402212822FF329954704711
:1041B000B00A002038B5304B00240121051C1A201C
:1041C0001C7001F065FB1A20012101F0BBFB2B4B99
:1041D000192001211C7001F05BFB1920012101F065
:1041E000B1FB274B2021DA6901200A43DA61254B14
:1041F00006241A7802431A70234B0F221978914330
:10420000197019782143197020490C7820430870DF
:1042100019780A401A701A7860210A431A701C4BE8
:104220001C4A5A805A78D209FCD11B4801F0B4F8D4
:104230001A4C201CFFF7ECFD201CFFF7FDFD236846
:104240007F2219780A401A701A7804210A431A70DA
:104250001A890C218A431A81C121114A89005058B8
:104260000002000A5050802111601A7802210A438E
:104270001A7001232B7038BDC4080020AC0A00203E
:1042800000040040584400413C440041594400416E
:10429000000C004006400000C94C0000B00A00209D
:1042A00000E100E00078002810D0094B01211B68D4
:1042B0001A898A431A811A8B08210A431A831A8B96
:1042C00004210A431A83034B00221A607047C04638
:1042D000B00A0020B40B00200F4B9A69920B920396
:1042E0009A611B680222FF331A7298798022524227
:1042F00002439A711A7A9007FCD5084B081C997AE8
:104300007F221040914301439972997A8022524250
:104310000A439A727047C046B00A0020005000411C
:1043200010B50B790C1C002B0BD1081CFFF7C6FC39
:10433000002804D1094B9A69920B92039A610120DB
:104340000BE001F0D7FB211C01F0C2FB0028F6D1E5
:10435000024B9A69920B92039A6110BDB00A002039
:10436000F8B50D1C832A16D1CAB242495301CB18A5
:104370009C694148AD012040C024A40520439861B8
:104380003E48083245195D610B685201D15C7020CE
:104390008143402065E0022A45D1382001F078F8B9
:1043A000374B344F8026036076000023421D0362A2
:1043B00003614361C36147608560C660D3772F3274
:1043C000041CC36203631370301C537001F074FC4F
:1043D000A061301C01F070FCFF232A1C1A4052011E
:1043E000A062BF18B968244A07260A40C02189057F
:1043F0000A43BA60A168626819401268083149012D
:10440000885CAD00B043032630438854A1686268DD
:104410000B405B01A169D3185960201CFFF778FDA0
:10442000184BEC5025E0822A1ED1CAB21149530123
:10443000CB189C691048AD012040C024A40520433E
:1044400098610E48083245195D610B685201991850
:104450000C798020404220430871D15C7020814358
:1044600030200143D15404E0002A02D1081CFFF798
:104470008FFCF8BDB00A0020FFFFFF8F040700206B
:1044800080630000880A002038B5051C0124064B13
:10449000A200D258002A06D0211C281C0134FFF7A4
:1044A0005FFFE4B2F3E738BD7000002008B5084BA9
:1044B0008A00D058002803D003689B68984706E01C
:1044C000C9B2044B4901591888688004800C08BDA2
:1044D000880A0020B00A002010B50C1CFFF7E6FF88
:1044E00000280CD0064BE1B21B680831490159186D
:1044F0004A7980235B4213434B710223CB7110BD79
:10450000B00A002070B5CAB2134B14485401890197
:104510005918031959609D681149083229408025AE
:10452000AD022943996099684026890B89039960F7
:104530000368510159180D7935430D71510159180E
:1045400089794D06FAD551015918C979CD07FAD59F
:104550000419A068C0B270BDC8080020B00A0020CD
:10456000FF3F00F038B50C4B141C1B680D1CFF33CB
:104570005A7940210A435A710021FFF7C3FFA04234
:1045800000D9201C0023A34204D0044A9A5CEA54B8
:104590000133F8E738BDC046B00A0020C808002043
:1045A00010B5C9B20C48490143189A689204920C9C
:1045B0003F2A08D9141C9A68403CA404920BA40C0E
:1045C0009203224302E09A68920B92039A60411888
:1045D0008868C0B210BDC046B00A0020F0B51C1CEF
:1045E0002F4B85B01B68061C0D1C0292002B51D06E
:1045F0002C4F3978C9B2002902D1192001F0A2F953
:1046000064233B70284BAA00D058002805D00368CB
:1046100002995B68221C984740E0301C291CFFF778
:1046200045FFA04204D2301C291CFFF73FFF041CA9
:10463000291C301CFFF7B4FF1C4FE9B24A0101915D
:10464000396803928B18FF335A7A01210A431849BB
:104650005A72AB01C9180298221C01F046FB002CCB
:104660001BD0301C291CFFF721FF002815D1019B0E
:104670003A6808335B01D318197940200143197156
:104680000121D97103995318FF339A7A01210A4302
:104690009A7202E00120404200E0201C05B0F0BD0B
:1046A000B40B0020AC0A0020880A0020B00A0020C9
:1046B000C808002013B56C460734221C0123FFF7FD
:1046C0008DFF012801D1207801E00120404216BD74
:1046D000F0B51C1C3F4B85B01B680E1C0292002BD2
:1046E0006AD08023DB019C4266D83B4D2978C9B251
:1046F000002902D11A2001F025F9642300222B7031
:104700000092002C56D0354DF7B22B6801933B1C1C
:104710000833019A5B01D3189B79DB091AD0304B1F
:104720003049186801F052FA2F4B1721584301F015
:104730004DFA3B1C0833019A5B01D318DB799A07C9
:1047400008D42A4B9A5D002A38D1421E002835D061
:10475000101CEEE7254B00229A55251E3F2D00D94F
:104760003F25234AB301D318181C02992A1C03932E
:1047700001F0BBFA194A7B01D318039AA9045A61C4
:104780009A69890C920B92030A439A613B1C019A25
:1047900008335B01D3180222DA7159798022524220
:1047A0000A435A71009B029A5B1952190093641BC9
:1047B0000292A6E700980BE0012008E001229A553A
:1047C0007B01ED18AB69101C9B0B9B03AB61404256
:1047D00005B0F0BDB40B0020C4080020B00A0020D2
:1047E0009C00002040420F0070110100FC060020D8
:1047F0000407002070B50E4D1C1C8B01ED18281C01
:104800000E1C111C221C01F070FAF6B20949760147
:1048100089194D618A69084B201C13408B618B6993
:10482000A2049B0B920C9B0313438B6170BDC0468B
:1048300004070020B00A0020FF3F00F0F7B5114B3D
:1048400001901B780F1C141C002B19D10E4B1E78E5
:10485000002E01D1151C08E00C4D0D482E88801942
:10486000361901F042FA2E800AE0002D08D0BA195C
:104870002B1C01980021FFF7BDFF36182D1AF4E715
:10488000201CFEBDA60A0020A40A0020FA06002073
:10489000F9050020F8B50E1C00AF151E012D28D912
:1048A000D31DDB08DB006A46D21A9546081C01F0CE
:1048B000A7FA01306C464000032320706370022287
:1048C000AA420ED23378002B0BD0511CC9B201364C
:1048D000A354A94204D0002302326354D2B2EFE7BA
:1048E0002A1C0548211CFFF7A9FF431E9841C0B2AE
:1048F00000E00020BD46F8BDA70A002008B5044B23
:1049000000221A70034B04491A88FFF797FF08BD6D
:10491000A40A0020FA060020F9050020F0B5204A7C
:1049200087B001230026009102A91370051C02968E
:10493000FFF70AFC03AC092701903A1C201C311C2C
:1049400001F0DCF902236370A023E371FA232372E0
:10495000029B0122DB196380019B62712371104A63
:10496000009B27701670BB4205D1281C211C1A1C05
:10497000FFF764FF11E00B4B01221A700A4B211C58
:104980003A1C281C1E800296FFF758FF281C02A91B
:10499000FFF7DAFB281CFFF7B1FF012007B0F0BDDD
:1049A000A60A0020A40A0020FA06002070B5CE78DE
:1049B0008AB0051C0C1C022E08D1C9882348FFF7B9
:1049C000ADFF031C581E8341D8B23DE001F092F8C0
:1049D000211C01F05EF8002803D0C3171B1AD80F62
:1049E00032E0012E04D1E2881949112A27D823E0A8
:1049F000032E29D1A278002A05D11649E2880B7826
:104A0000934219D81BE0022A03D1A279281C12492B
:104A100004E0012A05D1A2791049281CFFF73AFFCA
:104A200012E0032A10D101F065F801A901F041F864
:104A3000A279281C01A9F1E7D2B2002A00D10A7894
:104A4000281CFFF7FBFE01200AB070BDA70A00205A
:104A50009E6300009A630000B06300009063000052
:104A600073B5051C48780C1C0B2878D801F0A4F805
:104A7000081C7728773E4306474B686F00206FE09D
:104A8000097801AA002903D111705170281C09E08E
:104A9000002313705370334B1B78012B00D113701C
:104AA000281C002102234FE08A780023012A04D128
:104AB00001AA137053702C4BEEE72A4A137049E099
:104AC0008E78012E07D1284B01AA00211E7011708B
:104AD000281C331C38E0002E08D1224A0123137011
:104AE000224A9169890B8903916138E0A178281CD9
:104AF000FFF7F2FB33E0281CFFF758FF30E0281CDB
:104B000000211B4A1FE00A780020D30628D1281C68
:104B1000FFF7BAFCA2781549154B02241A600A68FF
:104B20002A23FF33D05C2043D0544A20FF30145C4A
:104B300001231C4314548A69920B92038A610EE08C
:104B40000C4A281C00210123FFF754FE07E08A7855
:104B5000084B1A60054B9A69920B92039A610120E7
:104B600076BDC046F8050020A50A0020B00A002046
:104B7000B40B0020A80A0020F8B54B4B071C1C788A
:104B8000002C00D08EE0494D2868838B19070DD585
:104B9000201CFFF7FDF82B6810201A1CFF32917AB9
:104BA00001439172424A146008229A832B689A8BBF
:104BB00050071FD504229A833E4B1A78002A0AD048
:104BC0001A78013AD2B21A701B78002B03D11A203E
:104BD000012100F0B7FE384B1A78002A0AD01A7863
:104BE000013AD2B21A701B78002B03D1192001218F
:104BF00000F0A8FE2B68FF331A7AD10626D51022C2
:104C00001A725A7940210A432C495A710A78602352
:104C1000381C1A4202D1FFF723FF01E0FFF780FBA7
:104C2000002806D02B688022FF33997952420A432C
:104C300001E0234B20229A712B68FF331A7A500629
:104C400004D540221A72597A0A435A722968FE23FF
:104C50000E8C00241E40E1B2002E23D0321C012312
:104C600022411A4216D0221C2868083252018218AA
:104C7000D079184203D1D279DA401A4207D0114BC9
:104C8000A200D058002809D003681B689847012368
:104C9000A3409E430134092CDDD103E0381CFFF70B
:104CA00069FAF4E7F8BDC046A40A0020B00A002063
:104CB000B40B0020C4080020AC0A0020C808002063
:104CC000FF500041880A002008B50248FFF754FF52
:104CD00008BDC046A70A0020014A024B1A6070476F
:104CE00000500041B00A0020F7B58A18061C0D1CC0
:104CF00001920C1C019B671B9C4207D033682178F2
:104D00001B68301C984701340028F3D1381CFEBDC5
:104D100038B5051C0C1C081E07D001F071F82B6873
:104D2000021C5B68281C211C984738BD08B5FFF79A
:104D3000EFFF08BD08B503681B68984708BD000071
:104D400008B50249FFF7E4FF08BDC046BB63000099
:104D500038B5041CFFF7DCFF051C201CFFF7F0FF33
:104D6000281838BDF0B58DB0161C0BAB0022019091
:104D70000C1C1A70012E00D80A266D462B35201CFB
:104D8000311C00F067FF201CCFB2311C00F01EFF69
:104D9000291C041C092F01D8303700E03737FFB237
:104DA0002F70013D002CEAD10198FFF7B1FF0DB043
:104DB000F0BDF8B5041C0D1C161E04D10368C9B261
:104DC0001B68984712E00A2A0DD100290ADA2D2122
:104DD000FFF7B0FF6942071C321C201CFFF7C2FF1F
:104DE000C01903E000E0D2B2FFF7BCFFF8BD08B580
:104DF000FFF7DFFF08BD38B5041CFFF7DAFF051C1D
:104E0000201CFFF79DFF401938BD0000014B1860C2
:104E10007047C04698000020024B012252421A609F
:104E20007047C04698000020154A1368581C25D0CA
:104E3000013B1360002B21D172B6124A124B04328F
:104E40009A4207D8BFF34F8F104A114BDA60BFF375
:104E50004F8F11E00F4B197DC807FBD5188B202110
:104E6000FF319208520001431983DA610A4A1A801D
:104E70001A7DD107FCD5E5E7C046FDE77047C0467F
:104E80009800002000200000030200000400FA0542
:104E900000ED00E00040004102A5FFFF0160704707
:104EA000F7B508AC267804689D1E27686C1EA541DE
:104EB000ECB2920705683A4327063A432A60026833
:104EC000072529405068B501002C00D05C03294318
:104ED00001430C435460F7BD30B50368C0251C681E
:104EE000AD0312052A402243C024A4020904214034
:104EF0001143196003685A6814435C6030BD03684D
:104F000001211A680A431A600268116801231942D4
:104F1000FBD1D1691942F8D17047036802211A68A0
:104F20000A431A600268D3699907FCD47047036882
:104F30001A7ED10702D41A7E9107FCD57047036808
:104F400000225A8370470368187E4007C00F7047DD
:104F50000368187EC009704703688022197E524298
:104F60000A431A7670470368188DC0B27047036809
:104F70001A7E01200242FBD01985704770B5036884
:104F800001268D07ED0F31401C686D070907294385
:104F90002143196004685100034800F017FE0138EE
:104FA000C0B2207370BDC046006CDC0203680121F2
:104FB0001A680A431A600268116801231942FBD17A
:104FC000D1691942F8D17047036802211A680A436F
:104FD0001A600268D3699907FCD470470368DA69DC
:104FE0009107FCD41A6802218A431A60704703684B
:104FF0009A6A520A52021143996203681A7E510753
:10500000FCD5986AC0B270470368224A30B5934213
:1050100011D0214A934211D0204A934211D0204A04
:10502000934211D01F4A934211D01F4A934230D16C
:105030000E2319220DE0092314220AE00A23152267
:1050400007E00B23162204E00C23172201E00D23B6
:105050001822DCB2154901209B08A0409B00086083
:105060005B180320C021890004405D58E000FF2444
:105070008440A5432C1CC0258540281C2043585043
:105080008023DB011A430A4B5A805A7852B2002A15
:10509000FBDB30BD00080042000C00420010004263
:1050A0000014004200180042001C004200E100E031
:1050B000000C0040F8B5041C151C0E1C1F1CFFF74B
:1050C000A3FF201CFFF71BFFB1001C220A40690749
:1050D0002368090C0A431A60226884239375012E01
:1050E0001AD10821012D00D110210C4B79431868E9
:1050F000C00000F06BFD236807219A890140D204AB
:105100004903D20C0A439A8123680004C20C98898F
:10511000400B400310439881F8BDC0469C0000201E
:10512000F7B5019308AB041C1F780D1C161CFFF784
:105130003DFF201CFFF768FFBF070C221743C0226A
:10514000920336051640C02292022D0423683E4386
:1051500001991540354307221D600A4080212368CC
:1051600089020A435A60F7BD0120704708B50368F9
:10517000014ADB69984708BD1304000010B5041C00
:105180000069FFF7BCFE201C143000F0E4FC10BDE9
:1051900008B50069FFF7CBFE08BD08B5143000F074
:1051A000F5FC08BD08B5143000F0F9FC08BD08B5E1
:1051B000143000F0D7FC08BD08B50069FFF7D7FE32
:1051C000012008BDF7B51D1C08AB1B78041C00931B
:1051D00009AB1B78161C019300234360FA239B0044
:1051E0008360094B0F1C08330360143000F094FCFB
:1051F000009A231CC03327619A70019A1E705D705B
:10520000201CDA70FEBDC046D063000010B5041C3F
:105210000069FFF798FE002807D02069FFF7A3FE7A
:10522000011C201C143000F084FC2069FFF790FE64
:10523000002805D02069FFF78FFE2069FFF77FFE69
:1052400010BDF023081C18403038434258417047C5
:10525000F0231B01194080239B0099420CD0C023EE
:105260009B00994206D080235B000520994204D020
:10527000002002E0072000E0062070470F231940BD
:10528000012905D002394B424B410220C01A00E0EF
:1052900000207047F0B5031C85B00391C033041C97
:1052A000182718783B1C43431B4E0821F318595606
:1052B000151C00F077FB231CC133187808214743E5
:1052C000F619715600F06EFB01210A1C039B206940
:1052D000FFF7F0FE291C201CFFF7BAFF291C071C52
:1052E000201CFFF7CBFF291C061C201CFFF7A9FF81
:1052F000391C0090331C20690122FFF7D1FD231CCB
:10530000C3331978013B1A782069FFF7E5FD20695E
:10531000FFF703FE05B0F0BD2C5F0000FEE70000C4
:1053200008B5034B1B68002B00D0984708BDC0464A
:10533000B80B002038B50F490F4CA14204D100F042
:10534000ABF800F085F80BE00C4D8D42F7D0002350
:10535000CA18E818A24204D2006804331060F7E7C4
:10536000FEE79042EBD0064B064A9342E7D200227A
:1053700004C3F9E700000020400100206864000039
:1053800040010020DC0B002008B500F05EF800288A
:1053900001D100F04FF808BD014B18607047C046BE
:1053A000B80B0020014B18687047C046BC0B0020AA
:1053B000F7B5144D144CA96814486268036852018B
:1053C000D20F2E1C271C8446B0687D6801906D01A9
:1053D0006046ED0F0468AA4203D02A1C231C0199E1
:1053E000F2E7A342FAD101988142F7D30548D218D7
:1053F0004068FA23411A06489B0048435343000D76
:10540000C018FEBD10E000E000ED00E0BC0B002085
:105410005555000070B5041E08D0054B1D681E1CB4
:1054200000F012F833685B1BA342F9D370BDC0468D
:10543000BC0B002008B5034B1A6801321A60FFF755
:10544000F3FC08BDBC0B002070470020704770477C
:1054500010B500F0D5F800F009FCFFF7F8FF0120C7
:10546000FFF7D8FF084C201CFEF7A4FE201CFEF717
:1054700019FFFCF7B7FEFCF7BDFF044B002BFAD079
:1054800000E000BFF7E7C046A70A002000000000C8
:1054900008B500F011FC08BD70B5494A1E215368DB
:1054A00002208B430343474953608B6908242343FD
:1054B0008B61454C454B9C829C8A20439882101CF2
:1054C000DA689407FCD5424A012414701478E50781
:1054D00004D53F4C647864B2002CF7DB012494605F
:1054E000547864B2002CFBDB3A4D394C656054783B
:1054F00064B2002CFBDB8225354CED0165805478CD
:1055000064B2002CFBDB02249C84DC68E606FCD53C
:10551000314D2E4CE562DD682C4CEE06FBD5A58C9A
:105520002E4E3543A584DD68284CEE06FBD5A58CB0
:1055300002263543A584DC682506FCD5234CE468A7
:105540006606F8D5DC68E506FCD50024946054783E
:1055500064B2002CFBDB224D1D4C656055781C4C61
:105560006DB2002DFADB1E6A1E4D35401D621D6AAC
:105570008026B5431D620323A3601B4B63605378F1
:105580005BB2002BFBDB00230B72184A4B728B7251
:10559000CB72174BFF211A60164B174A1B68126813
:1055A0005C01D20E214011439A06520F12020B1CCD
:1055B0001343124A1385436880221343436070BD2E
:1055C00000400041000400400C06000000080040BC
:1055D000000C004001050100B805FF7D040A000031
:1055E00000070300FFFCFFFF03060100006CDC0264
:1055F0009C00002024608000206080000040004269
:10560000314BFA21186810B5890000F0DFFA2F4BF2
:105610000138984224D82E4A2E4B5060186AC02177
:105620000002000A09060143196200240721946060
:105630001160196A80220902090A12060A431A62D5
:10564000254BFC211A6A0A431A62196AFC2292014C
:105650000A431A62196AA022D2020A431A6200E0BF
:10566000FEE7201C0021013400F012F9142CF8D1BF
:105670001A4C63785BB2002BFADB194B6380194B31
:105680005A7ED209012AFAD0E422D2009A803F221F
:10569000DA70597E134AC9090129FAD0C0235B0187
:1056A00000201361907000F053F863785BB2002B18
:1056B000FBDB0D4A094B5A800C4BDA79D209012ADF
:1056C000FAD041225A7010BD9C000020FFFFFF005D
:1056D00010E000E000ED00E000040040000C00409D
:1056E0001E400000004000422140000000480042EF
:1056F000914205D002D9891AC84001E0511A884068
:10570000704700000F4B302118600F4A0F4B0A28DA
:1057100004DD9888884398800C210DE0082807DD77
:1057200098888843011C2020014399800A2103E0C6
:10573000988801439980082111605A7ED209012A74
:10574000FBD07047A4000020A000002000400042D1
:1057500000B5144A517E131CC9090129F9D001383A
:10576000042813D81969104A0A401A615A780F217F
:105770008A4300F021FA030509070300012102E032
:10578000032100E002210A435A700AE01169F02364
:105790001B050B43136153780F218B4302210B43ED
:1057A000537000BD00400042FFFFFFF010B5041E23
:1057B000062C05D0072805D0052804D80E3402E0B1
:1057C000082400E00924201C012100F0EBF80E2C35
:1057D0000CD12A4BDA79D209012AFAD01A7802219F
:1057E0008A431A70DA79D209012AFBD0244B5A7EF7
:1057F000D209012AFAD018225443224A18691419EE
:10580000217C1F2290431140021C0A431A61597ED9
:105810001B4AC9090129FAD01178022001431170ED
:10582000597E174AC9090129FAD0117B0220014388
:10583000117301211176597E114AC9090129FAD043
:10584000117B0220014311731A7ED107FCD50C4A4B
:10585000508B80B2597E0A4AC9090129FAD01178C1
:105860000224A14311705A7ED209012AFBD0064BB3
:105870001968064B1A68FFF73BFF10BD004800424D
:10588000004000422C5F0000A0000020A400002087
:1058900010B51824021C201C5043274B1818007AFE
:1058A00040B2013046D0032944D8081C211C00F026
:1058B00083F902331121624398569A18C3011F4895
:1058C00052681B189918403102200870012191403C
:1058D00059602FE06243985618499A185268C301DC
:1058E0005B189918403106200870012191405960D9
:1058F00099611FE051435A56104859184B68D2011C
:105900001118C818403006240470012098404860DF
:105910000B49521850600DE0624398569A18C30123
:10592000064852681B18991840310220087001215E
:105930009140996010BDC0462C5F000000440041BA
:105940001044004118235843134AF0B51318082493
:105950001C5701341FD08256104ED2015D680124BD
:105960009019231C8668AB401E420BD10E1C771E7B
:10597000BE41401934404030A50004780426B443A9
:105980002C430470002903D105495218536002E0EA
:10599000024E92199361F0BD2C5F0000004400415B
:1059A0001044004118224243F8B52D4D0824AA188E
:1059B0001457031C621C50D0481C00240C284CD8DF
:1059C00000F0FAF8071E1E1E1E1E1E1E1E0A0A0AE0
:1059D0000A000124644240E0092902D1181C002178
:1059E00003E00A2904D1181C0221FFF751FF23E02C
:1059F00000240B2931D1181C0121FFF749FF2CE0AD
:105A000018225343EA185268EB560120141C044034
:105A10005508DB01002C11D0124C1B195D193035D3
:105A20002E780C010F21314021439A18C9B22970F8
:105A3000403213781843107000240EE0094E0F27EF
:105A40009B195D1930352E789A18BE433143C9B27F
:105A500029704032137818431070201CF8BDC046DE
:105A60002C5F00000044004170B544680E1C002506
:105A7000002C09D02368201C5B68311C9847002843
:105A800004DB2D18E468F3E7281C01E00120404204
:105A900070BD38B544680D1C002C08D02368201C4C
:105AA0009B68291C9847002802D1E468F4E7201C71
:105AB00038BD38B544680D1C002C07D02368201C65
:105AC000291CDB689847E4682D18F5E72C7038BD71
:105AD00038B544680D1C002C08D02368201C1B68B6
:105AE000291C9847002803D1E468F4E7201C00E053
:105AF000012038BD064B0122196810B51140054838
:105B000005D1022404700424447041601A6010BD61
:105B1000C80B0020C00B002010B50021041CA422DB
:105B200000F0ECF8221CA4320023201C1360536008
:105B300010BDF8B5051CA4352E68041C0F1C701C84
:105B4000A42100F087F8231CA8331B68994201D0D8
:105B5000A7552960F8BD021C0023A432A8301360A9
:105B60000360704738B5021C041CA834A4322368B3
:105B70001268934207D0C55CA421581C00F06AF853
:105B8000281C216001E00120404238BD031CA433E1
:105B9000A8301A680368D01A00D5A4307047031CD7
:105BA000021CA833A4321B681268934201D0C05C67
:105BB00001E001204042704702B4714649084900A3
:105BC000095C49008E4402BC7047C046002934D0AD
:105BD0000123002210B488422CD301242407A142BF
:105BE00004D2814202D209011B01F8E7E400A1427C
:105BF00004D2814202D249005B00F8E7884201D317
:105C0000401A1A434C08A04202D3001B5C082243EE
:105C10008C08A04202D3001B9C082243CC08A0425F
:105C200002D3001BDC082243002803D01B0901D04B
:105C30000909E3E7101C10BC7047002801D00020C0
:105C4000C04307B4024802A14018029003BDC046F9
:105C5000190000000029F0D003B5FFF7B9FF0EBC12
:105C60004243891A1847C0467047C04670B50E4B6C
:105C70000E4D0024ED1AAD101E1CAC4204D0A30042
:105C8000F35898470134F8E700F0F0F8084B094D55
:105C90000024ED1AAD101E1CAC4204D0A300F35832
:105CA00098470134F8E770BD0C0100200C0100207A
:105CB0000C0100202C01002008B5034B011C1868C2
:105CC00000F024F808BDC0460801002030B50023CC
:105CD000934208D0C55C0133CC18013C2478A5421E
:105CE000F6D0281B00E0002030BD10B50023934201
:105CF00003D0CC5CC4540133F9E710BD031C8218F7
:105D0000934202D019700133FAE7704770B503234C
:105D1000CD1C9D430835061C0C2D01D20C2501E03D
:105D2000002D3FDB8D423DD3204B1C681A1C211CEB
:105D3000002913D00868431B0DD40B2B02D90B602C
:105D4000CC181EE08C4202D1636813601AE04868E8
:105D500060600C1C16E00C1C4968E9E7144C2068D4
:105D6000002803D1301C00F025F82060301C291CCD
:105D700000F020F8431C15D0C41C03239C4384422C
:105D80000AD12560201C0B300722231D9043C31A23
:105D90000BD05A42E25008E0211A301C00F00AF8F9
:105DA0000130EED10C233360002070BDD00B0020F9
:105DB000CC0B002038B5074C0023051C081C2360C1
:105DC00000F03AF8431C03D12368002B00D02B606D
:105DD00038BDC046D80B0020C9B20378002B03D0D1
:105DE0008B4204D00130F8E7002900D0181C70471E
:105DF000031C0A7801311A700133002AF9D1704767
:105E00000023C25C0133002AFBD1581E704730B515
:105E1000031C002A07D00C7801335D1E013A2C7058
:105E20000131002CF5D19A18934203D0002119704A
:105E30000133F9E730BD0000094A1368002B0CD08C
:105E400018186946884202D81060181C7047054B24
:105E50000C2201201A604042F8E7034B1360EFE781
:105E6000D40B0020D80B0020DC0B0020F8B5C04676
:105E7000F8BC08BC9E467047F8B5C046F8BC08BCE4
:105E80009E4670474361726420696E69742E206675
:105E900061696C65642100456E657267794D6F6E4E
:105EA00069746F7230302E54585400436F756C64AF
:105EB0006E7420637265617465200057726974693D
:105EC0006E6720746F2000526561647921002C0098
:105ED0002C09002C204D6561733D002C2053445447
:105EE000696D653D007C3C3E5E2B3D3F2F5B5D3B1D
:105EF0002C2A225C000000000000000000000000CE
:105F00006D320000E94C00000000000000000000BD
:105F1000C1360000D5360000E13700002D37000003
:105F200041370000FF3600002F0000000000000095
:105F30000B0000000200000004000000FF00FFFF53
:105F4000FFFF0B00000000000A000000020000003C
:105F500004000000FF00FFFFFFFF0A000000000038
:105F60000E0000000800000004000000FF00FFFF1A
:105F7000FFFF0E0000000000090000000400000008
:105F80001C000000FF0001000100090000000000EB
:105F900008000000040000001C000000FF000000DA
:105FA00000001000000000000F00000004000000CE
:105FB0001C000000FF00010301030F0000000000AF
:105FC00014000000050000002C000000FF0002008B
:105FD000020004000000000015000000080000009E
:105FE00004000000FF00FFFFFFFF050000000000AD
:105FF00006000000040000001E0000000600000172
:10600000000106000000000007000000040000007E
:106010001E00000007000101010107000000000050
:1060200012000000040000001C000000FF0000033C
:106030000003020000000000100000000400000047
:106040001C000000FF000002000200000000000031
:1060500013000000050000002C000000FF000300FA
:106060000300030000000000110000000400000015
:106070001C000000FF0001020102010000000000FE
:106080000200000001000000020000000000FFFF0D
:10609000FFFF0200010000000800000001000000F6
:1060A00018000000020000040004080001000000C5
:1060B00009000000010000001800000003000104B6
:1060C00001040900000000000400000001000000BD
:1060D000000000000400FFFFFFFF040000000000BC
:1060E0000500000001000000000000000500FFFFA7
:1060F000FFFF050001000000020000000100000099
:10610000000000000A00FFFFFFFF02000000000087
:10611000160000000200000004000000FF00FFFF66
:10612000FFFF060000000000170000000200000052
:1061300004000000FF00FFFFFFFF07000000000059
:106140000C0000000300000004000000FF00FFFF3F
:10615000FFFF0C00010000000A0000000300000027
:1061600004000000FF00FFFFFFFF0A000100000025
:106170000B0000000300000004000000FF00FFFF10
:10618000FFFF0B0001000000030000000B000000F7
:1061900004000000FF00FFFFFFFFFF000000000001
:1061A0001B0000000B00000004000000FF00FFFFC8
:1061B000FFFFFF00000000001C00000006000000C0
:1061C00000000000FF00FFFFFFFFFF0000000000D5
:1061D000180000000600000000000000FF00FFFFA4
:1061E000FFFFFF0000000000190000000600000093
:1061F00000000000FF00FFFFFFFFFF0001000000A4
:10620000160000000300000000000000FF00FFFF78
:10621000FFFFFF0001000000170000000300000066
:1062200000000000FF00FFFFFFFFFF000000000074
:10623000160000000200000000000000FF00FFFF49
:10624000FFFFFF0000000000170000000200000038
:1062500000000000FF00FFFFFFFFFF000000000044
:10626000130000000200000000000000FF00FFFF1C
:10627000FFFFFF000000000010000000020000000F
:1062800000000000FF00FFFFFFFFFF000000000014
:10629000120000000200000000000000FF00FFFFED
:1062A000FFFFFF00000000001100000002000000DE
:1062B00000000000FF00FFFFFFFFFF0000000000E4
:1062C0000D000000040000000C000000FF000100B1
:1062D000FFFF0D0000000000150000000500000099
:1062E0000C000000FF000300FFFFFF0000000000A3
:1062F00006000000040000000C000000FF00000188
:10630000FFFFFF0000000000070000000400000085
:106310000C000000FF000101FFFFFF000000000073
:10632000030000000100000002000000FF00FFFF6A
:10633000FFFFFF000000000002000000010000005D
:10634000020000001400FFFFFFFF02000000000039
:106350000000000000000000193C0000453C000067
:106360002D3C00007D3C0000613C0000393C0000F9
:10637000153C0000000000000000000000000000CC
:1063800085400000693F0000B13E000000000000B1
:1063900041646166727569740000040309041201A6
:1063A0000002EF0201409A230B8000010102030169
:1063B00046656174686572204D30000D0A006E619B
:1063C0006E00696E66006F7666002E0000000000A9
:1063D0000000000000000000B9510000E94C00007E
:1063E0009B510000AF510000A551000091510000E9
:1063F0006D510000955200007D5100006951000070
:106400004300000000000000000000000000000049
:10641000000000000000000000000000000000007C
:10642000000000000000000000000000000000006C
:10643000000000000000000000000000000000005C
:10644000000000000000000000000000000000004C
:10645000000000000000000000000000000000003C
:08646000000000000000000034
:106468000A0000000B000000050000000900000001
:10647800060000000C000000FFFFFFFF00C2010043
:1064880000000800FFFFFFFF080B000202020000E7
:106498000904000001020200000524001001042480
:1064A80002060524060001052401010107058103F0
:1064B80010001009040100020A000000070502028A
:1064C800400000070583024000000000FFFFFFFFB7
:1064D80000000000830000000200000082000000AD
:1064E80000000000000000000000000000000000A4
:1064F8000000000000000000FFFFFFFF40420F0007
:106508000A0000000A000000000000000464000007
:106518002464000044640000000000000000000043
:1065280000000000000000000064000000000000FF
:106538000000000000000000000000000000000053
:106548000000000000000000000000000000000043
:106558000000000000000000000000000000000033
:106568000000000000000000A8000020DD2000005E
:10657800752300009D250000712A0000353B0000AE
:10658800813B0000693D0000D94C0000B5200000A7
:1065980000000000000000000000000000000000F3
:040000030000533571
:00000001FF
